:0200000280007C
:1000000098340720A52F0800A12F0800A12F080071
:10001000A12F0800A12F0800A12F08000000000058
:100020000000000000000000000000004D28080053
:10003000A12F08000000000085280800C128080042
:10004000A12F0800A12F0800A12F0800A12F080050
:10005000A12F0800A12F0800A12F0800A12F080040
:10006000A12F0800A12F080000000000152E080095
:10007000292E08003D2E0800512E08000000000027
:1000800000000000A12F0800A12F0800A12F0800E8
:10009000A12F0800A12F0800A12F0800A12F080000
:1000A000A12F080000000000A12F0800A12F0800C8
:1000B000A12F0800A12F0800A12F0800A12F0800E0
:1000C000A12F0800A12F0800A12F0800A12F0800D0
:1000D000A12F0800A12F0800A12F0800A12F0800C0
:1000E000A12F0800A12F0800A12F0800A12F0800B0
:1000F000A12F080010B5054C237833B9044B13B178
:100100000448AFF300800123237010BD680B072063
:1001100000000000C4A208000C4B43B10C4810B50D
:100120000C49AFF300800C48036823B910BD0A489E
:10013000036833B97047094B002BF7D0BDE8104076
:100140001847064B002BF5D0184700BF00000000F1
:10015000C4A208006C0B0720C4A208000000000025
:1001600030B585B00C460C4B1B780C4A042103A813
:100170000B4DA84762880C3221881E3141F6F0638E
:1001800001934FF6FF730093064B12B209B203A816
:10019000054CA04705B030BD840B072074840800CF
:1001A00009380800380107205510080010B5C9B2F9
:1001B000012903D002290CD0002010BD0A4B1C6875
:1001C0000A4B18680A4B984701462046094B984746
:1001D000F2E7094A137801331370084B1868084B8B
:1001E0009847084B9847E7E7980B07209C0B072098
:1001F0000524080029200800840B0720A00B0720F5
:10020000CD1A08009519080070B586B05F4B984765
:1002100006465F4D00242C7148F231632B81ADF806
:100220001040ADF812405B4B9847ADF814005A4BA4
:100230009847ADF816000194584B009323462A4680
:1002400004A93046564CA047564B1860002800F0D1
:100250009B80554B98470446544B98470A23ADF86A
:100260001030ADF81230524D294605A8514B984731
:100270000023019300934FF6FF732A4604A92046FA
:100280004D4DA847002879D04C4B9847474B98478D
:100290000A23ADF810303C23ADF812305023ADF8EE
:1002A00014302823ADF81630012301930223009364
:1002B0003223642204A92046414DA847414B1860CF
:1002C00000285BD0404B9847384B9847BDF810301A
:1002D000BDF8142013440A33ADF810305023ADF8A4
:1002E00014302823ADF81630002302934CF65A330D
:1002F00001934EF2FF0300933223642204A92046A7
:10030000324DA847324B1860002837D0314B984700
:10031000264B98470A23ADF810309623ADF81230DB
:100320005A23ADF814302823ADF8163002232A4A98
:1003300004A92046294DA84700B3294B98471B4BD9
:100340009847BDF81030BDF814201344283306A98F
:1003500021F8083D234A002313717820108101936E
:100360000093214B20460E4CA047204B186028B12B
:100370000D4B98470D4B984706B070BD094B186858
:10038000094B98471A4B9847FEE700BFF513080042
:10039000880B07201D0A0800290A0800AD01080083
:1003A000D11A0800940B0720CD1A0800B5190800CF
:1003B00054840800251E08003D1E0800211E080068
:1003C0001D2408009C0B0720012408007D20080044
:1003D000980B0720252008006C840800E91C080001
:1003E000E51C0800A40B072061010800A00B0720F2
:1003F0002D1808000B4B4FF400025A634FF0805247
:100400005A63094A136913F4007FFBD0064BD86086
:100410001A46136913F4007FFBD04FF40002014B1E
:100420001A63704700120E400080004010B5044669
:100430002A20354B9847354BB3F90010C1F30720FC
:10044000334A136913F4007FFBD0314BD860C9B233
:100450001A46136913F4007FFBD02D4BD9609CB171
:100460002C4BB3F90010C1F30720294A136913F488
:10047000007FFBD0264BD860C9B21A46136913F42B
:10048000007FFBD0224BD960214A136913F4007F0F
:10049000FBD04FF08052204B1A632B201A4B984709
:1004A0001E4BB3F90010C1F30720194A136913F466
:1004B000007FFBD0164BD860C9B21A46136913F4FB
:1004C000007FFBD0124BD9609CB1154BB3F90010E3
:1004D000C1F307200E4A136913F4007FFBD00C4BC5
:1004E000D860C9B21A46136913F4007FFBD0084BD9
:1004F000D960074A136913F4007FFBD04FF0805294
:10050000054B1A6310BD00BFF5030800B40B0720AC
:1005100000800040B00B072000120E40B60B0720F1
:10052000B20B072008B5044B1880044B198000203B
:10053000034B984708BD00BFB40B0720B60B07203C
:100540002D04080008B5044B1880044B19800120C5
:10055000034B984708BD00BFB00B0720B20B072024
:100560002D04080010B5064C20800648018006497D
:100570000A80064A13800120054B984710BD00BF32
:10058000B40B0720B60B0720B00B0720B20B0720D7
:100590002D04080010B504462C200E4B9847E1B2FC
:1005A0000D4A136913F4007FFBD00B4BD960240A6A
:1005B0001A46136913F4007FFBD0074BDC601A4620
:1005C000136913F4007FFBD04FF08052034B1A6382
:1005D00010BD00BFF50308000080004000120E406F
:1005E00070B504460E462C20104B9847A6B1751ED8
:1005F000A01E0F4B81781A6912F4007FFBD0D960DE
:1006000030F8021F090A1A6912F4007FFBD0D96082
:10061000013DB5F1FF3FEDD1054A136913F4007FA9
:10062000FBD04FF08052034B1A6370BDF5030800F6
:100630000080004000120E4038B504460D462C20C4
:100640000F4B98478DB1691E250AE4B20D4B1A690C
:1006500012F4007FFBD0DC601A6912F4007FFBD03B
:10066000DD600139B1F1FF3FF1D1064A136913F49E
:10067000007FFBD04FF08052034B1A6338BD00BFA0
:10068000F50308000080004000120E4010B580F015
:10069000050000F00103002B0CBF4824082410F0D3
:1006A000020F18BF44F0800410F0040F18BF44F08C
:1006B00020043620094B9847094A136913F4007F38
:1006C000FBD0074BDC601A46136913F4007FFBD0A4
:1006D0004FF08052034B1A6310BD00BFF5030800B2
:1006E0000080004000120E402DE9F04184B000254A
:1006F00004AE46F8045DA64C2046A64B98470095EC
:10070000A54B2A4631462046A44EB047012323601C
:10071000E56004F5592404F500744FF00076266373
:100720004EF660209E4DA84766634EF66020A847AF
:100730002663DFF87C824046A8471120994EB047D7
:100740004FF0805727634046A8472920B0472763CA
:10075000CD20B0478E4A136913F4007FFBD03922B5
:100760008B4BDA601A46136913F4007FFBD02C22FE
:10077000874BDA601A46136913F4007FFBD000221E
:10078000834BDA601A46136913F4007FFBD03422DE
:100790007F4BDA601A46136913F4007FFBD0022204
:1007A0007B4BDA601A46136913F4007FFBD04FF0DD
:1007B00080527D4B1A63CF207A4B9847744A136955
:1007C00013F4007FFBD00022714BDA601A461369E4
:1007D00013F4007FFBD0AA226D4BDA601A4613692E
:1007E00013F4007FFBD0B022694BDA601A4613691C
:1007F00013F4007FFBD04FF080526B4B1A63F7204D
:10080000684B9847624A136913F4007FFBD030228B
:100810005F4BDA601A46136913F4007FFBD04FF088
:100820008052614B1A63C0205E4B9847584A136947
:1008300013F4007FFBD02522554BDA601A4613696A
:1008400013F4007FFBD04FF08052574B1A63C12046
:10085000544B98474E4A136913F4007FFBD0112282
:100860004B4BDA601A46136913F4007FFBD04FF04C
:1008700080524D4B1A63C5204A4B9847444A13692E
:1008800013F4007FFBD05C22414BDA601A461369F7
:1008900013F4007FFBD04C223D4BDA601A461369FB
:1008A00013F4007FFBD04FF080523F4B1A63C720F8
:1008B0003C4B9847364A136913F4007FFBD09422CF
:1008C000334BDA601A46136913F4007FFBD04FF004
:1008D0008052354B1A63E820324B98472C4A1369F3
:1008E00013F4007FFBD08522294BDA601A46136986
:1008F00013F4007FFBD00122254BDA601A461369FE
:1009000013F4007FFBD07822214BDA601A4613697A
:1009100013F4007FFBD04FF08052234B1A63EA2080
:10092000204B98471A4A136913F4007FFBD000222A
:10093000174BDA601A46136913F4007FFBD00022CC
:10094000134BDA601A46136913F4007FFBD04FF0A3
:100950008052154B1A633A20124B98470C4A136980
:1009600013F4007FFBD00522094BDA601A461369A5
:1009700013F4007FFBD04FF080520B4B1A63002022
:100980000A4B9847F0234FF4A0720021084611E06B
:10099000008000407910080000127A00CD10080095
:1009A00001000720F503080000120E408D06080024
:1009B000A0BB0D00024CA04704B0BDE8F08100BF11
:1009C0006505080010B420EAE07021EAE1710D4CE1
:1009D000B4F900409442DCBF04F1FF3212B20A4C79
:1009E000B4F900409C42DCBF04F1FF3423B2074C51
:1009F00020800748018007490A80074A138010BCFD
:100A0000704700BF58140720621407205C140720A9
:100A1000601407205A1407205E140720014BB3F915
:100A20000000704758140720014BB3F900007047CD
:100A300062140720002A5CD0F8B51C461546002B2E
:100A400048D0002A47DB002C4CDB2A4BB3F900606E
:100A5000B0423FDC284BB3F90070B9423ADC274B77
:100A6000B3F9003042199A4234DD254AB2F9002028
:100A700001EB040E96452DDD984203DA0544ED1A8C
:100A80002DB21846914203DA0C44A41A24B211463E
:100A90001FFA80FC0CEB0502013A12B21FFA81FE2C
:100AA0000EEB0403013B1BB2964204DA751CA5EB66
:100AB0000C052DB232469F4204DA7C1CA4EB0E04D6
:100AC00024B23B460F4EB04704FB05F1BDF81800B9
:100AD0000D4B9847F8BD93B25D422DB201301844DA
:100AE00000B2B0E7A3B25C4224B20131194409B2AA
:100AF000ABE770475A1407205E1407205C140720E8
:100B00006014072065050800390608002DE9F04F3C
:100B100083B0BDF93050BDF93440BDF93860002CC8
:100B200068D088461F46002E64D0554BB3F900307C
:100B3000BB425FDB5349B1F900E0AE455ADB524995
:100B4000B1F9001007EB040C8C4553DDDFF850C100
:100B5000BCF900C005EB0609E1454BDD8F420CDA1C
:100B6000BFB21FFA81F9A7EB090A544424B2C84462
:100B7000A8EB07080FFA88F80F4665450ADAADB208
:100B80001FFA8CF1A5EB01094E4436B20A44521B00
:100B900012B265461FFA87FA0AEB040C0CF1FF3C0F
:100BA0000FFA8CFC1FFA85F909EB0601013909B22D
:100BB000634504DA5C1CA4EB0A0424B29C468E450F
:100BC00005DA0EF10106A6EB090636B27146037985
:100BD000032B0FD8DFE803F002202011A1EB09035B
:100BE000ACEB0A02018900911BB212B229463846C9
:100BF000264CA04703B0BDE8F08F254B1C68002CA5
:100C0000F8D0ACEB0A03A1EB090212B200921BB2BE
:100C10002A463946A047EDE7B0F900A0836803EB08
:100C2000480B002AC4BF4FEA4A0302FB03BB6046DD
:100C3000184B9847544515D0002EDBDD4FEA4A0A81
:100C40004E4436B2DFF85090DFF8508029463846DF
:100C5000C84701352DB221465846C047D344B54256
:100C6000F4D1C7E7B8F1000FE6D1294638460A4B60
:100C7000984706FB04F15846084B9847BAE700BF6F
:100C80005A1407205E1407205C140720350A080058
:100C9000B80B07204505080025050800E1050800F8
:100CA000601407202DE9F04F87B0814608461146B1
:100CB0009846BDF940300493BDF944B0BDF9486091
:100CC00099F80430D3B1B9F90050B9F90270431B57
:100CD0009B4504DCAB440FFA8BFB9B45FADDCB1B39
:100CE0009E4203DC3E4436B29E42FBDD049BB3428F
:100CF00011DBCDF814B0DFF854A021E0049B9B1A5F
:100D00000133A8EB00020132B9F8084000941BB28D
:100D100012B20D4CA04707B0BDE8F08F059C0297BA
:100D2000019500962346002211464846D0472C44A0
:100D300024B2A045F3DA3E4436B2049B9E42EADC7C
:100D4000D845EBDAF7E700BF350A08000D0B0800BD
:100D500038B50F4CB4F9004084420EDC0D4BB3F9AA
:100D60000030834209DB0C4BB3F900308B4204DCCA
:100D70000A4BB3F900308B4200DA38BD14460B46FB
:100D80000246074DA8472046064B9847F5E700BFA7
:100D90005C1407205A140720601407205E140720F3
:100DA000650508009505080070B582B00F4C4FF43A
:100DB000A07323800E4DF0232B800E4B98474FF0ED
:100DC00080720D4B1A63B5F90030B4F90020002190
:100DD00008460A4EB047B5F90030B4F900200020AB
:100DE00000900146064CA04702B070BD5814072081
:100DF00062140720E906080000120E40C509080029
:100E0000350A08002DE9F04F85B004460F4691469B
:100E10009A46BDF83810BDF83C30029341F6F063B5
:100E2000994208D09AF809309AF80820009149466A
:100E30003846264DA8479AF8003013B105B0BDE8F2
:100E4000F08F9AF80830DA0813F0070F18BF013254
:100E50009AF809309AF80A80A4EB080808FB03F80E
:100E600008FB02F81FFA88F8DAF804209044013BE6
:100E7000DBB209F1010213449BB20393DFF850B0D7
:100E80001CE06400E4B20135EBB29E420DD9E819D2
:100E900000B215F0070F08BF18F8014B14F0800FCF
:100EA000EFD0029A4946D847EBE709F101091FFA4A
:100EB00089F30FFA83F9039A9A42BFD09AF808602F
:100EC000002EF2D000252C46E1E700BF350A0800CD
:100ED000510D0800F0B50F7A91F809E00FFA8EF580
:100EE000002101268C4605E075442DB2614610F8BC
:100EF000014F54B104780A2CF6D00D2CF7D03944A8
:100F000009B28E42B8BF0E46F1E716801D80F0BDD3
:100F10002DE9F04F87B00646039190461F46BDF875
:100F20004090BDF844A09DF848409DF84C30029395
:100F300005AB0DF116023946444DA84714F0020FD7
:100F400019D0BDF9143003EBD373A8EB63080FFA83
:100F500088F814F0100F18D0BDF9163003EBD373D6
:100F6000039AA2EB63031BB203933378002B6AD07E
:100F7000DFF8DCB064E014F0040FEAD0BDF8143000
:100F8000A8EB03080FFA88F8E3E714F0200FECD081
:100F9000BDF81630039AD31A1BB20393E5E7013567
:100FA000029A022A14D0029A012A21D0039C4B46AD
:100FB000A9461D4629E015F8012F002AF0D02A780D
:100FC0000A2AECD00D2AF6D03A7A13441BB2F2E783
:100FD000BDF9162002EBD274039A02EB640403EB12
:100FE000D373A4EB630424B24B46A9461D460CE020
:100FF000BDF81640039A1444E41A24B24B46A9469D
:101000001D4602E016F8013F7BB130780A280CD06B
:101010000D28F7D0CDF804A000953B464246214666
:10102000D8473B7A1C4424B2ECE72B464D46994600
:101030007B7A013398440FFA88F82B781BB12E463F
:1010400035460023BBE707B0BDE8F08FD50E08009A
:10105000050E080010B584B00024039408240294FF
:10106000BDF81C400194BDF818400094014CA04705
:1010700004B010BD110F080010B50446104B98477E
:1010800080232360636843F001036360636843F077
:1010900010036360636823F08003636000212046CF
:1010A000084B9847636823F002036360636823F08A
:1010B0000403636000212046034B984710BD00BF26
:1010C0005526080071260800872608002DE9F04102
:1010D00004460D46164615491846154B98470746CF
:1010E00000231A4629682046DFF85C80C0470822A2
:1010F000296820460F4B9847FAB2296820460E4BC4
:1011000098470822296820460C4B9847720829689E
:1011100020460B4B984786F0010202F00102296835
:101120002046084B9847BDE8F08100BF00BD01058F
:101130002F2708001B27080045270800D526080090
:1011400099260800B72608006B270800034693F885
:10115000280010B19B69002BF9D17047036A9842AF
:101160000FD08269516A884208BF5362036AC2691C
:10117000DA61C369026A1A62002383610362C36190
:101180007047836900225A62F6E7436A4BB10B62EB
:10119000426AD269CA61D961CB69196241628861C8
:1011A00070470962C961F9E708B5C3680BB1984790
:1011B00008BD002008BD0000F0B482B0EFF310833A
:1011C000B3FA83F35B09019372B6BFF35F8F00221A
:1011D000164B1A70019F164B1C7C6CB9154A13688C
:1011E000013313602FB10122104B1A70BFF35F8FD0
:1011F00062B602B0F0BC70470D4AD36852689342A1
:101200000FD010330A4AD360094EF5680FC885E83D
:101210000F0000232B80013C3474737C0133737402
:10122000E0E7034B1A68DA60EEE700BFA801072089
:10123000BC0B0720180D0720F0B585B005460E46FB
:10124000B1F90A30B1F90820B1F90610B6F9040075
:10125000154CA047A86880B1B6F90830B6F9062049
:10126000B6F90410B6F902400294B6F900400194B0
:10127000B6F90A4000940D4CA04732460721284693
:101280000B4B98476C6A6CB10A4F02E06B6A9C4248
:1012900008D0E46994F82830002BF7D03146204676
:1012A000B847F3E705B0F0BDC5090800A50C080074
:1012B000A9110800B9120800F0B585B00488828829
:1012C0004688C3880F88E5192DB2ADF80450ADF8F3
:1012D0000850013F3C44144422B2ADF80C204F8822
:1012E000F41924B2ADF80640ADF80A40013F3E447F
:1012F00033441BB2ADF80E30B1F90460B542B8BF4B
:10130000ADF80860B1F90650AC42B8BFADF80A506C
:10131000B1F90840A242C8BFADF80C40B1F90A20AB
:101320009342C8BFADF80E20BDF90820BDF90C30BE
:101330009A4205DCBDF90A20BDF90E309A4201DD62
:1013400005B0F0BD01A9014B9847F9E73912080033
:101350002DE9F843446AACB106464FF00009DFF8C6
:101360002C80094F2046FFF7F3FF4A46092120460B
:10137000C047256A2046B8472C46736A9D42F1D182
:1013800000237362BDE8F8837D250800A9110800D9
:1013900070B5104EB047104CA080104DA847E080AB
:1013A0000F4BA3600F4A0A2313740F4B1360936013
:1013B00090335360D3600D4B1C60B0470C4C00EB76
:1013C000D07040102080A84700EBD07040106080A3
:1013D00070BD00BF1D0A0800200D0720290A080063
:1013E0004C0D0720BC0B0720700C0720100D0720A8
:1013F000140D072000487047200D072070477047E4
:1014000040697047F8B507460C462C200A4B9847B0
:10141000064670B105460FCC0FC594E8030085E879
:101420000300002386F82830736231463846034BA8
:1014300098473046F8BD00BFFD2408008B11080016
:1014400000B585B002238DF8023007C804AB03E96C
:1014500007006846024B984705B05DF804FB00BFE3
:10146000B9110800014B1860704700BF1C0D072020
:1014700089B203885B1A038043885B1A4380490062
:1014800089B283880B448380C3881944C180704724
:10149000B1F90030B0F904209A4210DCB1F9022011
:1014A000B0F9061091420CDCB0F9081099420ADB41
:1014B000B0F90A009042B4BF00200120704700201C
:1014C0007047002070470020704710B4B1F9002029
:1014D00003889B1A9BB21CB2002C03DD0280828819
:1014E00013448380B1F9022043889B1A9BB21CB23B
:1014F000002C03DD4280C2881344C3800B888A8895
:10150000134402889B1A9BB282889A1A12B2002A4C
:10151000C8BF83804B88CA88134442889B1A9BB2F9
:10152000C2889A1A12B2002AC8BFC38010BC704782
:10153000F0B5B1F90040B0F90850AC4226DCB1F981
:101540000220B0F90A60B24222DC8B882344013BBE
:101550001BB2B0F90470BB421CDBB1F806E0724468
:10156000013A12B2B0F906E0724515DBBC42C8BFC1
:101570008480B1F902108E45B8BFC180AB42B8BFBC
:101580000381B2420ADA42810120F0BD0020F0BDA1
:101590000020F0BD0020F0BD0020F0BD0120F0BD16
:1015A0002DE9F04105461446006810602868506037
:1015B0002B88AA881344013B23816B88EA88134453
:1015C000013B638120462B4B9847074600284CD0AF
:1015D000294B9D4249D04FF0000E1E46AD69B4F92B
:1015E0000430002BB8BFA4F804E0B4F90630002B97
:1015F000B8BFA4F806E0B5F90430B4F908209A425F
:10160000A4BF03F1FF332381B5F90630B4F90A20F2
:101610009A42A4BF03F1FF336381B4F90420B4F903
:1016200008309A4220DCB4F90600B4F90A10884266
:101630001EDCB4F800C0B5F80080C444A4F800C0B3
:10164000B5F800C06244A2802A88134423816388CD
:101650006A88134463806B881844E0806B8819445F
:101660006181B542BAD100E000273846BDE8F0817B
:101670000027FAE731150800200D072070B584B067
:1016800004460D4601AA1A4B984798B1A3691BB1AD
:10169000237C13F0020F09D101A92046154B98476E
:1016A000154B9C4206D0154D1E4608E029462046A3
:1016B000134B984704B070BD1C46B342FAD0BDF836
:1016C000043022889B1AADF80430BDF806306288D9
:1016D0009B1AADF80630A3695A6A9442ECD0E469CB
:1016E00094F82830002BF6D001A92046A847F2E74D
:1016F000A115080039120800200D0720B9120800B2
:101700000517080010B582B002466B4608684968A4
:1017100003C39069BDF90030002B30DBBDF9023006
:10172000002B35DBBDF90020B0F90410BDF9043001
:1017300013448B42C4BF891AADF80410BDF90230BE
:10174000B0F90640BDF906101944A142C4BFE41A1D
:10175000ADF80640BDF9041000290EDDBDF90610F4
:1017600000290ADD01880A44ADF8002042881344AC
:10177000ADF8023069460B4B984702B010BDBDF87A
:1017800004201344ADF804300023ADF80030C5E761
:10179000BDF806201344ADF806300023ADF8023042
:1017A000C0E700BF7D16080090F82830002B2ED02F
:1017B000F0B583B00446164B984207D0154B9847B6
:1017C000E8B9002384F8283003B0F0BD002483F882
:1017D0002840114EB0470746104DA84703463A46E9
:1017E000214620460E4FB847B0470646A84700940A
:1017F00003463246214620460A4CA047E4E7002330
:1018000084F8283021462046074B9847DCE770478C
:10181000200D07204D1108001D0A0800290A0800A4
:10182000C5090800350A08000517080010B5044668
:1018300090F8283073B92046084B98472046084B4B
:101840009847002209212046064B98472046064B20
:10185000984710BD054B9847EDE700BF5D110800A4
:1018600051130800A91108007D250800A9170800D8
:1018700070B584B004460D468DF8072003C804AB4C
:1018800003E9030012F0010F29D100269DF807306B
:1018900013F0020F12D0B5F90420B4F904309A42C3
:1018A00025DBB5F90620B4F906309A42B8BF012607
:1018B00068686060294602A8104B98470DF107023E
:1018C000082120460E4B984720460E4B984720B1E2
:1018D0007EB902A920460C4B984704B070BD286819
:1018E0002060294602A8054B98470126CEE701262D
:1018F000DEE702A92046054B9847EEE7CB14080027
:10190000A91108004D1108007D16080005170800F0
:1019100030B585B004460B468DF8072003C804ADEA
:1019200005E9030012F0040F1DBF9968A1600125AD
:10193000002512F0080F1CBFD968E16012F0100FEB
:101940001CBF197C217412F0200F1CBF5969616102
:1019500012F0030F0FD10DF1070208212046094BA9
:10196000984765B12046084B984740B102A92046E8
:10197000064B984703E019462046054B984705B0AB
:1019800030BD00BFA91108004D1108007D160800E8
:101990007118080010B50446044B984700B910BDF3
:1019A00021462046024B9847F9E700BF4D11080039
:1019B0007D16080008B590F8283003B108BD012352
:1019C00080F82830014B9847F8E700BF95190800C8
:1019D00010B584B00C4601AA0146044B9847214635
:1019E00001A8034B984704B010BD00BFA115080023
:1019F00091140800B0F900300B80B0F902304B8030
:101A0000836953B10A88188802440A804A88588832
:101A100002444A809B69002BF4D1704702FB00F01E
:101A200090FBF1F0C0B270470B782BB100F8013B8E
:101A300011F8013F002BF9D100230370704700001B
:101A4000F8B506460C4617461D4B98470546092C27
:101A500006D8DFE804F02D051C050505050705136C
:101A6000002426E003689E4201D0012421E0C368DF
:101A70000BB339463046984701241AE003689E426A
:101A800018BF012415D10F4B9847012411E00368BA
:101A90009E4201D000240CE0436873B13946984758
:101AA000044608B9012404E02868074B984700E081
:101AB00001242046F8BD0124FBE70024F9E700BF1C
:101AC000011408007D2508002D18080000687047E3
:101AD0002DE9F04186B007460D461646984610207F
:101AE000154B98470446B8B10C9B43600D9B83602F
:101AF000C0F80C806B462868696803C30F4B0393DA
:101B000005946EB1029600238DF810306946384670
:101B10000B4B9847206048B1204606B0BDE8F081E5
:101B20000023029302238DF81030EFE72046054B87
:101B300098470024F0E700BFFD240800411A080080
:101B4000051408007D2508002DE9F04F8BB00746ED
:101B50000E461446594B98470546072E06D0092EC7
:101B600000F0A580002E70D000246AE03846544B67
:101B7000984707462B7B4FF6FF7241F28401012BF9
:101B800018BF1146059141F284024FF6FF76012BF2
:101B900018BF1646B0F90630B0F90420B4F90210A7
:101BA000B4F900000096DFF83881C047B4F900604E
:101BB000B4F90290B7F90410B7F906B04FF0000A73
:101BC000CDF800A0012304910A4649463046C0479B
:101BD00009F1FF315944CDF800A00123049A09B25C
:101BE0003046C047CDF800A05B460122494630464A
:101BF000C047701E04990844CDF800A05B4601223E
:101C0000494600B2C047B7F9062002EBD27263889A
:101C100003EB6202B7F9041001EBD171238803EBE7
:101C2000610168680223039312230293059B0193C9
:101C300041F6F0630093234B12B209B2224CA04745
:101C4000012420460BB0BDE8F08FE37A1BB1022BD4
:101C50000ED00124F5E7037B0BB10124F1E7006806
:101C60001A4B984701242C732868194B9847E8E7CA
:101C7000037B012B01D00124E3E70020134B98479D
:101C800000232B732868124B984721462868114B74
:101C90009847044608B90124D3E72B6807932B68BB
:101CA0000893AB68099307A80B4B9847C9E74068AE
:101CB0000A4CA0472846A0470124C2E701140800A7
:101CC000FF13080038010720110F080065140800F1
:101CD00095190800D1190800411408007D25080055
:101CE000350A0800006870472DE9F04186B00746C4
:101CF0000E46154698461020174B98470446F8B1F3
:101D000000230373C0F808802846144B984701301D
:101D1000114B98476060D0B12946114B9847114B41
:101D2000039305946B463068716803C300230293E4
:101D30008DF81030694638460B4B9847206018B133
:101D4000204606B0BDE8F0816068084B9847204601
:101D5000064B98470024F3E7FD2408009D3808004F
:101D6000291A0800491B0800051408007D250800F1
:101D70002DE9F04385B007460D461646224B98479D
:101D80000446072D03D0092D33D0002537E038460F
:101D90001E4B98470746257A75B9B6F90220B6F961
:101DA000001060686389019341F6F0630093184B5B
:101DB000184CA047012522E0DFF854800DF10E03F6
:101DC00003AA41466068DFF85490C847B6F902207C
:101DD0003188BDF80C30C91ABB8819446068638922
:101DE000019341F6F0630093434609B2094CA047C2
:101DF00005E04068084DA8472046A8470125284629
:101E000005B0BDE8F08300BF01140800FF1308000F
:101E100038010720551008007D250800D50E080060
:101E20000068704710B502460846931C0149024CF1
:101E3000A04710BD38010720D50E08002DE9F0435A
:101E400087B080460E46154699460E9F0C201C4BC7
:101E50009847044608B3A0F80A909DF83C300372F6
:101E60002846184B98470130154B9847606008B3D7
:101E70002946154B9847154B039305946B463068DC
:101E8000716803C36FB1029700238DF81030694663
:101E900040460F4B9847206048B1204607B0BDE848
:101EA000F0830023029302238DF81030EFE760687F
:101EB000084B98472046074B98470024EDE700BFA2
:101EC000FD2408009D380800291A0800711D08002B
:101ED000051408007D2508002DE9F04F87B007465E
:101EE0000C4615464B4B98470646072C04D0092C48
:101EF00000F08980002089E03846474B9847074624
:101F0000B3790593F2790492B5F90040B5F90290DE
:101F1000B0F90410B0F906B04FF0000ACDF800A0F7
:101F2000012303910A4649462046DFF8F080C04766
:101F300009F1FF315944CDF800A00123039A09B2F9
:101F40002046C047CDF800A05B4601224946204606
:101F5000C047601E03990844CDF800A05B460122EB
:101F6000494600B2C047049A12F0010F26D0BA8841
:101F7000023A698801312888013033890093DDF8FD
:101F80001480434612B209B200B2244CA0471FFA93
:101F900088F1C1F57F43FE33FA881344BA88023AC8
:101FA00068880130014428880130758900951BB28A
:101FB00012B209B200B2A047012027E0FB88023B21
:101FC000B2796988013128880130348900941BB2C4
:101FD00009B200B2114CA047BDF81400FB88023BC7
:101FE000C0F57F42FE32B9880A44698801312D88E4
:101FF00001352844758900951BB212B209B200B2AE
:10200000A047012002E0064B9847012007B0BDE839
:10201000F08F00BF01140800FF130800350A080004
:102020007D25080000687047F8B543798B421DD0C4
:1020300004460D466171C679077900680C4B9847D4
:1020400016F0010F14BF82790279023AD2B216F06B
:10205000020F1CBF7D1BEDB239462846054B984741
:10206000A0712068044B98470120F8BD0020F8BDFE
:10207000FF1308001D1A0800951908002DE9F04FFC
:1020800087B08046894617461D46BDF840B0BDF86A
:1020900044A09DF848600C201F4B9847044660B34D
:1020A00007714571C67116F0020F2AD0A0F808A07A
:1020B000A0F80AB07D1BEDB2184B039305946B4654
:1020C000D9F80000D9F8041003C316F0010F14BFAB
:1020D0009DF806209DF80420023AD2B239462846DF
:1020E0000F4B9847A071002302938DF8103069467A
:1020F00040460C4B9847206040B1204607B0BDE8F1
:10210000F08FA0F808B0A0F80AA0D5E72046064B4B
:1021100098470024F1E700BFFD240800D91E0800FD
:102120001D1A0800051408007D2508002DE9F04F50
:1021300091B007460D461646A84B98470446072D12
:1021400007D0092D00F04481002D00F0D780002534
:10215000B7E03846A24B98478246257B237A002B6E
:102160004FF6FF7308BFF823079309AA3068099058
:10217000DAF804000A900BAB92E8030083E803004E
:102180004FF0FF311846974B9847BDF92C30039319
:10219000BDF92E3018460593BDF930300493BDF9D2
:1021A00032301F46069315F0040F00F08E80E17A5E
:1021B0008AB2BDF8263001331344ADF826300A2325
:1021C000ADF82A30ADF8321003460A3313441BB27F
:1021D0000593A7F10A08A8EB02080FFA88F3069303
:1021E000BDF92480BDF92690BDF92870BDF92AB04B
:1021F0000025009501233A46494640467A4CA047BF
:1022000009EB0B010139009501233A4609B240461A
:10221000A04700955B46012249464046A04708EB8F
:102220000700013800955B460122494600B2A047ED
:102230004FF0FF3109A86B4B9847BDF92A30BDF923
:102240002820BDF92610BDF92400079F0097A0475C
:10225000BDF93230BDF93020BDF92E10BDF92C008A
:1022600041F28409CDF80090A047CDF80090069B7C
:10227000049A05990398A047B6F90070B6F9026070
:10228000BAF90490BAF90680009501234A4631460E
:102290003846A047711E4144009501234A4609B2C1
:1022A0003846A04700954346012231463846A047AC
:1022B000781E4844009543460122314600B2A047AB
:1022C0000125284611B0BDE8F08FE17A8AB2BDF849
:1022D000243001331344ADF824300A23ADF82830FC
:1022E000ADF83010039B0A3313441BB20393049BD5
:1022F000A3F10A07BF1A3BB2049371E73846384B83
:102300009847257BF37A012B1BD073B1022B50D059
:102310000025002D60D023680D9323680E93236958
:102320000F930DA8314B9847CBE7237A002B43D16D
:102330000123237238462E4B984738462D4B984739
:102340003AE0237A012B37D115F0040F22D073889D
:10235000E2889B1A1BB2B0F90660581F80B203B224
:102360000A3EB6B2002B22DB32B2934219DD607A0C
:10237000A37A834220D0A072F2B2617A1E4B9847B2
:1023800005F00105E37A8342C3D0E0723846194B69
:102390009847BEE73388A2889B1A1BB2B0F9046045
:1023A000DBE7627AF1B2C0B2134B9847E0E7002056
:1023B000DEE7237A012B01D0012582E7002020727D
:1023C0000B4B984738460B4B9847C5F34005A0E7A1
:1023D0000A4B9847012574E7012572E701140800AC
:1023E000FF13080071140800350A080041140800A2
:1023F00065140800951908001D1A08007D250800BD
:1024000000687047037B13F0080F01D1807A704792
:10241000437A807A181AC0B2704700002DE9F04361
:1024200087B08046894617461D469DF838601420BF
:10243000204B98470446002832D00023037247728D
:10244000067316F0080F1CBF7D1BEDB2857216F0E7
:10245000030F1CBF0F9B0361174B039305906B4643
:10246000D9F80000D9F8041003C316F0040F14BF04
:102470009DF806209DF804200A3AD2B23946284633
:102480000E4B9847E072002302938DF81030694696
:1024900040460B4B9847206030B1211D094B9847AF
:1024A000204607B0BDE8F0832046074B984700243C
:1024B000F6E700BFFD2408002D2108001D1A0800C2
:1024C00005140800F51908007D25080030B4094AF4
:1024D000094B03F1600500249A605968186800FBF5
:1024E0000122DA6019751C611833AB42F4D130BC9B
:1024F000704700BF580D072044010720F0B41E4B61
:1025000003F16001002603E01E46183399420CD007
:102510001A7D002AF9D01A688242F6D3002EF3D031
:102520003568AA4238BF1E46EFE70EB3B06871683F
:1025300001B3346914F0010F16D035680023284424
:102540000133DBB28B4211D21F4624FA03F212F0A0
:10255000010FF4D1012303FA07F73C433461337DC3
:10256000013B3375F0BC70470027F3E70020F9E723
:102570000020F7E70020F5E744010720F0B4114AF6
:10258000002303E001331832042B19D091688842EC
:10259000F8D3D568A842F5D20A4A5D00EE18F600D5
:1025A0009719431A9159B3FBF1F3DBB2012101FAF8
:1025B00003F3396921EA030139613B7D01333B753E
:1025C000F0BC7047440107202DE9F04180B90C466A
:1025D0009046002A0FDD8F18084E094D30682146BD
:1025E0002B6898470134BC42F8D14046BDE8F081E1
:1025F0004FF0FF38F9E78046F7E700BF6C1407207B
:10260000641407200138022815D82DE9F0410E4640
:1026100014469AB10D46DFF838800C4FD8F8000008
:1026200015F8011B3B68984700280ADBA81B013CF2
:10263000F4D1BDE8F0814FF0FF3070471046BDE89F
:10264000F0814FF0FF30BDE8F08100BF6814072033
:102650006C14072008B5044B984200D008BD182020
:10266000024B9847FAE700BF008000404D2F08005A
:10267000436823F4702343604368090401F4702124
:10268000194341607047436823F07F4343604368C8
:1026900043EA01614160704732B900EB8100036B8E
:1026A00023F001030363704700EB8100036B43F0E9
:1026B00001030363704732B900EB8100036B23F021
:1026C00002030363704700EB8100036B43F00203D6
:1026D00003637047042A03D06AB1082A16D07047F2
:1026E00000EB8100036B23F008030363036B43F0EB
:1026F00004030363704700EB8100036B23F00803BE
:102700000363036B23F004030363704700EB810052
:10271000036B43F008030363E1E700EB81010B6BFC
:1027200023F0F0030B630B6B1A430A637047431EDD
:102730001944B1FBF0F0431EFE2B94BF00B24FF0E2
:10274000FF30704772B110B4144600EB81010B6B7F
:1027500023F47F430B630A6B42EA04220A630020DE
:1027600010BC70474FF0FF30704710B400EB810190
:10277000086B80B208630C6B44EA036343EA0243CC
:102780000B6310BC704710B4AC2303600B684A683D
:10279000B3FBF2F31B095C1E4FF6FE7294420BD89A
:1027A00003628B68436040F20223C0F8203150235B
:1027B0000360002010BC70470120FBE7436913F061
:1027C000020F1ABFC161002001207047436913F056
:1027D000010F1DBF83690B70002001207047436902
:1027E00013F0020F1DBFC1F30801C16100200120D9
:1027F0007047436913F0010F05D08369C3F30803E1
:102800000B60002070470120704743685A684A6097
:1028100042688A605A689160596041600861036843
:10282000013303607047436882689A608368426836
:102830005A6003695A68904204BF82685A60002255
:1028400002611A68013A1A6018687047064B1968E5
:102850000868B0E8F00F80F309884FF0000080F3BB
:1028600011884EF00D0E704728130720EFF31180EA
:102870004FF0A00181F311887047002080F3118888
:1028800070470000EFF309800C4B1A6820E9F00F45
:1028900010602DE908404FF0A00080F3118800F08F
:1028A000B9F84FF0000080F31188BDE808401968BE
:1028B0000868B0E8F00F80F30988704728130720F4
:1028C00008B54FF08052054B1A60054B9847054BF1
:1028D00098470020044B984708BD00BF04ED00E076
:1028E0006D280800ED2808007D2808003D4B1B6876
:1028F000002B6FD12DE9F0413B4B1A6801321A6071
:102900001B68ABB9394B1B681B68002B28D1374BB0
:102910001968374A10681860116036490A68013230
:102920000A601B681B68FBB94FF0FF32324B1A601C
:102930002D4B1A68304B1B689A4250D32B4B1B68A7
:102940001B68CBB1294B1B68DB68DC686368264ACF
:102950001268934216D8294E294FDFF8B4802FE031
:10296000284B984700BFFDE7204B1B68DB68DB68FE
:102970005A68214B1A60DBE74FF0FF321E4B1A609A
:10298000BDE8F0811C4A1360BDE8F081E06A3B6855
:10299000984288BF386000EB8000294608EB800031
:1029A000194B9847114B1B681B68002BE4D00F4B49
:1029B0001B68DB68DC6863680B4A12689342E1D8E5
:1029C000251D2846B047A36A002BDFD004F118006C
:1029D000B047DBE70D4A1368013313607047BDE869
:1029E000F08100BF9C130720AC1307202C13072095
:1029F00030130720A8130720A40107202728080068
:102A0000A01307206D2808000B2808009813072042
:102A100034130720214B1B68EBB910B5204B1B6802
:102A200003EB83039B001F4AD358C3B91C4B1B689D
:102A30006BB11B4A1B491368013B1360136803EB1E
:102A4000830351F8233053B91368002BF3D1164B8D
:102A5000984700BFFDE70122144B1A607047104BE6
:102A60001B68104A9900C81802EB8000446864682B
:102A70004460194402460832944209D003EB8303B0
:102A8000084A02EB83035B68DA68094B1A6010BDE1
:102A90006068044A02EB81025060EFE79C13072054
:102AA000A0130720341307206D280800A413072063
:102AB0002813072010B50E480E4B98473E210020E2
:102AC0000D4B98470D4CA0470028FCD00C4B984765
:102AD0000C4A0D4B9A620D4CA0470028FCD01020E8
:102AE0000B4B98470B4B98470148024B984710BD3A
:102AF00000BD0105B1000720C92E08001D2F0800E8
:102B00002D2F0800013F0D2000060E403D2F08002C
:102B1000652E08003D30080010B54FF400421E4BF2
:102B20005A600B201D4CA0470C20A0470D20A04749
:102B30000E20A0474FF060513B20194CA0474FF0AA
:102B400060515520A0474FF060515620A0471549CD
:102B50006820A04714495C20A047144A4FF44071F4
:102B60001348144B98474FF000611920A0474FF0CD
:102B700000611A20A0474FF000611B20A0474FF0D2
:102B800000611C20A0474FF000612B20A0474FF0B0
:102B900000612A20A04710BD501A0E404D2F08009A
:102BA000592C0800790000280100002801000008C5
:102BB000000E0E40292D08004264B1F1805F16D04E
:102BC0000BD849B1B1F1006F05D1036F016F0B4014
:102BD00023EA0203036742607047B1F1405FFBD014
:102BE000B1F1605FF8D0B1F1205FF4D17047036FAD
:102BF00013430367EFE7416412F0010F14BF41660E
:102C0000016612F00A0F14BF0162416212F0020F56
:102C100007D112F0080F18BFC0F88410416101609D
:102C20007047C0F88010F9E710B4019C416444B9C2
:102C3000016643B1016542B941630161016010BCA5
:102C400070474166F5E74165F5E70163F5E7C06C5C
:102C50007047806C7047000070B582B00D46430924
:102C600003F5001303F207735C0201F0F043B3F1C4
:102C7000205F31D016D8B3F1006F1BD0B3F1805F65
:102C800016D100F01F000126864032464FF08051D9
:102C90002046224B984715F0010F14BF6666266642
:102CA000012017E0B3F1405F21D0B3F1605F1ED087
:102CB00000200FE000F01F000126864032464FF052
:102CC00000612046154B984715F0010F14BF66664A
:102CD0002666012002B070BD00F01F0101262A46C1
:102CE00006FA01F120460E4B98473046F2E705F010
:102CF000605200F01F01012605EA06030093C5F3A8
:102D00008003B2F1605F14BF0022012206FA01F1D4
:102D10002046044CA0473046DCE700BFB92B080032
:102D2000F72B0800292C080070B582B005460E4626
:102D3000144602F0F043B3F1205F27D011D8B3F16D
:102D4000006F16D0B3F1805F11D10A464FF0805169
:102D5000194B984714F0010F14BF6E662E660120C0
:102D600012E0B3F1405F15D0B3F1605F12D00020E4
:102D70000AE00A464FF000610F4B984714F0010F2C
:102D800014BF6E662E66012002B070BD0B4B9847D3
:102D90000120F9E704F0605204F001030093C4F34A
:102DA0008003B2F1605F14BF002201223146284641
:102DB000034CA0470120E7E7B92B0800F72B0800D8
:102DC000292C08002DE9F041044688460E4B98470F
:102DD000054620460D4B9847054013D00C4C04F196
:102DE000600603E0B4420DD010345DB12068404568
:102DF000F8D161682942F5D0E3689847636825EA0D
:102E00000305EFE7BDE8F0814F2C0800532C0800C4
:102E1000B013072008B50B210148024B984708BDA5
:102E2000000E0E40C52D080008B50C210148024BCC
:102E3000984708BD00100E40C52D080008B50D21AB
:102E40000148024B984708BD00120E40C52D0800EE
:102E500008B50E210148024B984708BD00140E40EA
:102E6000C52D0800174A136B23F070031843106335
:102E7000936E13F0080F0AD14FF4006311498A6E64
:102E800012F0080F03D1013BF9D1012070470D4A20
:102E9000136B23F0030343F002031363936E13F0E9
:102EA000080F0AD14FF4006306498A6E12F0080F2A
:102EB00005D1013BF9D10120704700207047002067
:102EC000704700BF00060E40C8B9114A136A0902D4
:102ED00089B223F45C1323F0030343F45C1343F03F
:102EE00001030B431362936E13F0010FFBD0084AEA
:102EF000136A43F09B7343F48033136270470449B1
:102F00000B6A044A1A40044B13430B62704700BF1C
:102F100000060E40FCFFC8FE02003701024B986E0F
:102F200000F48030704700BF00060E404FF00052A2
:102F3000014B9A62704700BF00060E40024B986E2C
:102F400000F00200704700BF00060E402C281ED87B
:102F50001F280CD8114B9A6901238340934318D042
:102F6000012303FA00F00D4B186100207047203850
:102F70000A4BD3F808210123834093430BD001234C
:102F800003FA00F0054BC3F8000100207047012050
:102F90007047002070470020704700BF00060E40B9
:102FA000FEE7000008B51C4B1C4A9A4210D01C4B8F
:102FB000194A9A420CD2013B9B1A23F003030433B3
:102FC0001344164951F8040B42F8040B9A42F9D104
:102FD000144B154A9A420AD2013B9B1A23F0030371
:102FE00004331344002142F8041B9342FBD10F4BDE
:102FF00023F0604222F07F020D498A6003F16043B2
:10300000B3F5801F03D28B6843F000538B60094BEC
:103010009847094B9847FEE700000720C4A2080024
:10302000680B072098140720680B07200000080091
:1030300000ED00E091340800653308003D4B1B6B48
:1030400003F00303032B0ED8DFE803F0021C38382B
:10305000394B5B6913F0800F14BF4FF400424FF4FB
:10306000FA42364B1A60334B1B6B03F07003702B24
:1030700057D0304B1A6B3149C2F302120B68D34060
:103080000B6070472B4B1B6A13F0807F03D02C4AD8
:103090002A4B1A60E7E72B4A284B1A60254B1B6A1C
:1030A00003F07003102B05D0202BDCD1244A234BD6
:1030B0001A60D8E7244A214B1A60D4E71D4B1B6ADB
:1030C00013F0807F0CD01E4A1C4B1A60194B1B6BEF
:1030D00003F00303022B16D01C4A184B1A60C2E7F8
:1030E000184A164B1A60134B1B6A03F07003102B1F
:1030F00005D0202BEAD1124A104B1A60E6E7124A9B
:103100000E4B1A60E2E70B4A916A926A0B48C1F3D0
:103110000A41036801FB0333D2B2B3FBF2F303604D
:10312000A1E7064A13680A49A1FB03135B08136071
:10313000704700BF00060E40101A0E40AC01072079
:10314000001BB70000093D0000127A00001C4E0E63
:10315000ABAAAAAA0A4B1B6853B1094B1B681A18E1
:103160000849914208DB1046054A1060184670472E
:10317000054A034B1A60F0E74FF0FF30704700BF7D
:1031800020140720FC7F0820983407204FF0FF30E0
:1031900070474FF400534B60002070470020704789
:1031A000F0B583B004460D4600230193204B9842AE
:1031B0000DD0204B984212D01F4B984219D01F4B74
:1031C0009C4220D01E4B9C4227D003B0F0BD1F462E
:1031D0001C4E29463846B0470028FAD1EFE71F4673
:1031E000194E01A93846B0470028FAD1019B2B702F
:1031F000E8E71E46144C01A93046A0470028FAD142
:10320000019B2B70E1E71E460F4C01A93046A047F9
:103210000028FAD1019B2B70D7E71E460A4C01A962
:103220003046A0470028FAD1019B2B70CDE700BFA4
:1032300000080E400080094000C0094000000A401C
:1032400000400A40CD270800F327080070B50C465F
:103250001E4B98420DD01E4B984213D01D4B9842E6
:1032600019D01D4B98421FD01C4B984225D00020EE
:1032700070BD1E461A4D21463046A8470028FAD197
:10328000012070BD1E46174D21463046A847002834
:10329000FAD1012070BD1E46124D21463046A84786
:1032A0000028FAD1012070BD1E460E4D2146304641
:1032B000A8470028FAD1012070BD1E46094D2146BD
:1032C0003046A8470028FAD1012070BD00080E4002
:1032D0000080094000C0094000000A4000400A4048
:1032E000BD270800DF27080030B585B00820124D43
:1032F000A847124C124B1C60124A134B1A60134A17
:10330000134B1A60134B01934FF4E13302934FF4C4
:10331000006303930820A84701A920460E4B984755
:103320000E4D2B68002198680D4CA0472B6800219A
:103330005868A04705B030BD4D2F080000080E406A
:103340006C1407204D32080068140720A1310800D2
:103350006414072000BD010587270800BC01072071
:1033600069360800F0B587B0334B9847334B984720
:10337000334B98470D20334EB0470B20B0474FF0EA
:1033800060515720304CA0474FF060515820A04763
:103390004FF060515920A0474FF060515C20A0478A
:1033A0002A4D4FF000724FF000612846284CA0478C
:1033B0004FF080624FF000612846A0474FF0006256
:1033C00011462846A0474FF080524FF00061284632
:1033D000A0471820B0471F4C20461F4B98471F4B53
:1033E00098471F4B98471F4B9847012323601E4B5C
:1033F00098471E4B984706461D4B98476C46054616
:103400000FCD0FC495E8030084E80300194B029325
:10341000042269463046184B98473046174B984768
:10342000174B9847174F4FF08076174D174C3E6358
:103430002846A047FBE700BFB52A0800192B080063
:10344000E93208004D2F0800592C0800000E0E40EC
:10345000B92B08000080004079100800CD24080036
:10346000E9060800A90D080091130800F5130800EB
:10347000FD130800B001072011190800B519080054
:103480000902080000120E40808D5B000100072039
:1034900070B50F4E0F4D761BB61018BF002405D027
:1034A000013455F8043B9847A642F9D10A4E0B4D1A
:1034B00006F0F2FE761BB61018BF002406D00134C9
:1034C00055F8043B9847A642F9D170BD70BD00BFC6
:1034D000A4A20800A4A20800ACA20800A4A20800AC
:1034E000844641EA000313F0030349D1403A23D351
:1034F0000B6803604B6843608B688360CB68C36074
:103500000B6903614B6943618B698361CB69C3615B
:103510000B6A03624B6A43628B6A8362CB6AC36243
:103520000B6B03634B6B43638B6B8363CB6BC3632B
:1035300040304031403ADBD230320BD30B6803606D
:103540004B6843608B688360CB68C3601030103178
:10355000103AF3D20C3205D351F8043B40F8043B47
:10356000043AF9D2043208D0D2071CBF11F8013B4B
:1035700000F8013B01D30B8803806046704700BF11
:10358000082A13D38B07B1D010F00303AED0C3F1D8
:103590000403D21ADB071CBF11F8013B00F8013B02
:1035A000A4D331F8023B20F8023B9FE7043AD9D379
:1035B000013A11F8013B00F8013BF9D20B78037096
:1035C0004B7843708B7883706046704770B4860781
:1035D00046D0541E002A41D0CAB2034602E014F17C
:1035E000FF343BD303F8012B9D07F8D1032C2ED9D0
:1035F000CDB245EA05250F2C45EA054519D92646E1
:1036000003F11002103E0F2E42F8105C42F80C5CE1
:1036100042F8085C42F8045C02F11002F2D8A4F10E
:10362000100222F00F0204F00F041032032C134496
:103630000DD91E462246043A032A46F8045BFAD8FE
:10364000221F22F003020432134404F003042CB1BD
:10365000C9B21C4403F8011B9C42FBD170BC7047EB
:1036600014460346C2E700BF00290CBF0222002215
:103670004FF4806300F000B82DE9F043614D83B052
:103680002D6804460F4690461E4615B1AB6B002BC5
:1036900064D0B8F1020F06D0B8F1010F00F29F809C
:1036A000002EC0F29C80636ED80734D52146284690
:1036B00002F004FC216B41B104F14003994202D0B5
:1036C000284602F0F9FC002323630022B4F90C30F1
:1036D000A26162601A063AD423F44A6323F003031A
:1036E000B8F1020FA3811DD001AB6A4621462846DE
:1036F00002F006FEA3891843A081002E32D1009E5D
:10370000304602F02BFE074600286BD0A38943F019
:103710008003A38128E0A3899905C7D4A06D02F096
:10372000EBFDC3E7002500260120616E04F1430292
:1037300043F00203A660CE07A3816061226022618C
:1037400001D498053ED5284603B0BDE8F083216931
:10375000284602F0B1FCB4F90C30BDE7284602F06F
:1037600005FC96E7002FCBD0AB6B002B33D0009B32
:10377000B4F90C209E421CBF42F40062A281B8F151
:10378000010F04BF42F00102A28192B212F00803BD
:103790002760276166610ED0D1071AD50023656EB8
:1037A000764215F00105A661A36009D000252846E0
:1037B00003B0BDE8F083A360656E15F00105F5D197
:1037C0009305C0D4A06D02F099FD284603B0BDE872
:1037D000F083A660F0E7284602F0C8FBC7E74FF089
:1037E000FF35B0E7DDF80090B14504D0484602F05F
:1037F000B5FD074620B9B4F90C304FF0FF3592E71C
:103800004E4683E7BC0107200CB4F0B5224B0C1EDA
:103810009DB01D683BDB4FF4027302900690ADF83B
:1038200014304FF6FF7723AE15D0013C229A334671
:1038300002A9284604940794ADF81670019600F08A
:103840005BF8421C19DB0022029B1A701DB0BDE818
:10385000F04002B070473346229A02A928460494E9
:103860000794ADF81670019600F046F8431C07DB8C
:103870001DB0BDE8F04002B070478B232B60E2E73B
:103880008B232B601DB0BDE8F04002B070478B2346
:103890004FF0FF302B60EBE7BC01072020F0030165
:1038A00010F00300C0F1000051F8043B00F1040CDB
:1038B0004FEACC0C6FF000021CBF22FA0CF213434B
:1038C0004FF0010C4CEA0C2C4CEA0C4CA3EB0C0214
:1038D00022EA030212EACC1204BF51F8043B04307E
:1038E000F4D0C2F1000102EA0102B2FA82F2C2F19E
:1038F0001F0200EBD20070472DE9F04FC3B00C4619
:103900000B9192460F930C9002F0E4FC036818466A
:103910001A93FFF7C3FFA3891990190603D52369EA
:10392000002B01F0358000230DF1C809C84615931E
:103930001393149318931B93099316931793279338
:103940002693CDF894909AF800305446EBB1252B8D
:1039500002D11AE0252B03D014F8013F002BF9D136
:10396000A4EB0A058DB1269B279A01332A44072B25
:10397000C8F800A0C8F804502792269300F38A8064
:1039800008F10808099B2B4409932378002B00F0C9
:10399000898000234FF0FF301A468DF877301946A2
:1039A0000D939B46637804F1010A0A900AF1010A1B
:1039B000A3F12000582800F2B783DFE810F04C0391
:1039C000B503B5035403B503B503B503B503B50398
:1039D000B50359005903B50366001402B5032F025D
:1039E000A503A503A503A503A503A503A503A50397
:1039F000A503B503B503B503B503B503B503B50317
:103A0000B503B503B5038B02D302B503D302B503E7
:103A1000B503B503B5031B03B503B5032003B50315
:103A2000B503B503B503B5033402B503B5034B02C3
:103A3000B503B503B503B503B503B503B503B503C6
:103A4000B503B50376029E03D302D302D302630308
:103A50009E03B503B5036803B5037503DD018C034D
:103A60005E03B503F201B5038700B503B503320366
:103A70000F9C236818460D932346002803F1040386
:103A80000F9304DA0D9B5B420D934BF0040B9AF8F5
:103A900000308BE725AA0B990C9803F0ADFA40B9DA
:103AA000C8466FE7279B23B10C9825AA0B9903F012
:103AB000A3FA0B9B9B8913F0400F099B18BF4FF093
:103AC000FF330993099843B0BDE8F08F1BF0200F36
:103AD000119340F0AF810F9A1BF0100F134640F086
:103AE0009A851BF0400F00F096850025012314886D
:103AF00004320F92002217468DF877200A994A1C4B
:103B000000F010822BF08002079254EA050240F088
:103B10000F82002940F03184002B40F039851BF0E2
:103B200001030E9300F06286302342AE06F8413D59
:103B30000A9B0E9A9342B8BF134608930023129330
:103B400017B1089B01330893079B13F002031093EE
:103B500002D0089B02330893079B13F0840540F0C2
:103B600010830D9B089AA3EB020BBBF1000F40F3EF
:103B70000883BBF1100F40F3B287279C43462146D0
:103B8000A8461027269A0C9C0B9D06E0ABF1100B63
:103B9000BBF1100F03F1080318DD0132AB481031FF
:103BA000072A2791269283E88100EFDD25AA29467E
:103BB000204603F021FA00287FF47BAFABF1100B15
:103BC000BBF1100F4B462799269AE6DC45460C467A
:103BD000984601329D4B5C44072A2794269288E838
:103BE000080800F3C3829DF8777008F1080887B1D0
:103BF0000121269B0C440B440DF17702072B2794DF
:103C00002693C8F80410C8F8002000F3CD8308F10B
:103C10000808109B7BB10221269B0C4401331EAA8D
:103C2000072B27942693C8F80410C8F8002000F347
:103C3000118408F10808802D00F004830A9B0E9A75
:103C40009F1A002F37DD102F40F37986804D4246B2
:103C50002146B0464FF0100B2E46269B0C9C0B9D28
:103C600004E0103F102F02F1080215DD013310317E
:103C7000072B2791269382E84008F2DD25AA2946E2
:103C8000204603F0B9F900287FF413AF103F102F3E
:103C90004A462799269BE9DC35460C46464690461F
:103CA00001333C44072B2794269388E8A00000F3B7
:103CB000708308F10808079BDF0500F16482269BEA
:103CC0000E9901330C44072B2794C8F80060C8F8FC
:103CD0000410269300F3B38308F10808079B5B07E1
:103CE0003BD50D9B089A9D1A002D36DD102D40F313
:103CF00021871026269B0C9FDDF82CB004E0103D98
:103D0000102D08F1080816DD0133504A1034072B36
:103D10002794269388E84400F1DD25AA59463846C1
:103D200003F06AF900287FF4C4AE103D102DC84698
:103D3000279C269BE8DC0133444A2C44072B27941C
:103D4000269388E8240008DD25AA0B990C9803F037
:103D500053F900287FF4ADAE279C099B0D9A089972
:103D60008A42ACBF9B185B180993002C40F0FB8281
:103D70000023C8462693E6E511931BF0200340F08C
:103D800045811BF0100240F066841BF0400300F0F8
:103D900062840F9913460A4604320C8800250F925C
:103DA000A8E600250F9A119316688DF87750141D18
:103DB000002E00F0CD860A9A531C00F01B8629467F
:103DC000304602F075FD002800F00D87831B0A9530
:103DD0000E930F94CDF81CB023EAE3730893129569
:103DE0009DF87770ACE69AF800300AF101042A2BAE
:103DF00000F0C287A3F130000928A24600F218871C
:103E000000231C461AF8013B04EB840400EB440435
:103E1000A3F130000928F5D90A94C9E54BF0800BCD
:103E20009AF80030C2E54BF0100B1BF0200F1193F5
:103E30003FF451AE0F9C073424F0070303F108024E
:103E4000D3E900450F92012354E600BF58A00800B3
:103E500068A008001193002A40F0AD87BE4B1BF00C
:103E6000200F189340F0E7800F9A1BF0100F1346B5
:103E700040F0D8831BF0400F00F0D48300250433BA
:103E800014880F931BF0010F00F0E38054EA050340
:103E900000F0DF8030239DF844208DF878308DF8D5
:103EA00079204BF0020B022324E601221193002318
:103EB00011460F98089202681F468DF877300A93D2
:103EC0001293031DCDF81CB00E918DF8A0200F9316
:103ED00028AE39E61193002A40F084874BF0100B8E
:103EE0001BF0200F40F075840F9A1BF0100F134643
:103EF00040F09D831BF0400F00F09983B2F9004021
:103F00000433E5170F9322462B46002A73F1000372
:103F1000C0F298830A999DF877704A1C4FF001030C
:103F20007FF4F0AD54EA050200F02982CDF81CB010
:103F3000012B00F00E83022B40F09C824E46189815
:103F4000230943EA0573290904F00F020D461C46B4
:103F5000835C06F8013D54EA0503F1D1A9EB0603A1
:103F60000E93E5E51193002A40F038870F9C1BF073
:103F7000080F04F1070400F0CF8424F0070303F1D5
:103F800008020F921A685B6815921493149B159D92
:103F900023F00044284621464FF0FF326F4B04F0D7
:103FA00093F8002840F03484284621464FF0FF3231
:103FB0006A4B04F06BF8002840F02A8415A80DC85D
:103FC000149904F059F8002840F0D4859DF87770D2
:103FD00003231A4608930023614E19460A93614B46
:103FE0000E92119A2BF0800007901291472AD8BFA9
:103FF0001E46A5E54BF0080B9AF80030D6E44BF0CE
:10400000100B11931BF020033FF4BBAE0F9C073441
:1040100024F0070303F10802D3E900450F920023BF
:1040200068E51193002A40F0C2864F4B1BF0200F29
:1040300018933FF419AF0F9C1BF0010F04F1070414
:1040400024F0070303F108020F92D3E900457FF43F
:104050001DAF02234EE59AF8003000297FF4A6AC8C
:1040600001222021A2E44BF0010B9AF800309DE4DC
:104070009AF8003001222B2198E44BF0200B9AF89B
:10408000003093E44BF0400B9AF800308EE49AF83D
:1040900000306C2B03BF9AF801304BF0200B0AF173
:1040A000010A4BF0100B81E4002A40F07C861BF0E3
:1040B000200F40F052841BF0100F40F038841BF0AA
:1040C000400F00F034840F9A136804320F92BDF849
:1040D00024201A8037E4782330220F988DF8793025
:1040E0001193031D0F93204B046818934BF0020BA0
:1040F0008DF8782000250223FCE41193002A3FF478
:10410000EFAE8DF87710EBE600200446A3F1300007
:104110001AF8013B04EB840400EB4404A3F13000E3
:104120000928F5D90D9443E41193002A40F04A86FA
:10413000119A002A3FF4B6AC002301211F460891D2
:104140008DF8A020CDF81CB08DF877300A9312932B
:104150000E9128AEF8E400BF24A00800FFFFEF7F17
:1041600018A0080014A0080038A0080025AA0B9980
:104170000C9802F041FF00287FF49BACC8469DF8E4
:104180007770279C33E5119B652B40F39A8015A827
:104190000DC8149903F066FF002800F093810121F7
:1041A000269BB54A0B440C44072B27942693C8F84A
:1041B0000410C8F8002000F3C68308F108081F9B0C
:1041C000139A279C934203DB079BDD077FF586AD9F
:1041D000269B199901331A9A0C44072BC8F8002022
:1041E000C8F804102794269300F3C48308F1080844
:1041F000139B5E1E002E7FF771AD102E40F3758568
:1042000022461027269B9D4DDDF830B00B9C05E023
:1042100008F10808103E102E40F3258201331032B9
:10422000072B2792269388E8A000F1DD25AA2146D6
:10423000584602F0E1FE00287FF43BACC846279ABE
:10424000269BE7E70D9B089A9F1A002F7FF7F6AC95
:10425000102F40F3A884894D42462146B0464FF0C6
:10426000100B2E46269B0C9C0B9D04E0103F102F3C
:1042700002F1080215DD01331031072B2791269337
:1042800082E84008F2DD25AA2946204602F0B4FE65
:1042900000287FF40EAC103F102F4A462799269B2A
:1042A000E9DC35460C464646904601333C44072B34
:1042B0002794269388E8A00000F39E8208F108085E
:1042C000BCE4139B012B40F34F820123269F1C4427
:1042D0001F44072F2794C8F800602697C8F80430B9
:1042E00000F35F8208F10808199A01371A9B1444F9
:1042F000072F27942697C8F80030C8F8042000F349
:104300005C8208F1080815A80DC8149903F0AAFEEC
:10431000139B002840F04181013B013701361C44CA
:10432000072FC8F8006026972794C8F8043000F3D8
:10433000668108F108081B9A0137144421AB072F46
:1043400027942697C8F80420C8F800307FF7C4AC3B
:1043500025AA0B990C9802F04FFE00287FF4A9AB18
:10436000C846279CBAE425AA0B990C9802F044FE93
:1043700000283FF4FDACFFF79CBBDDF81CB0012B1F
:1043800000F07E81022B71D1CDF81CB000240025F5
:10439000D4E525AA0B990C9802F02EFE00287FF494
:1043A00088ABC846279C86E425AA0B990C9802F096
:1043B00023FE00287FF47DABC846279C29E401201A
:1043C000269B2D4A03440444072B27942693C8F8C0
:1043D0000400C8F8002040F3D88225AA0B990C9855
:1043E00002F00AFE00287FF464ABC8461F99279CA0
:1043F00029B9139B1BB9079BD8077FF56FAC199898
:10440000269B0246013322441A9C072B2792C8F8A8
:104410000040C8F80400269300F3318408F108082E
:104420000029C0F20984139901338C18072B2794B3
:104430002693C8F80060C8F804107FF74DAC25AA91
:104440000B990C9802F0D8FD00287FF432AB279C22
:10445000C84643E425AA0B990C9802F0CDFD00282C
:104460007FF427ABC846279CFFF7E5BB0024002557
:10447000CDF81CB0494604E054A0080068A008002C
:104480003146E20842EA4572E80804F007030546AF
:104490001446303354EA050201F8013C01F1FF36BD
:1044A000EED1079AD2077FF559AD302B3FF456ADC8
:1044B0003023023906F8013CA9EB01030E930E46A6
:1044C000FFF736BB1F9900297FF779AF129B139A2C
:1044D0009342A8BF1346002B1F460BDD269B3C448E
:1044E0000133072B279488E8C000269300F3FB8252
:1044F00008F10808129B002FA8BFDB1B002B1F46EA
:1045000040F3D780102B40F33484BA4D4246214605
:10451000B0464FF0100B2E46269B0C9C0B9D04E0E2
:104520000832103F102F40F3B58001331031072BB4
:104530002791269382E84008F2DD25AA29462046E5
:1045400002F05AFD00287FF4B4AA4A462799269B18
:10455000E7E7002D08BF0A2CC0F090804E462046A9
:1045600029460A22002303F0EDFD303206F8012D22
:104570002046294600230A2203F0E4FD04460D46A6
:1045800054EA0503EBD1A9EB06030E93FFF7D0BA6B
:104590000A9B4E460E93FFF7CBBA5E1E002E7FF7A6
:1045A000CAAE102E40F3E38322464FF0100B914D1C
:1045B0000C9C04E0103E102E08F1080815DD0137B0
:1045C0001032072F2792269788E82008F2DD25AAC7
:1045D0000B99204602F010FD00287FF46AAA103ED5
:1045E000102EC846279A269FE9DC1446013734442A
:1045F000072F2794269788E860007FF79AAE25AAB0
:104600000B990C9802F0F8FC00287FF452AA279C22
:10461000269FC8468FE604321C68002501230F92AE
:10462000FFF768BA1C6804330F9300252AE41C685E
:104630000433E51722460F932B46002A73F100033B
:10464000BFF668AC2D27644265EB45058DF87770A1
:104650000123FFF753BA0F9900250A4604320C686C
:104660000F92FFF747BA144601333444072B2794BF
:10467000269388E860007FF72FABE0E6DDF81CB0FA
:10468000012342AE3034CDF81CB006F8414D0E93F4
:10469000FFF74EBA35460C464646904601333C4439
:1046A000072B2794269388E8A00000F3468208F1A0
:1046B00008081F9A139B9A4245DB079BD90742D4EF
:1046C000139B12989A1A1D1A9542A8BF1546002DE1
:1046D0000EDD2699064401312C440729C8F80060F4
:1046E0002794C8F80450269100F3168208F10808B0
:1046F000002DB4BF1646561B002E7FF7EFAA102ED2
:1047000040F3F38222461027269B3A4DDDF830B065
:104710000B9C04E008F10808103E102EA3DD0133C5
:104720001032072B2792269388E8A000F2DD25AAF5
:104730002146584602F060FC00287FF4BAA9C8461A
:10474000279A269BE8E7269B199801331A99044477
:10475000072B2794C8F80010C8F80400269300F32C
:10476000CF8108F10808ABE7079BDA073FF5ADAD4D
:104770000123269F1C441F44072F2794C8F800607C
:104780002697C8F804307FF7D4AD25AA0B990C986A
:1047900002F032FC00287FF48CA9C846279C269F93
:1047A000C9E525AA0B990C9802F026FC00287FF495
:1047B00080A9C846279C269F96E525AA0B990C98A8
:1047C00002F01AFC00287FF474A9C846279C269F93
:1047D00099E50F9C073424F0070404F10801D4E99B
:1047E00000230F9114461D46FFF78FBB4E46FFF77F
:1047F0009FB900BF68A0080025AA0B990C9802F089
:10480000FBFB00287FF455A9C846279CFFF716BA82
:10481000159C22462046149C2346214603F054FC56
:10482000002840F073820A9B0133119B23F0200380
:104830000E9300F09C81472B00F0D6804BF48073E0
:104840000793149B1F1E159B0893B7BF3B4600237D
:1048500003F100472D231093119B662B00F09081EC
:10486000462B00F0A48002200E9B23A9452B0ABFF3
:104870000A9B0A9D5D1C8DE82100049120A81FA9B8
:104880003B460390089A02910C9800F059FB119B4B
:104890000646672B40F0BA811BF0010F00F023821F
:1048A0007419169A0898179B394603F0DBFB002809
:1048B00040F02481239BA34206D230215A1C23922C
:1048C0001970239B9C42F9D89B1B13930E9B472B7B
:1048D00000F0A280119B652B40F3A781119B662BF2
:1048E0001F9B129300F07181139B129A19469142FB
:1048F00000F35D811BF0010F40F0F08122EAE273CA
:10490000089367230E921193109B002B7DD10A937D
:104910009DF87770FFF714B924F007042368159306
:104920006368149304F108030F93FFF72FBB0F9AEA
:10493000136804320F92099A1A60FFF704B8269B95
:10494000AF4DFFF7ADB925AA0B990C9802F054FBB7
:1049500000287FF4AEA8C84631E40F9A134604330A
:104960000F93099B1168DD171A462B46C1E90023F6
:10497000FEF7E9BF25AA0B990C9802F03DFB002831
:104980007FF497A8C846279C32E408F108082FE571
:1049900040210C9801F0EAFC0B9A1060106100288D
:1049A00000F0148240230B9A5361FEF7BCBF032032
:1049B0000A9C23A98DE81100049120A81FA9039047
:1049C000089A3B4602910C9800F0BAFA2546064632
:1049D000119B7419462B7FF464AF3378302B00F0B1
:1049E00087811F9D2C445CE70A9B002B08BF012395
:1049F0000A9323E730460A95FEF750FF0F940E9076
:104A0000CDF81CB00346FFF7E7B92D2700238DF83A
:104A100077700A93FFF795B81F9B1A4612930333DA
:104A200004DB0A9B19469142BFF65EAF119B023B25
:104A30001193129B9DF84420013B002B8DF884209C
:104A4000B4BF2D222B221F93B8BF129B8DF8852057
:104A5000B8BFC3F10103092B40F31F810DF193008F
:104A60000146684C00E0114684FB0352DD17C5EB9C
:104A7000A20505EB8502A3EB42023032092D01F8B5
:104A8000012C2B4601F1FF32EDDC30330239DCB270
:104A9000884202F8014C40F292810DF186011346E2
:104AA00001E013F8014B834201F8014BF9D10133C6
:104AB0009B1A0DF18602134421AA9B1A139A1B9389
:104AC000012A13440E9340F348810E9B199A134414
:104AD0000E9323EAE37308930023129314E7279CB1
:104AE000269AFFF776B825AA0B990C9802F084FA5B
:104AF00000287EF4DEAFC846279CFBE42346E3E6AD
:104B000025AA0B990C9802F077FA00287EF4D1AF11
:104B1000C8461F9A279CD3E525AA0B990C9802F04A
:104B20006BFA00287EF4C5AF1F9A139BC846279CDA
:104B30009A1ADDE5269BFFF7FEB825AA0B990C987B
:104B400002F05AFA00287EF4B4AFC846279CB0E5BC
:104B50000A9B3746062B28BF06230A96129608930F
:104B60000F94CDF81CB00E93274EFEF7E9BF062335
:104B70000A9363E62D231F468DF87730FFF728BA96
:104B800003200A9C23A98DE81100049120A81FA9E5
:104B90000390089A3B4602910C9800F0D1F9254603
:104BA0000646041919E7269B154DFFF77EBB199A97
:104BB000139B1344129A0E93002A40F3C78023EAF2
:104BC000E3730893672311939EE6002B40F3E18083
:104BD0000A9A002A40F0B0801BF0010F40F0AC8030
:104BE00008930E9390E60A9B0F9408930E930A90F5
:104BF000CDF81CB012909DF87770FEF7A1BF00BFF2
:104C000068A00800676666664CA00800119B472BE9
:104C10007FF446AE1BF0010F7FF4DAAE239B9B1BA3
:104C200013930E9B472B3FF4F7AE1F9B129300E7A5
:104C300000200A90FEF7BCBE4F42103135DA102436
:104C40006A4DDDF830B004E008F10808103F102F7D
:104C50002CDD01331032072B27922693C8F8005021
:104C6000C8F80440F0DD25AA0B99584602F0C4F9B3
:104C700000287EF41EAFC846279A269BE6E725AAA1
:104C80000B990C9802F0B8F900287EF412AFC846D0
:104C90001F99279A269BFFF7C3BB302213448DF838
:104CA00087308DF8862022AB06E7504D01333A4419
:104CB000072B88E8A0002792269308F108087FF7C1
:104CC000B2AB25AA0B990C9802F096F900287EF455
:104CD000F0AEC846279A269BFFF7A5BB129B199AF0
:104CE00013440E936BE7239BEEE5269B3F4DBBE4FD
:104CF000169A0898179B394603F0B4F900287FF4F8
:104D000070AEC5F101051F952C44CAE5149B384EC1
:104D1000002BBEBF2D231F468DF877304FF00303C5
:104D20001A4608934FF00003A8BF9DF87770194604
:104D30000A93304BFFF754B9129B199A13440A9AFD
:104D40001A4422EAE2730E920893DDE5129B0E9A52
:104D5000C3F101031A441346C3E71BF00103129386
:104D60007FF4B3AE0E9B23EAE3730893CCE51F4DAB
:104D70003CE4269B1D4D91E40F9D9AF80130286874
:104D8000A24640EAE0700A90284604300F90FEF7F1
:104D90000DBE0A9B13B91BF0010F02D0199B013302
:104DA000CDE701231CE78DF87710FFF780B98DF868
:104DB0007710FFF73AB98DF87710FFF74FB80DF17C
:104DC000860379E68DF87710FFF7B2B94FF0FF321E
:104DD0000C2309920C9A1360FEF774BE8DF87710BD
:104DE000FFF7C4B88DF87710FFF778B868A008000F
:104DF00020A008001CA00800024B13B1024800F0DC
:104E000005B8704700000000E55F08000023014678
:104E10001A46184602F084B92DE9F04F03690F696C
:104E200083B09F4200F38880013F01F1140600F136
:104E3000140A56F827305AF827200133B2FBF3F84A
:104E4000BB00009306EB030953440193B8F1000F34
:104E50003BD00023B4461C46D6465CF8042BDEF853
:104E600000501FFA82FB08FB0B33120C4FEA134B66
:104E700008FB02BB9AB2A21AABB21FFA8BF41A4417
:104E8000C4EB154404EB224492B242EA0442E145E9
:104E90004EF8042B4FEA24444FEA1B43DDD2009B1B
:104EA0005AF803308BB9019C231F9A450CD254F851
:104EB000043C4BB9A4F1080302E01A68043B1AB998
:104EC0009A4507F1FF37F8D30761044601F040FF28
:104ED00000282DDB5546002308F1010856F8041B75
:104EE00028688AB29A1A0B0C81B20A44C3EB1043A9
:104EF00003EB224392B242EA0342B14545F8042B48
:104F00004FEA2343EAD25AF827200AEB87037AB9FB
:104F10001A1F92450BD253F8042C42B9083B02E009
:104F20001A68043B1AB99A4507F1FF37F8D327618D
:104F3000404603B0BDE8F08F002003B0BDE8F08F1D
:104F40002DE9F04F056C9BB0044692469B46279E88
:104F50004DB10123426C29469340AB606A6001F079
:104F60001FFD00232364BBF1000F5D4635DB0023EA
:104F700033609D4BAB4315D0002200235046594669
:104F800003F070F8804600282DD00123269A136084
:104F9000289B002B00F0BD809448186001381BB09E
:104FA000BDE8F08F42F20F73269A1360BAF1000F3A
:104FB0000DD1C5F3130555B9289B8D48002BEED0B4
:104FC00000F10803289A13601BB0BDE8F08F289BFE
:104FD0008848002BE3D0C31CF4E701232BF00045E5
:104FE0003360AB46C5E718AA19AB0192009352464D
:104FF0005B46204601F056FF2B0D814671D050468E
:10500000CBF3130242F07F51189FA3F2FF36CDF885
:10501000508041F440110022774B02F007FC6CA352
:10502000D3E9002302F0B6FD6BA3D3E9002302F01D
:10503000FFFBCDE90201304602F046FD68A3D3E94B
:10504000002302F0A7FD02460B46DDE9020102F053
:10505000EFFBCDE9040103F04DF80022029000239C
:10506000DDE9040103F008F8002840F06D81029D9D
:10507000162D00F257816149524601EBC5015B468E
:10508000D1E9000103F016F8002800F0BE816B1E84
:10509000029300230E93BF1B7B1E089300F14E81E9
:1050A00000230A93029B002BC0F23F81089A0D93C4
:1050B00011461944002308910C93249B092B2AD8EC
:1050C000052B40F358860025043B2493249B023B88
:1050D000032B00F23F86DFE813F0CE03C302D903AF
:1050E0005B04189F199E3E4406F23243202B40F386
:1050F0008781C3F1400306F212409D402AFA00F076
:10510000284302F0D1FC0123013E1493A1F1F87170
:1051100081E73B4843E7002120466164259101F087
:1051200019FC4FF0FF3307930F930123259A049046
:10513000206424920B93199B002BC0F2D380029A17
:105140000E2A00F3CF802D4B03EBC203D3E90023DB
:10515000CDE90823259B002BC0F2B483DDE9085676
:1051600050462A463346594602F03EFE02F0C2FF40
:10517000804602F0A9FC2A46334602F00BFD0246A7
:105180000B465046594602F051FB079E049F08F11A
:105190003005012E3D7002460B4607F1010564D033
:1051A0000022184B02F0F6FC0022002306460F46B0
:1051B00002F058FF002840F08280CDF828904FF090
:1051C000000ADDE908894FF0000B0B9429E000BFCD
:1051D00061436F63A787D23FB3C8608B288AC63FFD
:1051E000FB799F501344D33F0000F07F55A0080087
:1051F00078A0080084A008000000F83FB0A00800D4
:1052000054A00800000024400022814B02F0C2FCA0
:1052100052465B4606460F4602F024FF002840F047
:10522000BA8342464B463046394602F0DDFD02F075
:1052300061FF044602F048FC42464B4602F0AAFCDD
:1052400002460B463046394602F0F0FA04F13006C9
:1052500005F8016B049E079FAE1BBE4202460B463B
:10526000D2D1A046DDF828900B9C1046194602F0DA
:10527000DFFA06460F4602460B46DDE9080102F05A
:10528000FBFE48B9DDE9080132463B4602F0EAFE82
:10529000A8B118F0010F12D015F8018C6B1E049AFA
:1052A00004E09A4200F0028413F8018DB8F1390F3E
:1052B00003F10105F5D008F1010883F800804946A3
:1052C000204601F06DFB0022029B2A70269A0133D2
:1052D0001360289B002B00F09F8304981D601BB077
:1052E000BDE8F08F0B9A002A3ED0249A012A40F3A1
:1052F0001183079B0C9A5F1EBA42C0F29083D71BA2
:10530000079B002BC0F28C840A9D079B0A9A0121FF
:105310001A440A92089A20461A44089201F0DCFBCB
:10532000064623E001230E93B5E600230A9A0D9367
:10533000029BD21A5B420A920C93BEE6C7F10103AC
:105340000A9300230893ADE6029D284602F0BCFBB9
:1053500002460B46DDE9040102F084FE00287FF4DA
:1053600086AE6B1E029382E60AADE0CD002D0CDD09
:10537000089900290B4608DDA942A8BF2B460A9AC6
:10538000ED1AD21ACB1A0A9208930C9BD3B10B9B3D
:10539000002B00F0B882002F10DD31463A4620463F
:1053A00001F036FC4A4601460646204601F09EFBC7
:1053B000034649462046994601F0F2FA0C9BDA1B57
:1053C00040F0A2820121204601F086FB0D9B804621
:1053D000002B1FDD01461A46204601F019FC249BD4
:1053E0008046012B40F3558200230C93D8F81030EF
:1053F00008EB8303186901F01FFBC0F1200013E0E4
:10540000C3F120050AFA05F07BE60E9043E600BFE3
:1054100000002440249B012B40F3858200230C9341
:105420000D9B0120002BE1D1089A104410F01F00C1
:1054300000F0A180C0F12003042B40F386840A9B76
:10544000C0F11C0003440A93134603440544089327
:105450000A9B002B05DD49461A46204601F028FC30
:105460008146089B002B05DD41461A46204601F087
:105470001FFC80460E9B002B40F08680079B002B74
:1054800040F364820B9B002B00F09880002D05DD1B
:1054900031462A46204601F00BFC06460C9B002BA9
:1054A00040F036830896079B049A013BD3180B9370
:1054B00017460AF00103C246DDF820B00C935146AE
:1054C0004846FFF7A9FC31460546484601F040FC36
:1054D0005A4607905146204601F056FCC268804665
:1054E00005F13003002A40F02982014648460A931C
:1054F00001F02EFC41460890204601F051FA089A2E
:105500000A9B32B9249921B90C9A002A00F0EE8343
:10551000249A07990029C0F29F8205D1249919B9CC
:105520000C99002900F09882002A00F305830B9A59
:1055300007F1010897423B70454600F00B8349464E
:1055400000230A22204601F035FA5E4581463146A5
:105550004FF000034FF00A02204600F0E98101F00D
:1055600029FA5946064600230A22204601F022FA6B
:1055700047468346A3E71C200A9B054403440A933D
:10558000089B0344089363E74146484601F0E0FB6B
:105590000028BFF673AF029F494600230A22204627
:1055A000013F029701F006FA0B9B8146002B40F069
:1055B000B5830F9B002B40F3BE830793DDF810A04B
:1055C000079F554606E0494600230A22204601F07F
:1055D000F1F9814641464846FFF71EFC303005F898
:1055E000010BA5EB0A03BB42EDDB049B079A824645
:1055F000012AACBF9B1801334FF0000B1D464946F2
:105600000122204601F054FB4146814601F0A0FBF7
:10561000002840F33F8215F8012C6B1E049904E02A
:105620008B4200F0AE8113F8012D392A03F10105F8
:10563000F6D001321A704146204601F0B1F9002E31
:105640003FF43DAEBBF1000F05D0B34503D0594642
:10565000204601F0A5F93146204601F0A1F92EE6D9
:1056600000230B93029B259A13440F930133012BC4
:105670001F461E46B8BF012707930021172F6164FC
:105680000AD9012204235B0003F11400874211466A
:1056900002F10102F7D26164204601F05BF90E2E9F
:1056A000049020643FF647AD002D3FF444AD0299CD
:1056B000CDE910AB002940F30382B94B01F00F0292
:1056C0000D1103EBC203E906D3E9006740F1AF8196
:1056D000B44B5046D3E90823594602F085FB4FF0FE
:1056E000030ACDE9120105F00F058DB1DFF8B48290
:1056F000EA0709D5D8E900233046394602F04AFACC
:1057000006460F460AF1010A6D1008F10808EFD1AC
:105710003B46DDE91201324602F066FB0746884649
:105720000E9B43B10022A04B3846414602F0A4FC38
:10573000002840F08782504602F0C6F93A464346B8
:1057400002F028FA994B002202F072F8079B0546F6
:10575000A1F15076002B00F03F81029B1593079B2F
:1057600012930B9B002B00F0FB81129A8C4B0020B4
:1057700003EBC20353E902238D4902F035FB2A46AD
:10578000334602F053F882468B463846414602F0D3
:10579000B1FC054602F098F902460B4638464146F0
:1057A00002F044F830355FFA85F8049D06460F464E
:1057B00085F8008002460B4650465946013502F0F6
:1057C00079FC002854D132463B460020764902F04D
:1057D0002DF802460B465046594602F06BFC002855
:1057E00040F07082129A012A00F01281129B049AF2
:1057F000CDF84890134499460FE032463B460020CE
:10580000694902F013F852465B4602F035FC002865
:1058100040F056824D4500F0F9805046594600222E
:10582000644B02F0B7F90022624B82468B46304649
:10583000394602F0AFF90F46064602F05BFC80469F
:1058400002F042F902460B463046394601F0EEFFBF
:1058500008F130085FFA88F805F8018B52465B467C
:1058600006460F4602F008FC0028C6D0DDF8489036
:10587000159B029323E500230B93259B002B40F3FC
:10588000DD801F461E460F930793F6E601230B9318
:10589000F3E7BAF1000F7FF4A7ADCBF31303002BAE
:1058A0007FF4BCAD2BF000473F0D3F05002F00F00B
:1058B0000D820A9B01330A93089B0133089301234D
:1058C0000C93ADE5079B002B3FF748AC40F02282DC
:1058D000DDE908010022384B02F05CF952465B46D4
:1058E00002F0DEFBDDF81C804646002841D0259BF7
:1058F000049DDB4302934146204601F051F8002EFF
:105900003FF4DDACA7E60C9A4946204601F080F949
:10591000814657E5149A002A00F0888103F2334348
:105920000C9F0A9DF2E4BAF1000F7FF477ADB4E763
:1059300001F040F8474606468346C0E5014620464A
:10594000089301F02DF80122089BE2E5249B022B2D
:105950007FF798AD079B002BC9D141460522204611
:1059600001F028F801468046484601F0F1F9002888
:10597000BDDD3123029A0499013202920B704D1C55
:10598000B9E73123029A01320292049A137052E667
:1059900001230B9366E6DDF828900B9C8FE400BF93
:1059A000B0A0080088A008000000F03F00001C40E4
:1059B0000000E03F0000244000001440504602F088
:1059C00083F83A46434602F0E5F80022C14B01F065
:1059D0002FFF0546A1F1507641460022BE4B3846C6
:1059E00001F024FF2A46334682468B4602F062FBD2
:1059F0008046002840F010812A4606F100435046B8
:105A0000594602F039FB18B1464670E7DDF8489078
:105A1000DDE910ABFFF78FBB0498FFF7C0BA0C9B12
:105A20000D9AFB1A1A440C970D92002768E4DDE9E1
:105A300010234FF0020ACDE9122356E6002101237C
:105A400020466164259300F085FF259B0490079311
:105A5000259B20640F9327E6002AD046CDF820B07E
:105A60009A4611DD49460122204601F021F94146BE
:105A7000814601F06DF9002840F34581BAF1390FF4
:105A800000F0058105F1310AB34687F800A07D1CBE
:105A9000089ED0E504D11AF0010F01D0BBE51546F0
:105AA00015F8013C6A1E302BF9D0C4E53022049968
:105AB0000A70029A15F8018C01320292FFF7FBBBC3
:105AC00000F0BB80DDE91001029B4FF0020A5D424D
:105AD000824B05F00F0203EBC203D3E9002302F06F
