:0200000280007C
:10000000102B07203D110800391108003911080094
:1000100039110800391108003911080000000000EA
:10002000000000000000000000000000E5090800DA
:1000300039110800000000001D0A0800590A0800D4
:100040003911080039110800391108003911080068
:100050003911080039110800391108003911080058
:10006000391108003911080000000000AD0F080028
:10007000C10F0800D50F0800E90F080000000000BC
:10008000000000003911080039110800391108007A
:100090003911080039110800391108003911080018
:1000A000391108000000000039110800391108005A
:1000B00039110800391108003911080039110800F8
:1000C00039110800391108003911080039110800E8
:1000D00039110800391108003911080039110800D8
:1000E00039110800391108003911080039110800C8
:1000F0003911080010B5054C237833B9044B13B1FE
:100100000448AFF300800123237010BD8409072049
:1001100000000000282708000C4B43B10C4810B524
:100120000C49AFF300800C48036823B910BD0A489E
:10013000036833B97047094B002BF7D0BDE8104076
:100140001847064B002BF5D0184700BF00000000F1
:100150002827080088090720282708000000000039
:100160000B4B4FF400025A634FF080525A63094A16
:10017000136913F4007FFBD0064BD8601A4613694D
:1001800013F4007FFBD04FF40002014B1A63704759
:1001900000120E400080004010B504462A20354B66
:1001A0009847354BB3F90010C1F30720334A136960
:1001B00013F4007FFBD0314BD860C9B21A461369E3
:1001C00013F4007FFBD02D4BD9609CB12C4BB3F9BD
:1001D0000010C1F30720294A136913F4007FFBD0F4
:1001E000264BD860C9B21A46136913F4007FFBD0BE
:1001F000224BD960214A136913F4007FFBD04FF0E2
:100200008052204B1A632B201A4B98471E4BB3F990
:100210000010C1F30720194A136913F4007FFBD0C3
:10022000164BD860C9B21A46136913F4007FFBD08D
:10023000124BD9609CB1154BB3F90010C1F30720E4
:100240000E4A136913F4007FFBD00C4BD860C9B27F
:100250001A46136913F4007FFBD0084BD960074A94
:10026000136913F4007FFBD04FF08052054B1A63E3
:1002700010BD00BF61010800A409072000800040F4
:10028000A009072000120E40A6090720A209072096
:1002900008B5044B1880044B19800020034B984785
:1002A00008BD00BFA4090720A6090720990108007E
:1002B00008B5044B1880044B19800120034B984764
:1002C00008BD00BFA0090720A20907209901080066
:1002D00010B5064C20800648018006490A80064A6F
:1002E00013800120054B984710BD00BFA4090720CB
:1002F000A6090720A0090720A209072099010800E4
:1003000038B504460D462C200F4B98478DB1691E19
:10031000250AE4B20D4B1A6912F4007FFBD0DC60B1
:100320001A6912F4007FFBD0DD600139B1F1FF3FA3
:10033000F1D1064A136913F4007FFBD04FF08052CD
:10034000034B1A6338BD00BF610108000080004004
:1003500000120E4010B580F0050000F00103002BE4
:100360000CBF4824082410F0020F18BF44F080048A
:1003700010F0040F18BF44F020043620094B9847B2
:10038000094A136913F4007FFBD0074BDC601A465F
:10039000136913F4007FFBD04FF08052034B1A63B4
:1003A00010BD00BF610108000080004000120E4037
:1003B0002DE9F04184B0002504AE46F8045DA64C5A
:1003C0002046A64B98470095A54B2A463146204625
:1003D000A44EB04701232360E56004F5592404F5D9
:1003E00000744FF0007626634EF660209E4DA847BD
:1003F00066634EF66020A8472663DFF87C8240469D
:10040000A8471120994EB0474FF0805727634046C8
:10041000A8472920B0472763CD20B0478E4A1369EB
:1004200013F4007FFBD039228B4BDA601A46136934
:1004300013F4007FFBD02C22874BDA601A46136935
:1004400013F4007FFBD00022834BDA601A46136955
:1004500013F4007FFBD034227F4BDA601A46136915
:1004600013F4007FFBD002227B4BDA601A4613693B
:1004700013F4007FFBD04FF080527D4B1A63CF20E6
:100480007A4B9847744A136913F4007FFBD000221B
:10049000714BDA601A46136913F4007FFBD0AA226D
:1004A0006D4BDA601A46136913F4007FFBD0B0225B
:1004B000694BDA601A46136913F4007FFBD04FF0E2
:1004C00080526B4B1A63F720684B9847624A136956
:1004D00013F4007FFBD030225F4BDA601A461369B9
:1004E00013F4007FFBD04FF08052614B1A63C020A1
:1004F0005E4B9847584A136913F4007FFBD02522BE
:10050000554BDA601A46136913F4007FFBD04FF0A5
:100510008052574B1A63C120544B98474E4A136977
:1005200013F4007FFBD011224B4BDA601A4613699B
:1005300013F4007FFBD04FF080524D4B1A63C5205F
:100540004A4B9847444A136913F4007FFBD05C225E
:10055000414BDA601A46136913F4007FFBD04C223A
:100560003D4BDA601A46136913F4007FFBD04FF05D
:1005700080523F4B1A63C7203C4B9847364A136959
:1005800013F4007FFBD09422334BDA601A461369D0
:1005900013F4007FFBD04FF08052354B1A63E820F4
:1005A000324B98472C4A136913F4007FFBD0852205
:1005B000294BDA601A46136913F4007FFBD001223D
:1005C000254BDA601A46136913F4007FFBD07822BA
:1005D000214BDA601A46136913F4007FFBD04FF009
:1005E0008052234B1A63EA20204B98471A4A13691A
:1005F00013F4007FFBD00022174BDA601A46136910
:1006000013F4007FFBD00022134BDA601A46136903
:1006100013F4007FFBD04FF08052154B1A633A2041
:10062000124B98470C4A136913F4007FFBD0052244
:10063000094BDA601A46136913F4007FFBD04FF0C0
:1006400080520B4B1A6300200A4B9847F0234FF45B
:10065000A0720021084611E0008000408D060800CD
:1006600000127A00E106080001000720610108007D
:1006700000120E4055030800A0BB0D00024CA0471D
:1006800004B0BDE8F08100BFD102080010B50446F7
:10069000104B984780232360636843F00103636035
:1006A000636843F010036360636823F08003636052
:1006B00000212046084B9847636823F002036360DB
:1006C000636823F00403636000212046034B9847CE
:1006D00010BD00BFED070800090808001F0808004A
:1006E0002DE9F04104460D46164615491846154BAE
:1006F0009847074600231A4629682046DFF85C80A1
:10070000C0470822296820460F4B9847FAB229684B
:1007100020460E4B98470822296820460C4B9847E4
:100720007208296820460B4B984786F0010202F0B8
:10073000010229682046084B9847BDE8F08100BFB8
:1007400000BD0105C7080800B3080800DD0808005F
:100750006D080800310808004F0808000309080068
:100760002DE9F04180B90C469046002A0FDD8F1824
:10077000084E094D306821462B6898470134BC4229
:10078000F8D14046BDE8F0814FF0FF38F9E78046E8
:10079000F7E700BFE00A0720D80A0720013802283F
:1007A00015D82DE9F0410E4614469AB10D46DFF8F2
:1007B00038800C4FD8F8000015F8011B3B689847AB
:1007C00000280ADBA81B013CF4D1BDE8F0814FF002
:1007D000FF3070471046BDE8F0814FF0FF30BDE8B4
:1007E000F08100BFDC0A0720E00A072008B5044BAF
:1007F000984200D008BD1820024B9847FAE700BF86
:1008000000800040E5100800436823F47023436033
:100810004368090401F4702119434160704743683B
:1008200023F07F434360436843EA016141607047BE
:1008300032B900EB8100036B23F0010303637047BF
:1008400000EB8100036B43F001030363704732B98F
:1008500000EB8100036B23F002030363704700EB9E
:100860008100036B43F0020303637047042A03D043
:100870006AB1082A16D0704700EB8100036B23F0A1
:1008800008030363036B43F004030363704700EB47
:100890008100036B23F008030363036B23F004035D
:1008A0000363704700EB8100036B43F008030363AD
:1008B000E1E700EB81010B6B23F0F0030B630B6BA3
:1008C0001A430A637047431E1944B1FBF0F0431EFC
:1008D000FE2B94BF00B24FF0FF30704772B110B4DE
:1008E000144600EB81010B6B23F47F430B630A6B0F
:1008F00042EA04220A63002010BC70474FF0FF3028
:10090000704710B400EB8101086B80B208630C6B78
:1009100044EA036343EA02430B6310BC704710B41C
:10092000AC2303600B684A68B3FBF2F31B095C1E3F
:100930004FF6FE7294420BD803628B68436040F21C
:100940000223C0F8203150230360002010BC704700
:100950000120FBE7436913F0020F1ABFC1610020B9
:1009600001207047436913F0010F1DBF83690B70AD
:10097000002001207047436913F0020F1DBFC1F32F
:100980000801C161002001207047436913F0010F85
:1009900005D08369C3F308030B6000207047012072
:1009A000704743685A684A6042688A605A68916032
:1009B0005960416008610368013303607047436810
:1009C00082689A60836842685A6003695A689042F4
:1009D00004BF82685A60002202611A68013A1A60F4
:1009E00018687047064B19680868B0E8F00F80F384
:1009F00009884FF0000080F311884EF00D0E70470B
:100A0000A8090720EFF311804FF0A00181F31188AE
:100A10007047002080F3118870470000EFF30980D1
:100A20000C4B1A6820E9F00F10602DE908404FF0D8
:100A3000A00080F3118800F0B9F84FF0000080F3B7
:100A40001188BDE8084019680868B0E8F00F80F325
:100A500009887047A809072008B54FF08052054B58
:100A60001A60054B9847054B98470020044B984760
:100A700008BD00BF04ED00E0050A0800850A080073
:100A8000150A08003D4B1B68002B6FD12DE9F04182
:100A90003B4B1A6801321A601B68ABB9394B1B68B3
:100AA0001B68002B28D1374B1968374A106818602B
:100AB000116036490A6801320A601B681B68FBB97D
:100AC0004FF0FF32324B1A602D4B1A68304B1B68C7
:100AD0009A4250D32B4B1B681B68CBB1294B1B6828
:100AE000DB68DC686368264A1268934216D8294E90
:100AF000294FDFF8B4802FE0284B984700BFFDE76F
:100B0000204B1B68DB68DB685A68214B1A60DBE707
:100B10004FF0FF321E4B1A60BDE8F0811C4A136093
:100B2000BDE8F081E06A3B68984288BF386000EB1E
:100B30008000294608EB8000194B9847114B1B6831
:100B40001B68002BE4D00F4B1B68DB68DC68636814
:100B50000B4A12689342E1D8251D2846B047A36A84
:100B6000002BDFD004F11800B047DBE70D4A136813
:100B7000013313607047BDE8F08100BF1C0A0720F5
:100B80002C0A0720AC090720B0090720280A0720F3
:100B900038010720BF090800200A0720050A0800BD
:100BA000A3090800180A0720B4090720214B1B6875
:100BB000EBB910B5204B1B6803EB83039B001F4A66
:100BC000D358C3B91C4B1B686BB11B4A1B49136834
:100BD000013B1360136803EB830351F8233053B9CF
:100BE0001368002BF3D1164B984700BFFDE7012295
:100BF000144B1A607047104B1B68104A9900C818B4
:100C000002EB80004468646844601944024608327C
:100C1000944209D003EB8303084A02EB83035B6829
:100C2000DA68094B1A6010BD6068044A02EB810261
:100C30005060EFE71C0A0720200A0720B4090720AC
:100C4000050A0800240A0720A809072010B50E4845
:100C50000E4B98473E2100200D4B98470D4CA04766
:100C60000028FCD00C4B98470C4A0D4B9A620D4C57
:100C7000A0470028FCD010200B4B98470B4B9847FF
:100C80000148024B984710BD00BD0105B100072087
:100C900061100800B5100800C5100800013F0D20C4
:100CA00000060E40D5100800FD0F0800D511080001
:100CB00010B54FF400421E4B5A600B201D4CA0474C
:100CC0000C20A0470D20A0470E20A0474FF06051F8
:100CD0003B20194CA0474FF060515520A0474FF0E2
:100CE00060515620A04715496820A04714495C2050
:100CF000A047144A4FF440711348144B98474FF0E3
:100D000000611920A0474FF000611A20A0474FF062
:100D100000611B20A0474FF000611C20A0474FF04E
:100D200000612B20A0474FF000612A20A04710BD92
:100D3000501A0E40E5100800F10D08007900002857
:100D40000100002801000008000E0E40C10E08003E
:100D50004264B1F1805F16D00BD849B1B1F1006F98
:100D600005D1036F016F0B4023EA02030367426062
:100D70007047B1F1405FFBD0B1F1605FF8D0B1F1E5
:100D8000205FF4D17047036F13430367EFE74164BB
:100D900012F0010F14BF4166016612F00A0F14BF72
:100DA0000162416212F0020F07D112F0080F18BF62
:100DB000C0F88410416101607047C0F88010F9E705
:100DC00010B4019C416444B9016643B1016542B964
:100DD00041630161016010BC70474166F5E7416500
:100DE000F5E70163F5E7C06C7047806C7047000061
:100DF00070B582B00D46430903F5001303F2077383
:100E00005C0201F0F043B3F1205F31D016D8B3F1AA
:100E1000006F1BD0B3F1805F16D100F01F000126D8
:100E2000864032464FF080512046224B984715F0BD
:100E3000010F14BF66662666012017E0B3F1405F1C
:100E400021D0B3F1605F1ED000200FE000F01F0042
:100E50000126864032464FF000612046154B9847E8
:100E600015F0010F14BF66662666012002B070BD42
:100E700000F01F0101262A4606FA01F120460E4B1A
:100E800098473046F2E705F0605200F01F01012656
:100E900005EA06030093C5F38003B2F1605F14BF57
:100EA0000022012206FA01F12046044CA0473046F8
:100EB000DCE700BF510D08008F0D0800C10D0800D0
:100EC00070B582B005460E46144602F0F043B3F109
:100ED000205F27D011D8B3F1006F16D0B3F1805F37
:100EE00011D10A464FF08051194B984714F0010F69
:100EF00014BF6E662E66012012E0B3F1405F15D07C
:100F0000B3F1605F12D000200AE00A464FF00061A2
:100F10000F4B984714F0010F14BF6E662E66012028
:100F200002B070BD0B4B98470120F9E704F0605206
:100F300004F001030093C4F38003B2F1605F14BFB7
:100F40000022012231462846034CA0470120E7E752
:100F5000510D08008F0D0800C10D08002DE9F0416A
:100F6000044688460E4B9847054620460D4B984749
:100F7000054013D00C4C04F1600603E0B4420DD0E0
:100F800010345DB120684045F8D161682942F5D040
:100F9000E3689847636825EA0305EFE7BDE8F08159
:100FA000E70D0800EB0D0800300A072008B50B21FB
:100FB0000148024B984708BD000E0E405D0F080027
:100FC00008B50C210148024B984708BD00100E409F
:100FD0005D0F080008B50D210148024B984708BD78
:100FE00000120E405D0F080008B50E210148024BAB
:100FF000984708BD00140E405D0F0800174A136B98
:1010000023F0700318431063936E13F0080F0AD196
:101010004FF4006311498A6E12F0080F03D1013BAF
:10102000F9D1012070470D4A136B23F0030343F0FD
:1010300002031363936E13F0080F0AD14FF4006399
:1010400006498A6E12F0080F05D1013BF9D1012043
:101050007047002070470020704700BF00060E4018
:10106000C8B9114A136A090289B223F45C1323F048
:10107000030343F45C1343F001030B431362936EC9
:1010800013F0010FFBD0084A136A43F09B7343F43B
:1010900080331362704704490B6A044A1A40044BB8
:1010A00013430B62704700BF00060E40FCFFC8FEF2
:1010B00002003701024B986E00F48030704700BF89
:1010C00000060E404FF00052014B9A62704700BF7D
:1010D00000060E40024B986E00F00200704700BF01
:1010E00000060E402C281ED81F280CD8114B9A69D8
:1010F00001238340934318D0012303FA00F00D4BE2
:1011000018610020704720380A4BD3F808210123CA
:10111000834093430BD0012303FA00F0054BC3F83F
:101120000001002070470120704700207047002018
:10113000704700BF00060E40FEE7000008B51C4BDC
:101140001C4A9A4210D01C4B194A9A420CD2013BBD
:101150009B1A23F0030304331344164951F8040B7C
:1011600042F8040B9A42F9D1144B154A9A420AD21A
:10117000013B9B1A23F0030304331344002142F87C
:10118000041B9342FBD10F4B23F0604222F07F02FD
:101190000D498A6003F16043B3F5801F03D28B6869
:1011A00043F000538B60094B9847094B9847FEE783
:1011B0000000072028270800840907200C0B0720BF
:1011C000840907200000080000ED00E0291608004F
:1011D000FD1408003D4B1B6B03F00303032B0ED8DB
:1011E000DFE803F0021C3838394B5B6913F0800FDD
:1011F00014BF4FF400424FF4FA42364B1A60334B9F
:101200001B6B03F07003702B57D0304B1A6B3149B6
:10121000C2F302120B68D3400B6070472B4B1B6A62
:1012200013F0807F03D02C4A2A4B1A60E7E72B4A41
:10123000284B1A60254B1B6A03F07003102B05D056
:10124000202BDCD1244A234B1A60D8E7244A214BB7
:101250001A60D4E71D4B1B6A13F0807F0CD01E4A26
:101260001C4B1A60194B1B6B03F00303022B16D0A7
:101270001C4A184B1A60C2E7184A164B1A60134BE7
:101280001B6A03F07003102B05D0202BEAD1124A01
:10129000104B1A60E6E7124A0E4B1A60E2E70B4A5F
:1012A000916A926A0B48C1F30A41036801FB033358
:1012B000D2B2B3FBF2F30360A1E7064A13680A490E
:1012C000A1FB03135B081360704700BF00060E40CC
:1012D000101A0E403C010720001BB70000093D001A
:1012E00000127A00001C4E0EABAAAAAA0A4B1B6879
:1012F00053B1094B1B681A180849914208DB104684
:10130000054A106018467047054A034B1A60F0E71B
:101310004FF0FF30704700BFA00A0720FC7F082075
:10132000102B07204FF0FF3070474FF400534B60F5
:101330000020704700207047F0B583B004460D468A
:1013400000230193204B98420DD0204B984212D09D
:101350001F4B984219D01F4B9C4220D01E4B9C42E1
:1013600027D003B0F0BD1F461C4E29463846B04773
:101370000028FAD1EFE71F46194E01A93846B047B9
:101380000028FAD1019B2B70E8E71E46144C01A9F6
:101390003046A0470028FAD1019B2B70E1E71E469A
:1013A0000F4C01A93046A0470028FAD1019B2B70B1
:1013B000D7E71E460A4C01A93046A0470028FAD1BB
:1013C000019B2B70CDE700BF00080E400080094054
:1013D00000C0094000000A4000400A4065090800BA
:1013E0008B09080070B50C461E4B98420DD01E4B61
:1013F000984213D01D4B984219D01D4B98421FD0D4
:101400001C4B984225D0002070BD1E461A4D214627
:101410003046A8470028FAD1012070BD1E46174D5E
:1014200021463046A8470028FAD1012070BD1E464B
:10143000124D21463046A8470028FAD1012070BD40
:101440001E460E4D21463046A8470028FAD10120FD
:1014500070BD1E46094D21463046A8470028FAD1E6
:10146000012070BD00080E400080094000C0094006
:1014700000000A4000400A405509080077090800AA
:1014800030B585B00820124DA847124C124B1C6095
:10149000124A134B1A60134A134B1A60134B0193F1
:1014A0004FF4E13302934FF4006303930820A847FD
:1014B00001A920460E4B98470E4D2B6800219868D5
:1014C0000D4CA0472B6800215868A04705B030BDDF
:1014D000E510080000080E40E00A0720E5130800A8
:1014E000DC0A072039130800D80A072000BD0105CF
:1014F0001F09080040010720151708002DE988483A
:10150000384B9847384B9847384B98470D20384E02
:10151000B0470B20B0474FF060515720354CA047E3
:101520004FF060515820A0474FF060515920A0471C
:101530004FF060515C20A0472F4D4FF000724FF0EC
:10154000006128462D4CA0474FF080624FF00061AB
:101550002846A0474FF0006211462846A0474FF0AA
:1015600080524FF000612846A0471820B047244C15
:101570002046244B9847244B984701232360DFF8EB
:10158000A0904FF0807AD346C9F834B01F4D28465A
:101590001F4CA047C9F830A02846A04700210846A4
:1015A000DFF88080C047F0214FF4B470194FB8477E
:1015B0004FF49631F820184EB04700210846C04736
:1015C0004FF4A071F020B8474FF496314EF2070067
:1015D000B0471248A0472222094BDA602846A047AC
:1015E000D2E700BF4D0C0800B10C080081140800C0
:1015F000E5100800F10D0800000E0E40510D080026
:10160000008000408D060800B1030800C0C62D0010
:1016100001000720B102080001030800C0270900EB
:1016200000120E409102080070B50F4E0F4D761B50
:10163000B61018BF002405D0013455F8043B984774
:10164000A642F9D10A4E0B4D01F05CF8761BB6109C
:1016500018BF002406D0013455F8043B9847A64231
:10166000F9D170BD70BD00BF102708001027080019
:10167000182708001027080070B4860746D0541EAB
:10168000002A41D0CAB2034602E014F1FF343BD332
:1016900003F8012B9D07F8D1032C2ED9CDB245EAD2
:1016A00005250F2C45EA054519D9264603F11002F8
:1016B000103E0F2E42F8105C42F80C5C42F8085CB9
:1016C00042F8045C02F11002F2D8A4F1100222F0F8
:1016D0000F0204F00F041032032C13440DD91E46E0
:1016E0002246043A032A46F8045BFAD8221F22F065
:1016F00003020432134404F003042CB1C9B21C44A5
:1017000003F8011B9C42FBD170BC70471446034692
:10171000C2E700BF00290CBF022200224FF4806301
:1017200000F000B82DE9F043614D83B02D68044608
:101730000F4690461E4615B1AB6B002B64D0B8F136
:10174000020F06D0B8F1010F00F29F80002EC0F208
:101750009C80636ED80734D52146284600F056F9A0
:10176000216B41B104F14003994202D0284600F0B8
:101770004BFA002323630022B4F90C30A2616260AB
:101780001A063AD423F44A6323F00303B8F1020F94
:10179000A3811DD001AB6A462146284600F04AFBD2
:1017A000A3891843A081002E32D1009E304600F05C
:1017B0006FFB074600286BD0A38943F08003A38109
:1017C00028E0A3899905C7D4A06D00F02FFBC3E7DB
:1017D000002500260120616E04F1430243F002035C
:1017E000A660CE07A38160612260226101D49805C2
:1017F0003ED5284603B0BDE8F0832169284600F0B5
:1018000003FAB4F90C30BDE7284600F057F996E723
:10181000002FCBD0AB6B002B33D0009BB4F90C2046
:101820009E421CBF42F40062A281B8F1010F04BFC6
:1018300042F00102A28192B212F0080327602761F0
:1018400066610ED0D1071AD50023656E764215F079
:101850000105A661A36009D00025284603B0BDE8B4
:10186000F083A360656E15F00105F5D19305C0D432
:10187000A06D00F0DDFA284603B0BDE8F083A66055
:10188000F0E7284600F01AF9C7E74FF0FF35B0E758
:10189000DDF80090B14504D0484600F0F9FA07465B
:1018A00020B9B4F90C304FF0FF3592E74E4683E78C
:1018B00040010720024B13B1024800F005B8704701
:1018C00000000000351B0800002301461A46184698
:1018D00000F000BEB1F90C302DE9F0419AB20D468E
:1018E000110780463AD46A6843F40063002AAB814A
:1018F00070DDAC6A002C4AD000229BB2D8F80060A0
:10190000C8F8002013F4805268D02A6D5F0705D50F
:1019100069682B6B521A0BB1EB6BD21A0023E96981
:101920004046A047441C3DD00021B5F90C302A693F
:1019300023F40063AB81DB0469602A6048D4296B1F
:10194000C8F8006019B305F14003994202D040463F
:1019500000F05AF900202863BDE8F0812E69B6B185
:10196000910718BF00232C6808BF6B692E60A41B69
:10197000AB600AE0234632466F6AE9694046B847E1
:101980000028A4EB0004064404DD002CF2DC002057
:10199000BDE8F081AB894FF0FF3043F04003AB81ED
:1019A000BDE8F081D8F800401D2CF3D8164BE34079
:1019B000DB4313F00103EDD1B5F90C20296922F4C2
:1019C0000062AA81D2046B602960B8D5002CB6D120
:1019D0002865B4E7EA6B002A8BDCD8E70123E969C4
:1019E0004046A047431C024602D0AB89AC6A8DE753
:1019F000D8F80030002BF8D01D2B01D0162BC9D100
:101A0000C8F80060C3E700BF0100402038B50D46AC
:101A1000044608B1836BBBB1B5F90C0088B16B6E9D
:101A2000DB0701D4810517D520462946FFF752FF71
:101A30006B6E0446DA0702D4AB899B0507D52046B6
:101A400038BD0446204638BD00F038F8E4E7A86DFC
:101A500000F0EEF9204638BDA86D00F0E7F9E3E7A5
:101A6000014900F0B7B900BFBD250800002310B53B
:101A700004468181C28103604360836043660361E1
:101A800043618361194608225C30FFF7F5FD074882
:101A90000749084A084B2062E4616162A262E3627E
:101AA00004F15800BDE8104000F0BCB92124080042
:101AB0004524080081240800A124080010B504462C
:101AC000144800F0B3F9A26BFAB90320124904F5E7
:101AD0003B73C4F8E832C4F8E022C4F8E402E163DE
:101AE00060680421FFF7C2FFA06801220921FFF707
:101AF000BDFFE06802221221FFF7B8FF012305486D
:101B0000A363BDE8104000F093B90248BDE810405F
:101B100000F08EB9F00A0720611A0800014800F0B1
:101B200085B900BF040B0720014800F081B900BF50
:101B3000040B072038B50A4C0A4D641BA4100AD0C8
:101B400004F18043013B05EB8305013C55F8043962
:101B50009847002CF9D1BDE8384000F0DDBD00BF4A
:101B60002827080024270800F8B50C46234F06460E
:101B700000F038FCBB68C4F57E615D680F3125F06C
:101B80000305294421F47F6121F00F01A1F5805460
:101B9000B4F5805F07DB0021304600F02FFCBB6806
:101BA0002B44984204D0304600F022FC0020F8BDBF
:101BB0006142304600F022FC01300DD0104BBA6873
:101BC00019682D1B45F001053046091B5560196049
:101BD00000F00EFC0120F8BD0021304600F00EFCA4
:101BE000BA68831A0F2BDEDD064C0549246843F0E2
:101BF0000103001B53600860D5E700BF7405072090
:101C0000A40A07207C090720002944D02DE9F041CF
:101C10000D46804600F0E6FB55F8047C6949A5F1C5
:101C2000080427F00103E2188E685068B24220F0E1
:101C300003005ED0FE0750600BD455F8087C01F11C
:101C4000080EE41BA5683B4475456DD0E768EF605E
:101C5000BD6015186D68ED073ED543F00102626066
:101C6000E350B3F5007F17D20122DB0898104D68CE
:101C7000134451F83370824001EBC3002A43083803
:101C8000E060A7604A6041F83340FC604046BDE830
:101C9000F04100F0ADBB70475A0A042A52D89A09A5
:101CA00002F13907FF0002F13805C819CA5908388E
:101CB00090424FD0516821F003018B4232D292689A
:101CC0009042F7D1C368A060E3609C60C460404666
:101CD000BDE8F04100F08CBB95683B4F0344BD422A
:101CE00040D0D06843F00102E86085606260E35054
:101CF000B7E7FF07034407D455F8085C641BE268A4
:101D0000A0682B44C2609060304A43F00100126822
:101D1000606093428C60B9D32D4B40461968FFF741
:101D200023FFB3E71046CDE711184968C90744D42B
:101D300091680344D26843F00100CA60916060601A
:101D4000E350A3E7142A16D802F15C07FF0002F162
:101D50005B05AAE70123AA104D6893402B434B6013
:101D60000346B0E743F001024C610C61E560A560F9
:101D70006260E3508AE7542A06D81A0B02F16F0713
:101D8000FF0002F16E0590E7B2F5AA7F06D8DA0BE4
:101D900002F17807FF0002F1770586E740F2545020
:101DA000824206D89A0C02F17D07FF0002F17C0501
:101DB0007BE74FF47E777E2577E743F00101616092
:101DC000136063E7740507207C050720800907205E
:101DD000D40A07202DE9F84310F538761ED088463E
:101DE00007464FF000097568B468013D10D4A38917
:101DF000013D012B08D9B4F90E30013304D021463E
:101E00003846C04749EA00096B1C04F16804EED16A
:101E10003668002EE7D14846BDE8F883B14648460B
:101E2000BDE8F883704700BF704700BF704700BF30
:101E3000704700BF70B50C46B1F90E1090B0002984
:101E400015461E4614DB01AA00F01AFC00280FDB21
:101E5000029A4FF4806302F47042A2F50052B2FA83
:101E600082F24FF40060520932602B6010B070BDF6
:101E70000023A289336012F0800004D0402218466B
:101E80002A6010B070BD4FF480632B6010B070BD3D
:101E9000024B0146186800F003B800BF400107205C
:101EA0002DE9F04F01F10B06162E83B0054640F2E6
:101EB0009E8036F0070600F1BD80B14200F2BA8084
:101EC00000F090FAB6F5FC7FC0F08582730A00F04E
:101ED000B880042B00F26C81B30903F1390003F1DF
:101EE000380EC100B84F39444C680839A14206D1B8
:101EF0000CE0002A80F2AB80E468A14206D063685F
:101F000023F003039A1B0F2AF3DD70463C69DFF8C8
:101F1000CCE2744500F09E81636823F003039A1BB2
:101F20000F2A00F38381002AC7F814E0C7F810E0F5
:101F300080F29180B3F5007F80F054810122DB08AC
:101F400079684FEAA30C134457F8338002FA0CF275
:101F500007EBC30C0A43ACF10801E160C4F8088048
:101F60007A6047F83340C8F80C40012483109C4045
:101F700094427DD8144206D120F00300640014423C
:101F800000F10400FAD007EBC009CC468046DCF82B
:101F90000C309C4507D15FE1002A80F26D81DB683F
:101FA0009C4500F05981596821F003018A1B0F2AD2
:101FB000F2DDDC68D3F808C046F0010828461E446C
:101FC00042F00105C3F80480CCF80C40C4F808C006
:101FD0007E613E61C6F80CE0C6F808E075605A50B4
:101FE000009300F005FA009B03F108041EE010299D
:101FF00020D800F0F7F9102618230220724F3B4436
:102000005C68A3F10802944200F02F816368E168E4
:1020100023F0030323445A68A66842F00102F160EA
:1020200028468E605A6000F0E3F90834204603B079
:10203000BDE8F08F00240C2320462B6003B0BDE8E0
:10204000F08F40204FF400714FF03F0E4AE72344D9
:102050005A68E168E0E723445A68284642F00102E2
:102060005A60083400F0C4F9204603B0BDE8F08F90
:10207000BC68636823F00308B04504D3A8EB0603EB
:102080000F2B00F38580DFF85891504BD9F80020D2
:102090001B680132334404EB080A00F0548103F555
:1020A00080530F3323F47F6B2BF00F0B59462846D8
:1020B00000F0A4F9411C024600F0FB80824500F2CA
:1020C000F680434B19685944196000F04C81D9F8E7
:1020D000000001301BBFA2EB0A0A5144C9F80020DE
:1020E000196012F0070100F01481C1F10800C1F578
:1020F00080510244083102EB0B09C9F30B09A1EB33
:102100000909494628460193009200F077F9431CDB
:102110009DE80C0000F04281801A484440F0010024
:102120001968BC424944BA601960506017D0B8F1D0
:102130000F0F40F2FA804FF0050C6268A8F10C0016
:1021400020F0070002F0010204EB000E02430F280A
:102150006260CEF804C0CEF808C000F216811D4BB4
:10216000BC681A68914288BF19601B4B1A6891427B
:10217000626888BF196022F003029642A2EB060350
:1021800001D80F2B04DC284600F032F900244DE77B
:1021900046F0010243F00103264462602846BE6017
:1021A0000834736000F024F9204603B0BDE8F08FD6
:1021B000142B70D9542B00F2A280330B03F16F0063
:1021C00003F16E0EC1008DE674050720D40A0720C6
:1021D000A40A0720CC0A0720D00A07207C05072084
:1021E0007C0907205A0A042A5BD9142A00F2AE801F
:1021F00002F15C01C9005B3207EB010C7958ACF1CC
:10220000080C8C4500F088804A6822F00302934253
:1022100073D289688C45F7D1DCF80C307A68E360BA
:10222000C4F808C09C60CCF80C409EE646F0010C57
:1022300042F001012644C4F804C028467E613E6194
:10224000C6F80CE0C6F808E07160E25000F0D0F883
:102250000834EBE67A6888E608F1010818F0030F05
:102260000CF1080C7FF493AE2DE0DC68A34208BFAC
:1022700002303FF44BAEC9E61C4619444A68DB689D
:1022800054F8086F42F001024A602846F3609E60ED
:1022900000F0AEF8CAE603F15C0003F15B0EC1008A
:1022A00020E69A0902F13901C9003832A4E7BC429C
:1022B00054D0BC68626822F003025EE759F808391E
:1022C000994540F0868010F0030F00F1FF30F5D102
:1022D0007B6823EA04037B6064009C423FF6C8AE3F
:1022E000002C3FF4C5AE1C4240467FF44CAE640067
:1022F0001C4200F10400FAD045E68C468CE7B3F5A9
:10230000AA7F15D8F30B03F1780003F1770EC10013
:10231000E8E54FF48051EEE601217B68921001FA66
:1023200002F21A437A60634679E7012353602AE791
:1023300040F25452934222D8B30C03F17D0003F1D2
:102340007C0EC100CEE503F1100BAFE6542A29D86C
:102350001A0B02F16F01C9006E324DE7204B19686C
:1023600059441960B3E6CAF30B0000287FF4AFAEFE
:1023700008EB0B03BA6843F001035360EFE67F20DC
:102380004FF47E714FF07E0EACE504F10801284653
:102390000093FFF739FC009B1968E0E601204FF03D
:1023A0000009BDE6B2F5AA7F05D8DA0B02F1780183
:1023B000C900773220E740F254518A4205D89A0C7E
:1023C00002F17D01C9007C3216E74FF47E717E2256
:1023D00012E77B6880E7F00806F108030EE600BF0D
:1023E000A40A07200148FFF721BD00BFF40A072017
:1023F0000148FFF71DBD00BFF40A072038B50023D0
:10240000064C054608462360FEF770FF431C00D0CB
:1024100038BD2368002BFBD02B6038BD080B07208C
:1024200010B50C46B1F90E1000F054F9002803DB8A
:10243000236D0344236510BDA38923F48053A38136
:1024400010BD00BF2DE9F0410C46B1F90C101F463C
:10245000CB051646054607D5B4F90E100223002217
:1024600000F022F9B4F90C1021F48051A1813B460F
:102470003246B4F90E102846BDE8F04100F014B819
:1024800010B50C46B1F90E1000F00EF9A389421CEC
:102490000EBF23F4805343F480532065A38110BD05
:1024A000B1F90E1000F078B8F8B50E460025084CCA
:1024B000114607461A4630462560FEF76FF9431C61
:1024C00000D0F8BD2368002BFBD03B60F8BD00BFF7
:1024D000080B07202DE9F8432C4D0646286898463E
:1024E0000F469146FFF7A2FC294B1C68D4F84831EF
:1024F000002B3ED05A681F2A1CDC02F1010E76B177
:10250000012103EB8204C4F88890D3F8880191403C
:102510000843022EC3F88801C4F8088123D0023290
:10252000C3F804E0286843F82270FFF781FC00201C
:10253000BDE8F883174B0BB34FF4C870FFF7A8FC46
:102540000346D8B10020D4F848114FF0010E58606E
:1025500019600246C4F84831C3F88801C3F88C01F9
:10256000002EDCD0CCE7D3F88C010143C3F88C11EA
:10257000D5E704F5A673C4F84831BBE72868FFF730
:1025800057FC4FF0FF30BDE8F88300BF700507200F
:1025900000270800911E080038B50023064C0546A8
:1025A00008462360FEF7BEFE431C00D038BD2368FA
:1025B000002BFBD02B6038BD080B072070B559B13C
:1025C00005460C4610B1836B002B3CD0636ED807D8
:1025D00005D5B4F90C302BB90026304670BDA3895F
:1025E00099053CD521462846FFF774F9E36A06466B
:1025F00033B1E169284698470028B8BF4FF0FF364D
:10260000A3891A0622D4216B41B104F140039942F7
:1026100002D02846FFF7F8FA00232363616C21B14A
:102620002846FFF7F1FA00236364FFF777FA0022E8
:10263000636EA281DB070ED5A06DFFF7F5FBFFF7F8
:1026400073FA304670BDFFF739FABFE721692846B3
:10265000FFF7DAFAD7E7A06DFFF7EAFBECE7A06D2A
:10266000FFF7E4FBB4F90C30002BBBD1666E16F01B
:102670000106B1D1A06DFFF7DBFB304670BD00BF96
:1026800070B50D460023074C0646114628462360C8
:10269000FEF74BFE431C00D070BD2368002BFBD01F
:1026A000336070BD080B0720F8B50E460025084CB6
:1026B000114607461A4630462560FEF73BFE431C8E
:1026C00000D0F8BD2368002BFBD03B60F8BD00BFF5
:1026D000080B0720F8B50E460025084C11460746A2
:1026E0001A4630462560FEF73BF8431C00D0F8BD83
:1026F0002368002BFBD03B60F8BD00BF080B072010
:1027000048010720F8B500BFF8BC08BC9E467047DA
:10271000B518080019010800F8B500BFF8BC08BCDE
:082720009E467047F500080019
:10272800BFF35F8F0138FBD1704700004FF480631F
:10273800204A136002F5007213601F4B1B6A13F0E6
:10274800807F07D11D4A1C4B1A621A46936E13F0FC
:10275800010FFBD01A4A184B1A621A46936E13F4EB
:10276800803FFBD0144A136B23F0030343F00103AB
:102778001363936E13F0080FFBD0124A0E4B9A6244
:102788001A46936E13F0020FFBD011220A4B1A63FC
:102798001A46936E13F0080FFBD01222064B1A63E9
:1027A8001A46936E13F0080FFBD0074A074B1A60BE
:1027B800704700BF000A0E4000060E4009083700A7
:1027C80009083701013F0D2000BD01053C01072024
:1027D8001B4B984215D91B4B984219D91A4B984252
:1027E8001ED91A4B984223D9194B984294BF4FF4DB
:1027F80080634FF4A063174A136002F500721360F8
:1028080070470023134A136002F500721360704783
:102818004FF480730F4A136002F50072136070471B
:102828004FF400730B4A136002F50072136070478F
:102838004FF44073074A136002F500721360704743
:10284800BFEA21017FF0FA02FF8FD003FFB3C4046F
:102858007F4A5D05000A0E40FFFFFFFF00093D00AB
:102868004801072000000000000000003404072091
:102878009C04072004050720000000000000000059
:102888000000000000000000000000000000000040
:102898000000000000000000000000000000000030
:1028A8000000000000000000000000000000000020
:1028B8000000000000000000000000000000000010
:1028C8000000000000000000000000000000000000
:1028D80000000000000000000000000000000000F0
:1028E80000000000000000000000000000000000E0
:1028F80000000000000000000000000000000000D0
:1029080000000000000000000000000000000000BF
:1029180001000000000000000E33CDAB34126DE65C
:10292800ECDE05000B0000000000000000000000C5
:10293800000000000000000000000000000000008F
:10294800000000000000000000000000000000007F
:10295800000000000000000000000000000000006F
:10296800000000000000000000000000000000005F
:102C9800E40A072000000000000000007405072077
:102CA800740507207C0507207C050720840507207C
:102CB800840507208C0507208C050720940507202C
:102CC800940507209C0507209C050720A4050720DC
:102CD800A4050720AC050720AC050720B40507208C
:102CE800B4050720BC050720BC050720C40507203C
:102CF800C4050720CC050720CC050720D4050720EC
:102D0800D4050720DC050720DC050720E40507209B
:102D1800E4050720EC050720EC050720F40507204B
:102D2800F4050720FC050720FC05072004060720FA
:102D3800040607200C0607200C06072014060720A7
:102D4800140607201C0607201C0607202406072057
:102D5800240607202C0607202C0607203406072007
:102D6800340607203C0607203C06072044060720B7
:102D7800440607204C0607204C0607205406072067
:102D8800540607205C0607205C0607206406072017
:102D9800640607206C0607206C06072074060720C7
:102DA800740607207C0607207C0607208406072077
:102DB800840607208C0607208C0607209406072027
:102DC800940607209C0607209C060720A4060720D7
:102DD800A4060720AC060720AC060720B406072087
:102DE800B4060720BC060720BC060720C406072037
:102DF800C4060720CC060720CC060720D4060720E7
:102E0800D4060720DC060720DC060720E406072096
:102E1800E4060720EC060720EC060720F406072046
:102E2800F4060720FC060720FC06072004070720F5
:102E3800040707200C0707200C07072014070720A2
:102E4800140707201C0707201C0707202407072052
:102E5800240707202C0707202C0707203407072002
:102E6800340707203C0707203C07072044070720B2
:102E7800440707204C0707204C0707205407072062
:102E8800540707205C0707205C0707206407072012
:102E9800640707206C0707206C07072074070720C2
:102EA800740707207C0707207C0707208407072072
:102EB800840707208C0707208C0707209407072022
:102EC800940707209C0707209C070720A4070720D2
:102ED800A4070720AC070720AC070720B407072082
:102EE800B4070720BC070720BC070720C407072032
:102EF800C4070720CC070720CC070720D4070720E2
:102F0800D4070720DC070720DC070720E407072091
:102F1800E4070720EC070720EC070720F407072041
:102F2800F4070720FC070720FC07072004080720F0
:102F3800040807200C0807200C080720140807209D
:102F4800140807201C0807201C080720240807204D
:102F5800240807202C0807202C08072034080720FD
:102F6800340807203C0807203C08072044080720AD
:102F7800440807204C0807204C080720540807205D
:102F8800540807205C0807205C080720640807200D
:102F9800640807206C0807206C08072074080720BD
:102FA800740807207C0807207C080720840807206D
:102FB800840807208C0807208C080720940807201D
:102FC800940807209C0807209C080720A4080720CD
:102FD800A4080720AC080720AC080720B40807207D
:102FE800B4080720BC080720BC080720C40807202D
:102FF800C4080720CC080720CC080720D4080720DD
:10300800D4080720DC080720DC080720E40807208C
:10301800E4080720EC080720EC080720F40807203C
:10302800F4080720FC080720FC08072004090720EB
:10303800040907200C0907200C0907201409072098
:10304800140907201C0907201C0907202409072048
:10305800240907202C0907202C09072034090720F8
:10306800340907203C0907203C09072044090720A8
:10307800440907204C0907204C0907205409072058
:10308800540907205C0907205C0907206409072008
:10309800640907206C0907206C090720FFFFFFFF60
:0430A8000000020022
:040000038000113D2B
:00000001FF
