:0200000280007C
:1000000038330720412708003D2708003D27080016
:100010003D2708003D2708003D270800000000009C
:10002000000000000000000000000000E91F0800C0
:100030003D27080000000000212008005D20080086
:100040003D2708003D2708003D2708003D27080000
:100050003D2708003D2708003D2708003D270800F0
:100060003D2708003D27080000000000B1250800DA
:10007000C5250800D9250800ED250800000000006E
:10008000000000003D2708003D2708003D2708002C
:100090003D2708003D2708003D2708003D270800B0
:1000A0003D270800000000003D2708003D2708000C
:1000B0003D2708003D2708003D2708003D27080090
:1000C0003D2708003D2708003D2708003D27080080
:1000D0003D2708003D2708003D2708003D27080070
:1000E0003D2708003D2708003D2708003D27080060
:1000F0003D27080010B5054C237833B9044B13B1E4
:100100000448AFF300800123237010BD1C0A0720B0
:10011000000000002C5B08000C4B43B10C4810B5EC
:100120000C49AFF300800C48036823B910BD0A489E
:10013000036833B97047094B002BF7D0BDE8104076
:100140001847064B002BF5D0184700BF00000000F1
:100150002C5B0800200A07202C5B08000000000030
:100160000B4B4FF400025A634FF080525A63094A16
:10017000136913F4007FFBD0064BD8601A4613694D
:1001800013F4007FFBD04FF40002014B1A63704759
:1001900000120E400080004010B504462A20354B66
:1001A0009847354BB3F90010C1F30720334A136960
:1001B00013F4007FFBD0314BD860C9B21A461369E3
:1001C00013F4007FFBD02D4BD9609CB12C4BB3F9BD
:1001D0000010C1F30720294A136913F4007FFBD0F4
:1001E000264BD860C9B21A46136913F4007FFBD0BE
:1001F000224BD960214A136913F4007FFBD04FF0E2
:100200008052204B1A632B201A4B98471E4BB3F990
:100210000010C1F30720194A136913F4007FFBD0C3
:10022000164BD860C9B21A46136913F4007FFBD08D
:10023000124BD9609CB1154BB3F90010C1F30720E4
:100240000E4A136913F4007FFBD00C4BD860C9B27F
:100250001A46136913F4007FFBD0084BD960074A94
:10026000136913F4007FFBD04FF08052054B1A63E3
:1002700010BD00BF610108003C0A0720008000405B
:10028000380A072000120E403E0A07203A0A0720CB
:1002900008B5044B1880044B19800020034B984785
:1002A00008BD00BF3C0A07203E0A0720990108004C
:1002B00008B5044B1880044B19800120034B984764
:1002C00008BD00BF380A07203A0A07209901080034
:1002D00010B5064C20800648018006490A80064A6F
:1002E00013800120054B984710BD00BF3C0A072032
:1002F0003E0A0720380A07203A0A07209901080019
:1003000010B504462C200E4B9847E1B20D4A1369F4
:1003100013F4007FFBD00B4BD960240A1A461369F3
:1003200013F4007FFBD0074BDC601A46136913F40B
:10033000007FFBD04FF08052034B1A6310BD00BF0B
:10034000610108000080004000120E4070B50446B4
:100350000E462C20104B9847A6B1751EA01E0F4BC1
:1003600081781A6912F4007FFBD0D96030F8021F3F
:10037000090A1A6912F4007FFBD0D960013DB5F17A
:10038000FF3FEDD1054A136913F4007FFBD04FF016
:100390008052034B1A6370BD610108000080004069
:1003A00000120E4038B504460D462C200F4B9847DE
:1003B0008DB1691E250AE4B20D4B1A6912F4007F53
:1003C000FBD0DC601A6912F4007FFBD0DD600139DC
:1003D000B1F1FF3FF1D1064A136913F4007FFBD05E
:1003E0004FF08052034B1A6338BD00BF6101080013
:1003F0000080004000120E4010B580F0050000F0B3
:100400000103002B0CBF4824082410F0020F18BF72
:1004100044F0800410F0040F18BF44F0200436208C
:10042000094B9847094A136913F4007FFBD0074B27
:10043000DC601A46136913F4007FFBD04FF0805242
:10044000034B1A6310BD00BF61010800008000402B
:1004500000120E402DE9F04184B0002504AE46F8AC
:10046000045DA64C2046A64B98470095A54B2A460E
:1004700031462046A44EB04701232360E56004F5D1
:10048000592404F500744FF0007626634EF6602080
:100490009E4DA84766634EF66020A8472663DFF8A6
:1004A0007C824046A8471120994EB0474FF08057B4
:1004B00027634046A8472920B0472763CD20B0478F
:1004C0008E4A136913F4007FFBD039228B4BDA601C
:1004D0001A46136913F4007FFBD02C22874BDA6095
:1004E0001A46136913F4007FFBD00022834BDA60B5
:1004F0001A46136913F4007FFBD034227F4BDA6075
:100500001A46136913F4007FFBD002227B4BDA609A
:100510001A46136913F4007FFBD04FF080527D4BD5
:100520001A63CF207A4B9847744A136913F4007FFB
:10053000FBD00022714BDA601A46136913F4007F76
:10054000FBD0AA226D4BDA601A46136913F4007FC0
:10055000FBD0B022694BDA601A46136913F4007FAE
:10056000FBD04FF080526B4B1A63F720684B9847D3
:10057000624A136913F4007FFBD030225F4BDA60CC
:100580001A46136913F4007FFBD04FF08052614B81
:100590001A63C0205E4B9847584A136913F4007FD2
:1005A000FBD02522554BDA601A46136913F4007FFD
:1005B000FBD04FF08052574B1A63C120544B9847E1
:1005C0004E4A136913F4007FFBD011224B4BDA60C3
:1005D0001A46136913F4007FFBD04FF080524D4B45
:1005E0001A63C5204A4B9847444A136913F4007FA5
:1005F000FBD05C22414BDA601A46136913F4007F8A
:10060000FBD04C223D4BDA601A46136913F4007F8D
:10061000FBD04FF080523F4B1A63C7203C4B9847AA
:10062000364A136913F4007FFBD09422334BDA600F
:100630001A46136913F4007FFBD04FF08052354BFC
:100640001A63E820324B98472C4A136913F4007F51
:10065000FBD08522294BDA601A46136913F4007F18
:10066000FBD00122254BDA601A46136913F4007F90
:10067000FBD07822214BDA601A46136913F4007F0D
:10068000FBD04FF08052234B1A63EA20204B98474F
:100690001A4A136913F4007FFBD00022174BDA606B
:1006A0001A46136913F4007FFBD00022134BDA6063
:1006B0001A46136913F4007FFBD04FF08052154B9C
:1006C0001A633A20124B98470C4A136913F4007FBF
:1006D000FBD00522094BDA601A46136913F4007F38
:1006E000FBD04FF080520B4B1A6300200A4B984707
:1006F000F0234FF4A0720021084611E00080004072
:10070000E50D080000127A00390E080001000720EC
:100710006101080000120E40F9030800A0BB0D00A3
:10072000024CA04704B0BDE8F08100BFD102080030
:1007300010B420EAE07021EAE1710D4CB4F90040F8
:100740009442DCBF04F1FF3212B20A4CB4F900400B
:100750009C42DCBF04F1FF3423B2074C20800748E1
:10076000018007490A80074A138010BC704700BF08
:10077000F4120720FE120720F8120720FC120720AF
:10078000F6120720FA120720014BB3F90000704758
:10079000F4120720014BB3F900007047FE12072046
:1007A000002A5CD0F8B51C461546002B48D0002A1C
:1007B00047DB002C4CDB2A4BB3F90060B0423FDC36
:1007C000284BB3F90070B9423ADC274BB3F900303B
:1007D00042199A4234DD254AB2F9002001EB040E99
:1007E00096452DDD984203DA0544ED1A2DB21846E0
:1007F000914203DA0C44A41A24B211461FFA80FC79
:100800000CEB0502013A12B21FFA81FE0EEB040353
:10081000013B1BB2964204DA751CA5EB0C052DB208
:1008200032469F4204DA7C1CA4EB0E0424B23B4601
:100830000F4EB04704FB05F1BDF818000D4B98476B
:10084000F8BD93B25D422DB20130184400B2B0E75A
:10085000A3B25C4224B20131194409B2ABE770473C
:10086000F6120720FA120720F8120720FC120720C0
:10087000D1020800A50308002DE9F04F83B0BDF9AF
:100880003050BDF93440BDF93860002C68D088463E
:100890001F46002E64D0554BB3F90030BB425FDBDE
:1008A0005349B1F900E0AE455ADB5249B1F90010A5
:1008B00007EB040C8C4553DDDFF850C1BCF900C0D8
:1008C00005EB0609E1454BDD8F420CDABFB21FFA9A
:1008D00081F9A7EB090A544424B2C844A8EB0708DD
:1008E0000FFA88F80F4665450ADAADB21FFA8CF1A7
:1008F000A5EB01094E4436B20A44521B12B26546BA
:100900001FFA87FA0AEB040C0CF1FF3C0FFA8CFC7F
:100910001FFA85F909EB0601013909B2634504DACA
:100920005C1CA4EB0A0424B29C468E4505DA0EF149
:100930000106A6EB090636B271460379032B0FD8E0
:10094000DFE803F002202011A1EB0903ACEB0A025F
:10095000018900911BB212B229463846264CA047A5
:1009600003B0BDE8F08F254B1C68002CF8D0ACEB31
:100970000A03A1EB090212B200921BB22A463946C1
:10098000A047EDE7B0F900A0836803EB480B002A0D
:10099000C4BF4FEA4A0302FB03BB6046184B9847AB
:1009A000544515D0002EDBDD4FEA4A0A4E4436B2DC
:1009B000DFF85090DFF8508029463846C8470135A7
:1009C0002DB221465846C047D344B542F4D1C7E7BB
:1009D000B8F1000FE6D1294638460A4B984706FB86
:1009E00004F15846084B9847BAE700BFF6120720B3
:1009F000FA120720F8120720A1070800400A072072
:100A0000B1020800910208004D030800FC12072003
:100A10002DE9F04F87B08146084611469846BDF94A
:100A200040300493BDF944B0BDF9486099F80430F2
:100A3000D3B1B9F90050B9F90270431B9B4504DCEE
:100A4000AB440FFA8BFB9B45FADDCB1B9E4203DCCC
:100A50003E4436B29E42FBDD049BB34211DBCDF82F
:100A600014B0DFF854A021E0049B9B1A0133A8EBDB
:100A700000020132B9F8084000941BB212B20D4CCA
:100A8000A04707B0BDE8F08F059C0297019500963E
:100A90002346002211464846D0472C4424B2A045A4
:100AA000F3DA3E4436B2049B9E42EADCD845EBDAE8
:100AB000F7E700BFA10708007908080038B50F4C18
:100AC000B4F9004084420EDC0D4BB3F90030834290
:100AD00009DB0C4BB3F900308B4204DC0A4BB3F951
:100AE00000308B4200DA38BD14460B460246074DF3
:100AF000A8472046064B9847F5E700BFF8120720A5
:100B0000F6120720FC120720FA120720D102080073
:100B10000103080070B582B00F4C4FF4A07323801E
:100B20000E4DF0232B800E4B98474FF080720D4BEB
:100B30001A63B5F90030B4F90020002108460A4EC6
:100B4000B047B5F90030B4F900200020009001460C
:100B5000064CA04702B070BDF4120720FE12072019
:100B60005504080000120E4031070800A1070800D4
:100B70002DE9F04F85B004460F4691469A46BDF8E0
:100B80003810BDF83C30029341F6F063994208D02A
:100B90009AF809309AF80820009149463846264DBF
:100BA000A8479AF8003013B105B0BDE8F08F9AF865
:100BB0000830DA0813F0070F18BF01329AF809302D
:100BC0009AF80A80A4EB080808FB03F808FB02F86F
:100BD0001FFA88F8DAF804209044013BDBB209F1EF
:100BE000010213449BB20393DFF850B01CE0640091
:100BF000E4B20135EBB29E420DD9E81900B215F00E
:100C0000070F08BF18F8014B14F0800FEFD0029ABD
:100C10004946D847EBE709F101091FFA89F30FFAB2
:100C200083F9039A9A42BFD09AF80860002EF2D056
:100C300000252C46E1E700BFA1070800BD0A080017
:100C4000F0B50F7A91F809E00FFA8EF50021012630
:100C50008C4605E075442DB2614610F8014F54B141
:100C600004780A2CF6D00D2CF7D0394409B28E4204
:100C7000B8BF0E46F1E716801D80F0BD2DE9F04F9C
:100C800087B00646039190461F46BDF84090BDF8D8
:100C900044A09DF848409DF84C30029305AB0DF1FF
:100CA00016023946444DA84714F0020F19D0BDF979
:100CB000143003EBD373A8EB63080FFA88F814F031
:100CC000100F18D0BDF9163003EBD373039AA2EBC3
:100CD00063031BB203933378002B6AD0DFF8DCB0D8
:100CE00064E014F0040FEAD0BDF81430A8EB030858
:100CF0000FFA88F8E3E714F0200FECD0BDF81630B7
:100D0000039AD31A1BB20393E5E70135029A022A2C
:100D100014D0029A012A21D0039C4B46A9461D46B5
:100D200029E015F8012F002AF0D02A780A2AECD001
:100D30000D2AF6D03A7A13441BB2F2E7BDF9162019
:100D400002EBD274039A02EB640403EBD373A4EBBB
:100D5000630424B24B46A9461D460CE0BDF816407C
:100D6000039A1444E41A24B24B46A9461D4602E0F5
:100D700016F8013F7BB130780A280CD00D28F7D047
:100D8000CDF804A000953B4642462146D8473B7A21
:100D90001C4424B2ECE72B464D4699467B7A01333E
:100DA00098440FFA88F82B781BB12E46354600235D
:100DB000BBE707B0BDE8F08F410C0800710B0800DD
:100DC00010B584B00024039408240294BDF81C409C
:100DD0000194BDF818400094014CA04704B010BD28
:100DE0007D0C080010B50446104B98478023236003
:100DF000636843F001036360636843F0100363605A
:100E0000636823F08003636000212046084B984705
:100E1000636823F002036360636823F00403636084
:100E200000212046034B984710BD00BFF11D08006C
:100E30000D1E0800231E08002DE9F04104460D4652
:100E4000164615491846154B9847074600231A467B
:100E500029682046DFF85C80C047082229682046C0
:100E60000F4B9847FAB2296820460E4B9847082244
:100E7000296820460C4B98477208296820460B4B7E
:100E8000984786F0010202F0010229682046084BCB
:100E90009847BDE8F08100BF00BD0105CB1E0800EA
:100EA000B71E0800E11E0800711E0800351E08006C
:100EB000531E0800071F0800034693F8280010B1CE
:100EC0009B69002BF9D17047036A98420FD0826961
:100ED000516A884208BF5362036AC269DA61C36912
:100EE000026A1A62002383610362C36170478369E7
:100EF00000225A62F6E7436A4BB10B62426AD2693A
:100F0000CA61D961CB69196241628861704709621F
:100F1000C961F9E708B5C3680BB1984708BD00205F
:100F200008BD0000F0B482B0EFF31083B3FA83F38E
:100F30005B09019372B6BFF35F8F0022164B1A70E4
:100F4000019F164B1C7C6CB9154A13680133136062
:100F50002FB10122104B1A70BFF35F8F62B602B03F
:100F6000F0BC70470D4AD368526893420FD01033DB
:100F70000A4AD360094EF5680FC885E80F000023C0
:100F80002B80013C3474737C01337374E0E7034BB2
:100F90001A68DA60EEE700BFC0010720440A0720A4
:100FA000A00B0720F0B585B005460E46B1F90A3012
:100FB000B1F90820B1F90610B6F90400154CA047A4
:100FC000A86880B1B6F90830B6F90620B6F9041061
:100FD000B6F902400294B6F900400194B6F90A400D
:100FE00000940D4CA0473246072128460B4B9847EA
:100FF0006C6A6CB10A4F02E06B6A9C4208D0E469EB
:1010000094F82830002BF7D031462046B847F3E754
:1010100005B0F0BD31070800110A0800150F0800DF
:1010200025100800F0B585B0048882884688C388FA
:101030000F88E5192DB2ADF80450ADF80850013F06
:101040003C44144422B2ADF80C204F88F41924B269
:10105000ADF80640ADF80A40013F3E4433441BB2B0
:10106000ADF80E30B1F90460B542B8BFADF8086014
:10107000B1F90650AC42B8BFADF80A50B1F908401A
:10108000A242C8BFADF80C40B1F90A209342C8BFD4
:10109000ADF80E20BDF90820BDF90C309A4205DCF0
:1010A000BDF90A20BDF90E309A4201DD05B0F0BD50
:1010B00001A9014B9847F9E7A50F08002DE9F8436E
:1010C000446AACB106464FF00009DFF82C80094FA6
:1010D0002046FFF7F3FF4A4609212046C047256A0C
:1010E0002046B8472C46736A9D42F1D100237362B3
:1010F000BDE8F883191D0800150F080070B5104EE3
:10110000B047104CA080104DA847E0800F4BA36063
:101110000F4A0A2313740F4B13609360903353608C
:10112000D3600D4B1C60B0470C4C00EBD0704010EE
:101130002080A84700EBD0704010608070BD00BFD9
:1011400089070800A80B072095070800D40B072083
:10115000440A0720F80A0720980B07209C0B072059
:1011600000487047A80B07207047704740697047D8
:10117000F8B507460C462C200A4B9847064670B136
:1011800005460FCC0FC594E8030085E80300002353
:1011900086F82830736231463846034B984730460C
:1011A000F8BD00BF991C0800F70E080000B585B017
:1011B00002238DF8023007C804AB03E90700684634
:1011C000024B984705B05DF804FB00BF250F0800EF
:1011D000014B1860704700BFA40B0720B1F9003025
:1011E000B0F904209A4210DCB1F90220B0F90610DF
:1011F00091420CDCB0F9081099420ADBB0F90A0000
:101200009042B4BF002001207047002070470020AA
:1012100070470020704710B4B1F9002003889B1A72
:101220009BB21CB2002C03DD0280828813448380B1
:10123000B1F9022043889B1A9BB21CB2002C03DD3B
:101240004280C2881344C3800B888A881344028872
:101250009B1A9BB282889A1A12B2002AC8BF838056
:101260004B88CA88134442889B1A9BB2C2889A1A38
:1012700012B2002AC8BFC38010BC7047F0B5B1F9E4
:101280000040B0F90850AC4226DCB1F90220B0F9B8
:101290000A60B24222DC8B882344013B1BB2B0F9C6
:1012A0000470BB421CDBB1F806E07244013A12B292
:1012B000B0F906E0724515DBBC42C8BF8480B1F9C5
:1012C00002108E45B8BFC180AB42B8BF0381B242A5
:1012D0000ADA42810120F0BD0020F0BD0020F0BDFF
:1012E0000020F0BD0020F0BD0120F0BD2DE9F0414F
:1012F0000546144600681060286850602B88AA884C
:101300001344013B23816B88EA881344013B6381CA
:1013100020462B4B9847074600284CD0294B9D422E
:1013200049D04FF0000E1E46AD69B4F90430002BD1
:10133000B8BFA4F804E0B4F90630002BB8BFA4F895
:1013400006E0B5F90430B4F908209A42A4BF03F1CD
:10135000FF332381B5F90630B4F90A209A42A4BFBD
:1013600003F1FF336381B4F90420B4F908309A42E1
:1013700020DCB4F90600B4F90A1088421EDCB4F887
:1013800000C0B5F80080C444A4F800C0B5F800C09F
:101390006244A2802A881344238163886A881344A4
:1013A00063806B881844E0806B8819446181B54282
:1013B000BAD100E000273846BDE8F0810027FAE7FF
:1013C0007D120800A80B072070B584B004460D46B6
:1013D00001AA1A4B984798B1A3691BB1237C13F05B
:1013E000020F09D101A92046154B9847154B9C4285
:1013F00006D0154D1E4608E029462046134B984757
:1014000004B070BD1C46B342FAD0BDF80430228847
:101410009B1AADF80430BDF8063062889B1AADF80F
:101420000630A3695A6A9442ECD0E46994F82830F3
:10143000002BF6D001A92046A847F2E7ED120800DC
:10144000A50F0800A80B072025100800511408005C
:1014500010B582B002466B460868496803C39069BC
:10146000BDF90030002B30DBBDF90230002B35DB3D
:10147000BDF90020B0F90410BDF9043013448B42CB
:10148000C4BF891AADF80410BDF90230B0F90640A6
:10149000BDF906101944A142C4BFE41AADF80640D4
:1014A000BDF9041000290EDDBDF9061000290ADD82
:1014B00001880A44ADF8002042881344ADF8023098
:1014C00069460B4B984702B010BDBDF80420134489
:1014D000ADF804300023ADF80030C5E7BDF80620B4
:1014E0001344ADF806300023ADF80230C0E700BF6A
:1014F000C913080090F82830002B2ED0F0B583B027
:101500000446164B984207D0154B9847E8B900237C
:1015100084F8283003B0F0BD002483F82840114E31
:10152000B0470746104DA84703463A462146204695
:101530000E4FB847B0470646A847009403463246C8
:10154000214620460A4CA047E4E7002384F82830CF
:1015500021462046074B9847DCE77047A80B072039
:10156000B90E080089070800950708003107080030
:10157000A10708005114080010B5044690F828305F
:1015800073B92046084B98472046084B98470022DD
:1015900009212046064B98472046064B984710BD28
:1015A000054B9847EDE700BFC90E0800BD100800C5
:1015B000150F0800191D0800F514080070B584B057
:1015C00004460D468DF8072003C804AB03E9030069
:1015D00012F0010F29D100269DF8073013F0020FF9
:1015E00012D0B5F90420B4F904309A4225DBB5F9DC
:1015F0000620B4F906309A42B8BF012668686060D8
:10160000294602A8104B98470DF1070208212046F1
:101610000E4B984720460E4B984720B17EB902A941
:1016200020460C4B984704B070BD286820602946BE
:1016300002A8054B98470126CEE70126DEE702A95E
:101640002046054B9847EEE717120800150F0800D3
:10165000B90E0800C91308005114080030B585B050
:1016600004460B468DF8072003C804AD05E90300C6
:1016700012F0040F1DBF9968A1600125002512F02A
:10168000080F1CBFD968E16012F0100F1CBF197C55
:10169000217412F0200F1CBF5969616112F0030F11
:1016A0000FD10DF1070208212046094B984765B17B
:1016B0002046084B984740B102A92046064B984760
:1016C00003E019462046054B984705B030BD00BFE2
:1016D000150F0800B90E0800C9130800BD15080051
:1016E00010B50446044B984700B910BD214620466A
:1016F000024B9847F9E700BFB90E0800C91308006C
:1017000008B590F8283003B108BD012380F82830CF
:10171000014B9847F8E700BFE116080010B584B008
:101720000C4601AA0146044B9847214601A8034BE9
:10173000984704B010BD00BFED120800DD1108008D
:1017400002FB00F090FBF1F0C0B270470B782BB1B8
:1017500000F8013B11F8013F002BF9D10023037081
:1017600070470000F8B506460C4617461D4B9847D3
:101770000546092C06D8DFE804F02D051C050505F3
:1017800005070513002426E003689E4201D00124CA
:1017900021E0C3680BB339463046984701241AE06C
:1017A00003689E4218BF012415D10F4B98470124AE
:1017B00011E003689E4201D000240CE0436873B13D
:1017C00039469847044608B9012404E02868074BC5
:1017D000984700E001242046F8BD0124FBE70024DF
:1017E000F9E700BF6D110800191D08007915080000
:1017F000006870472DE9F04186B007460D46164651
:1018000098461020154B98470446B8B10C9B43608E
:101810000D9B8360C0F80C806B462868696803C321
:101820000F4B039305946EB1029600238DF8103090
:10183000694638460B4B9847206048B1204606B0B1
:10184000BDE8F0810023029302238DF81030EFE70A
:101850002046054B98470024F0E700BF991C08007C
:101860006517080071110800191D08002DE9F04FD7
:101870008BB007460E461446594B98470546072E2F
:1018800006D0092E00F0A580002E70D000246AE05A
:101890003846544B984707462B7B4FF6FF7241F270
:1018A0008401012B18BF1146059141F284024FF6C5
:1018B000FF76012B18BF1646B0F90630B0F90420A8
:1018C000B4F90210B4F900000096DFF83881C0477F
:1018D000B4F90060B4F90290B7F90410B7F906B092
:1018E0004FF0000ACDF800A0012304910A464946B2
:1018F0003046C04709F1FF315944CDF800A001231B
:10190000049A09B23046C047CDF800A05B460122D8
:1019100049463046C047701E04990844CDF800A0DF
:101920005B460122494600B2C047B7F9062002EBE8
:10193000D272638803EB6202B7F9041001EBD17134
:10194000238803EB61016868022303931223029347
:10195000059B019341F6F0630093234B12B209B249
:10196000224CA047012420460BB0BDE8F08FE37A5B
:101970001BB1022B0ED00124F5E7037B0BB1012430
:10198000F1E700681A4B984701242C732868194B1B
:101990009847E8E7037B012B01D00124E3E700200F
:1019A000134B984700232B732868124B9847214606
:1019B0002868114B9847044608B90124D3E72B68DF
:1019C00007932B680893AB68099307A80B4B9847BC
:1019D000C9E740680A4CA0472846A0470124C2E74F
:1019E0006D1108006B110800380107207D0C0800FC
:1019F000D1110800E11608001D170800AD110800FC
:101A0000191D0800A1070800006870472DE9F04182
:101A100086B007460E46154698461020174B984745
:101A20000446F8B100230373C0F808802846144B1D
:101A300098470130114B98476060D0B12946114B4F
:101A40009847114B039305946B463068716803C344
:101A5000002302938DF81030694638460B4B9847A7
:101A6000206018B1204606B0BDE8F0816068084BE0
:101A700098472046064B98470024F3E7991C080036
:101A8000893008004D1708006D1808007111080012
:101A9000191D08002DE9F04385B007460D4616468E
:101AA000224B98470446072D03D0092D33D000253B
:101AB00037E038461E4B98470746257A75B9B6F980
:101AC0000220B6F9001060686389019341F6F06363
:101AD0000093184B184CA047012522E0DFF85480F2
:101AE0000DF10E0303AA41466068DFF85490C84721
:101AF000B6F902203188BDF80C30C91ABB881944E8
:101B000060686389019341F6F0630093434609B22C
:101B1000094CA04705E04068084DA8472046A84763
:101B20000125284605B0BDE8F08300BF6D1108000F
:101B30006B11080038010720C10D0800191D0800AD
:101B4000410C08000068704710B502460846931C17
:101B50000149024CA04710BD38010720410C080084
:101B60002DE9F04387B080460E46154699460E9FF4
:101B70000C201C4B9847044608B3A0F80A909DF827
:101B80003C3003722846184B98470130154B984754
:101B9000606008B32946154B9847154B039305948D
:101BA0006B463068716803C36FB1029700238DF8EC
:101BB0001030694640460F4B9847206048B1204698
:101BC00007B0BDE8F0830023029302238DF81030A4
:101BD000EFE76068084B98472046074B984700247A
:101BE000EDE700BF991C0800893008004D17080078
:101BF000951A080071110800191D0800F8B54379FD
:101C00008B421DD004460D466171C6790779006884
:101C10000C4B984716F0010F14BF82790279023AF3
:101C2000D2B216F0020F1CBF7D1BEDB2394628461A
:101C3000054B9847A0712068044B98470120F8BDD8
:101C40000020F8BD6B11080041170800E1160800DC
:101C5000037B13F0080F01D1807A7047437A807AB2
:101C6000181AC0B27047000030B4094A094B03F19A
:101C7000780500249A605968186800FB0122DA6030
:101C800019751C611833AB42F4D130BC704700BFEA
:101C9000E00B072044010720F0B41E4B03F1780449
:101CA000002503E01D4618339C420CD01A7D002A03
:101CB000F9D01A688242F6D3002DF3D02E68B242D2
:101CC00038BF1D46EFE70DB3A868696801B32C69FA
:101CD00014F0010F16D02E68002330440133DBB21C
:101CE0008B4211D21F4624FA03F212F0010FF4D1F5
:101CF000012303FA07F73C432C612B7D013B2B7535
:101D0000F0BC70470027F3E70020F9E70020F7E771
:101D10000020F5E744010720F0B4114A002303E056
:101D200001331832052B19D091688842F8D3D56851
:101D3000A842F5D20A4A5D00EE18F6009719431A38
:101D40009159B3FBF1F3DBB2012101FA03F33969D5
:101D500021EA030139613B7D01333B75F0BC7047DB
:101D6000440107202DE9F04180B90C469046002A35
:101D70000FDD8F18084E094D306821462B689847B3
:101D80000134BC42F8D14046BDE8F0814FF0FF3845
:101D9000F9E78046F7E700BF081307200013072084
:101DA0000138022815D82DE9F0410E4614469AB1A3
:101DB0000D46DFF838800C4FD8F8000015F8011BED
:101DC0003B68984700280ADBA81B013CF4D1BDE81A
:101DD000F0814FF0FF3070471046BDE8F0814FF0C2
:101DE000FF30BDE8F08100BF04130720081307206F
:101DF00008B5044B984200D008BD1820024B984704
:101E0000FAE700BF00800040E9260800436823F499
:101E1000702343604368090401F470211943416051
:101E20007047436823F07F434360436843EA01619E
:101E30004160704732B900EB8100036B23F001036E
:101E40000363704700EB8100036B43F001030363FE
:101E5000704732B900EB8100036B23F00203036388
:101E6000704700EB8100036B43F00203036370478C
:101E7000042A03D06AB1082A16D0704700EB81000B
:101E8000036B23F008030363036B43F00403036352
:101E9000704700EB8100036B23F008030363036BBF
:101EA00023F004030363704700EB8100036B43F0EE
:101EB00008030363E1E700EB81010B6B23F0F00300
:101EC0000B630B6B1A430A637047431E1944B1FB43
:101ED000F0F0431EFE2B94BF00B24FF0FF3070476E
:101EE00072B110B4144600EB81010B6B23F47F43F5
:101EF0000B630A6B42EA04220A63002010BC70479D
:101F00004FF0FF30704710B400EB8101086B80B2D6
:101F100008630C6B44EA036343EA02430B6310BC9F
:101F2000704710B4AC2303600B684A68B3FBF2F34C
:101F30001B095C1E4FF6FE7294420BD803628B683D
:101F4000436040F20223C0F8203150230360002098
:101F500010BC70470120FBE7436913F0020F1ABF62
:101F6000C161002001207047436913F0010F1DBFBC
:101F700083690B70002001207047436913F0020F42
:101F80001DBFC1F30801C1610020012070474369F2
:101F900013F0010F05D08369C3F308030B60002021
:101FA00070470120704743685A684A6042688A60F7
:101FB0005A689160596041600861036801330360A9
:101FC0007047436882689A60836842685A60036910
:101FD0005A68904204BF82685A60002202611A68FF
:101FE000013A1A6018687047064B19680868B0E82B
:101FF000F00F80F309884FF0000080F311884EF055
:102000000D0E7047B0110720EFF311804FF0A001C3
:1020100081F311887047002080F311887047000019
:10202000EFF309800C4B1A6820E9F00F10602DE9DE
:1020300008404FF0A00080F3118800F0B9F84FF08D
:10204000000080F31188BDE8084019680868B0E80E
:10205000F00F80F309887047B011072008B54FF0E2
:102060008052054B1A60054B9847054B9847002056
:10207000044B984708BD00BF04ED00E009200800AC
:1020800089200800192008003D4B1B68002B6FD1E8
:102090002DE9F0413B4B1A6801321A601B68ABB95D
:1020A000394B1B681B68002B28D1374B1968374AFE
:1020B00010681860116036490A6801320A601B68AE
:1020C0001B68FBB94FF0FF32324B1A602D4B1A6878
:1020D000304B1B689A4250D32B4B1B681B68CBB10B
:1020E000294B1B68DB68DC686368264A12689342E8
:1020F00016D8294E294FDFF8B4802FE0284B984797
:1021000000BFFDE7204B1B68DB68DB685A68214B8A
:102110001A60DBE74FF0FF321E4B1A60BDE8F0811A
:102120001C4A1360BDE8F081E06A3B68984288BFB2
:10213000386000EB8000294608EB8000194B984777
:10214000114B1B681B68002BE4D00F4B1B68DB682E
:10215000DC6863680B4A12689342E1D8251D284663
:10216000B047A36A002BDFD004F11800B047DBE7CB
:102170000D4A1368013313607047BDE8F08100BF5A
:102180002412072034120720B4110720B8110720A9
:1021900030120720BC010720C31F080028120720A7
:1021A00009200800A71F080020120720BC110720E3
:1021B000214B1B68EBB910B5204B1B6803EB830365
:1021C0009B001F4AD358C3B91C4B1B686BB11B4AF9
:1021D0001B491368013B1360136803EB830351F839
:1021E000233053B91368002BF3D1164B984700BF27
:1021F000FDE70122144B1A607047104B1B68104A10
:102200009900C81802EB800044686468446019446F
:1022100002460832944209D003EB8303084A02EBDA
:1022200083035B68DA68094B1A6010BD6068044A72
:1022300002EB81025060EFE72412072028120720EA
:10224000BC110720092008002C120720B01107201C
:1022500010B50E480E4B98473E2100200D4B984775
:102260000D4CA0470028FCD00C4B98470C4A0D4B56
:102270009A620D4CA0470028FCD010200B4B9847C9
:102280000B4B98470148024B984710BD00BD010514
:10229000B100072065260800B9260800C9260800F5
:1022A000013F0D2000060E40D92608000126080037
:1022B000D927080010B54FF400421E4B5A600B207E
:1022C0001D4CA0470C20A0470D20A0470E20A04782
:1022D0004FF060513B20194CA0474FF06051552002
:1022E000A0474FF060515620A04715496820A047ED
:1022F00014495C20A047144A4FF440711348144B12
:1023000098474FF000611920A0474FF000611A2054
:10231000A0474FF000611B20A0474FF000611C2038
:10232000A0474FF000612B20A0474FF000612A200A
:10233000A04710BD501A0E40E9260800F5230800FA
:10234000790000280100002801000008000E0E405E
:10235000C52408004264B1F1805F16D00BD849B1A2
:10236000B1F1006F05D1036F016F0B4023EA020347
:10237000036742607047B1F1405FFBD0B1F1605F2D
:10238000F8D0B1F1205FF4D17047036F13430367B6
:10239000EFE7416412F0010F14BF4166016612F0CD
:1023A0000A0F14BF0162416212F0020F07D112F04E
:1023B000080F18BFC0F88410416101607047C0F871
:1023C0008010F9E710B4019C416444B9016643B13F
:1023D000016542B941630161016010BC704741660B
:1023E000F5E74165F5E70163F5E7C06C7047806C80
:1023F0007047000070B582B00D46430903F5001325
:1024000003F207735C0201F0F043B3F1205F31D0B7
:1024100016D8B3F1006F1BD0B3F1805F16D100F076
:102420001F000126864032464FF080512046224B45
:10243000984715F0010F14BF66662666012017E065
:10244000B3F1405F21D0B3F1605F1ED000200FE0F8
:1024500000F01F000126864032464FF00061204602
:10246000154B984715F0010F14BF666626660120CC
:1024700002B070BD00F01F0101262A4606FA01F1E4
:1024800020460E4B98473046F2E705F0605200F0C8
:102490001F01012605EA06030093C5F38003B2F18C
:1024A000605F14BF0022012206FA01F12046044CAD
:1024B000A0473046DCE700BF5523080093230800FF
:1024C000C523080070B582B005460E46144602F0DA
:1024D000F043B3F1205F27D011D8B3F1006F16D0CD
:1024E000B3F1805F11D10A464FF08051194B9847E4
:1024F00014F0010F14BF6E662E66012012E0B3F1D6
:10250000405F15D0B3F1605F12D000200AE00A46A8
:102510004FF000610F4B984714F0010F14BF6E6627
:102520002E66012002B070BD0B4B98470120F9E7E1
:1025300004F0605204F001030093C4F38003B2F18D
:10254000605F14BF0022012231462846034CA04799
:102550000120E7E75523080093230800C52308005E
:102560002DE9F041044688460E4B98470546204623
:102570000D4B9847054013D00C4C04F1600603E066
:10258000B4420DD010345DB120684045F8D1616887
:102590002942F5D0E3689847636825EA0305EFE729
:1025A000BDE8F081EB230800EF2308003812072074
:1025B00008B50B210148024B984708BD000E0E409C
:1025C0006125080008B50C210148024B984708BD59
:1025D00000100E406125080008B50D210148024B8E
:1025E000984708BD00120E406125080008B50E216D
:1025F0000148024B984708BD00140E4061250800B1
:10260000174A136B23F0700318431063936E13F093
:10261000080F0AD14FF4006311498A6E12F0080FB7
:1026200003D1013BF9D1012070470D4A136B23F010
:10263000030343F002031363936E13F0080F0AD1F0
:102640004FF4006306498A6E12F0080F05D1013B72
:10265000F9D101207047002070470020704700BF6B
:1026600000060E40C8B9114A136A090289B223F460
:102670005C1323F0030343F45C1343F001030B43A7
:102680001362936E13F0010FFBD0084A136A43F0F4
:102690009B7343F480331362704704490B6A044A06
:1026A0001A40044B13430B62704700BF00060E40F4
:1026B000FCFFC8FE02003701024B986E00F4803028
:1026C000704700BF00060E404FF00052014B9A6267
:1026D000704700BF00060E40024B986E00F00200EB
:1026E000704700BF00060E402C281ED81F280CD8AB
:1026F000114B9A6901238340934318D0012303FAB5
:1027000000F00D4B18610020704720380A4BD3F8B9
:1027100008210123834093430BD0012303FA00F0E7
:10272000054BC3F8000100207047012070470020CE
:1027300070470020704700BF00060E400120704720
:1027400008B51C4B1C4A9A4210D01C4B194A9A429D
:102750000CD2013B9B1A23F00303043313441649A4
:1027600051F8040B42F8040B9A42F9D1144B154A64
:102770009A420AD2013B9B1A23F003030433134409
:10278000002142F8041B9342FBD10F4B23F060421F
:1027900022F07F020D498A6003F16043B3F5801F88
:1027A00003D28B6843F000538B60094B9847094B69
:1027B0009847FEE7000007202C5B08001C0A072052
:1027C000341307201C0A07200000080000ED00E079
:1027D000FD2D0800B12D08003D4B1B6B03F00303DA
:1027E000032B0ED8DFE803F0021C3838394B5B6945
:1027F00013F0800F14BF4FF400424FF4FA42364BEF
:102800001A60334B1B6B03F07003702B57D0304BA7
:102810001A6B3149C2F302120B68D3400B60704748
:102820002B4B1B6A13F0807F03D02C4A2A4B1A6073
:10283000E7E72B4A284B1A60254B1B6A03F070030D
:10284000102B05D0202BDCD1244A234B1A60D8E76B
:10285000244A214B1A60D4E71D4B1B6A13F0807F7A
:102860000CD01E4A1C4B1A60194B1B6B03F0030360
:10287000022B16D01C4A184B1A60C2E7184A164B96
:102880001A60134B1B6A03F07003102B05D0202B2A
:10289000EAD1124A104B1A60E6E7124A0E4B1A6050
:1028A000E2E70B4A916A926A0B48C1F30A41036856
:1028B00001FB0333D2B2B3FBF2F30360A1E7064A94
:1028C00013680A49A1FB03135B081360704700BF3C
:1028D00000060E40101A0E40C4010720001BB7006E
:1028E00000093D0000127A00001C4E0EABAAAAAAF5
:1028F0000A4B1B6853B1094B1B681A1808499142CF
:1029000008DB1046054A106018467047054A034B1D
:102910001A60F0E74FF0FF30704700BFA8120720A1
:10292000FC7F0820383307204FF0FF3070474FF40A
:1029300000534B60002070470020704770B50D2099
:10294000194EB0470B20B0474FF060515720174C3D
:10295000A0474FF060515820A0474FF060515920D8
:10296000A0474FF060515C20A047114D4FF000721E
:102970004FF0006128460F4CA0474FF080624FF0A7
:1029800000612846A0474FF0006211462846A04744
:102990004FF080524FF000612846A0471820B04702
:1029A0000548064B984770BDE9260800F523080046
:1029B000000E0E405523080000800040E50D080081
:1029C00008B5044B9847044B9847044B9847044B71
:1029D000984708BD691C080055040800150B08003D
:1029E000FD10080070B586B00C4B984706460C4B9E
:1029F00098476C4605460FCD0FC495E8030084E860
:102A00000300084B0293042269463046064B984760
:102A10003046064B984706B070BD00BF61110800F4
:102A200069110800C80107205D1608000117080099
:102A300008B50B4C0B4D0C4E03E00C4B9847002394
:102A4000237023782A78002BFDD0012A06D0002A93
:102A5000F3D0022AF7D1064B9847F2E7B047F0E7E8
:102A6000D4010720AC120720E92B0800AD2A08008A
:102A7000EB2B080008B5C9B2012903D0022909D0FF
:102A8000002008BD0020064B984701460020054B5A
:102A90009847F5E7044A137801331370F0E700BF55
:102AA000511C0800FD1B0800AD12072070B584B052
:102AB0003A4B984706463A4D00242C7148F2316350
:102AC0002B81ADF80840ADF80A40364B9847ADF879
:102AD0000C00354B9847ADF80E000194334B009332
:102AE00023462A4602A93046314CA047314B186094
:102AF000002852D0304B98470446304B98470A2361
:102B0000ADF80830ADF80A302D4903A82D4B984791
:102B10000023019300934FF6FF732B4A02A920462E
:102B20002A4DA847002832D0294B9847234B984775
:102B30000A23ADF808301E23ADF80A305A23ADF849
:102B40000C302823ADF80E300323224A02A9204678
:102B5000214DA847D8B1214B9847184B98470A23D5
:102B6000ADF808306423ADF80A305A23ADF80C30C4
:102B70002823ADF80E300223194A02A92046A8479F
:102B800028B1164B98470D4B984704B070BD094BC0
:102B90001868094B9847134B9847FEE761110800E6
:102BA000B01207208907080095070800752A080059
:102BB000F5170800BC120720F117080001170800DC
:102BC000C85A0800491B0800E05A0800611B0800A9
:102BD000451B0800F45A08000D1A0800091A0800DD
:102BE000FC5A08007915080070477047F0B583B0AB
:102BF00004460D4600230193204B98420DD0204BF4
:102C0000984212D01F4B984219D01F4B9C4220D0A3
:102C10001E4B9C4227D003B0F0BD1F461C4E2946D8
:102C20003846B0470028FAD1EFE71F46194E01A9F0
:102C30003846B0470028FAD1019B2B70E8E71E46C2
:102C4000144C01A93046A0470028FAD1019B2B70F3
:102C5000E1E71E460F4C01A93046A0470028FAD1F3
:102C6000019B2B70D7E71E460A4C01A93046A047AE
:102C70000028FAD1019B2B70CDE700BF00080E4061
:102C80000080094000C0094000000A4000400A409E
:102C9000691F08008F1F080070B50C461E4B984234
:102CA0000DD01E4B984213D01D4B984219D01D4B8E
:102CB00098421FD01C4B984225D0002070BD1E4664
:102CC0001A4D21463046A8470028FAD1012070BD90
:102CD0001E46174D21463046A8470028FAD101204C
:102CE00070BD1E46124D21463046A8470028FAD135
:102CF000012070BD1E460E4D21463046A8470028D3
:102D0000FAD1012070BD1E46094D21463046A84724
:102D10000028FAD1012070BD00080E400080094053
:102D200000C0094000000A4000400A40591F080046
:102D30007B1F080030B585B00820124DA847124C03
:102D4000124B1C60124A134B1A60134A134B1A6041
:102D5000134B01934FF4E13302934FF40063039359
:102D60000820A84701A920460E4B98470E4D2B6816
:102D7000002198680D4CA0472B6800215868A04797
:102D800005B030BDE926080000080E4008130720F2
:102D9000992C080004130720ED2B080000130720CE
:102DA00000BD0105231F0800D8010720E92E0800F7
:102DB00070B5094B9847094B9847094B9847094B01
:102DC0009847094B9847094B9847094E094D0A4CBB
:102DD000B0472846A047FBE751220800B52208006B
:102DE000352D08003D290800C1290800E529080003
:102DF000312A0800808D5B000100072070B50F4E5E
:102E00000F4D761BB61018BF002405D0013455F8BD
:102E1000043B9847A642F9D10A4E0B4D02F074FECE
:102E2000761BB61018BF002406D0013455F8043BB9
:102E30009847A642F9D170BD70BD00BF145B080071
:102E4000145B08001C5B0800145B080070B4860764
:102E500046D0541E002A41D0CAB2034602E014F103
:102E6000FF343BD303F8012B9D07F8D1032C2ED957
:102E7000CDB245EA05250F2C45EA054519D9264668
:102E800003F11002103E0F2E42F8105C42F80C5C69
:102E900042F8085C42F8045C02F11002F2D8A4F196
:102EA000100222F00F0204F00F041032032C13441E
:102EB0000DD91E462246043A032A46F8045BFAD886
:102EC000221F22F003020432134404F003042CB145
:102ED000C9B21C4403F8011B9C42FBD170BC704773
:102EE00014460346C2E700BF00290CBF022200229D
:102EF0004FF4806300F000B82DE9F043614D83B0DA
:102F00002D6804460F4690461E4615B1AB6B002B4C
:102F100064D0B8F1020F06D0B8F1010F00F29F8023
:102F2000002EC0F29C80636ED80734D52146284617
:102F300000F084F9216B41B104F14003994202D0C1
:102F4000284600F079FA002323630022B4F90C30FC
:102F5000A26162601A063AD423F44A6323F00303A1
:102F6000B8F1020FA3811DD001AB6A462146284665
:102F700000F078FBA3891843A081002E32D1009E77
:102F8000304600F09DFB074600286BD0A38943F034
:102F90008003A38128E0A3899905C7D4A06D00F020
:102FA0005DFBC3E7002500260120616E04F14302AA
:102FB00043F00203A660CE07A38160612260226114
:102FC00001D498053ED5284603B0BDE8F0832169B9
:102FD000284600F031FAB4F90C30BDE7284600F07D
:102FE00085F996E7002FCBD0AB6B002B33D0009B3D
:102FF000B4F90C209E421CBF42F40062A281B8F1D9
:10300000010F04BF42F00102A28192B212F0080344
:103010002760276166610ED0D1071AD50023656E3F
:10302000764215F00105A661A36009D00025284667
:1030300003B0BDE8F083A360656E15F00105F5D11E
:103040009305C0D4A06D00F00BFB284603B0BDE88B
:10305000F083A660F0E7284600F048F9C7E74FF094
:10306000FF35B0E7DDF80090B14504D0484600F0E8
:1030700027FB074620B9B4F90C304FF0FF3592E733
:103080004E4683E7D801072020F0030110F003002B
:10309000C0F1000051F8043B00F1040C4FEACC0CE5
:1030A0006FF000021CBF22FA0CF213434FF0010C28
:1030B0004CEA0C2C4CEA0C4CA3EB0C0222EA030267
:1030C00012EACC1204BF51F8043B0430F4D0C2F130
:1030D000000102EA0102B2FA82F2C2F11F0200EB21
:1030E000D2007047024B13B1024800F005B8704798
:1030F0000000000065330800002301461A46184608
:1031000000F000BEB1F90C302DE9F0419AB20D4645
:10311000110780463AD46A6843F40063002AAB8101
:1031200070DDAC6A002C4AD000229BB2D8F8006057
:10313000C8F8002013F4805268D02A6D5F0705D5C7
:1031400069682B6B521A0BB1EB6BD21A0023E96939
:103150004046A047441C3DD00021B5F90C302A69F7
:1031600023F40063AB81DB0469602A6048D4296BD7
:10317000C8F8006019B305F14003994202D04046F7
:1031800000F05AF900202863BDE8F0812E69B6B13D
:10319000910718BF00232C6808BF6B692E60A41B21
:1031A000AB600AE0234632466F6AE9694046B84799
:1031B0000028A4EB0004064404DD002CF2DC00200F
:1031C000BDE8F081AB894FF0FF3043F04003AB81A5
:1031D000BDE8F081D8F800401D2CF3D8164BE34031
:1031E000DB4313F00103EDD1B5F90C20296922F47A
:1031F0000062AA81D2046B602960B8D5002CB6D1D8
:103200002865B4E7EA6B002A8BDCD8E70123E9697B
:103210004046A047431C024602D0AB89AC6A8DE70A
:10322000D8F80030002BF8D01D2B01D0162BC9D1B7
:10323000C8F80060C3E700BF0100402038B50D4664
:10324000044608B1836BBBB1B5F90C0088B16B6E55
:10325000DB0701D4810517D520462946FFF752FF29
:103260006B6E0446DA0702D4AB899B0507D520466E
:1032700038BD0446204638BD00F038F8E4E7A86DB4
:1032800000F0EEF9204638BDA86D00F0E7F9E3E75D
:10329000014900F0B7B900BFED3D0800002310B5AB
:1032A00004468181C2810360436083604366036199
:1032B00043618361194608225C30FFF7C7FD074868
:1032C0000749084A084B2062E4616162A262E36236
:1032D00004F15800BDE8104000F0BCB9513C0800B2
:1032E000753C0800B13C0800D13C080010B504460C
:1032F000144800F0B3F9A26BFAB90320124904F59F
:103300003B73C4F8E832C4F8E022C4F8E402E16395
:1033100060680421FFF7C2FFA06801220921FFF7BE
:10332000BDFFE06802221221FFF7B8FF0123054824
:10333000A363BDE8104000F093B90248BDE8104017
:1033400000F08EB91813072091320800014800F0F0
:1033500085B900BF2C130720014800F081B900BFD8
:103360002C13072038B50A4C0A4D641BA4100AD050
:1033700004F18043013B05EB8305013C55F804391A
:103380009847002CF9D1BDE8384002F0C7BB00BF18
:103390002C5B0800285B0800F8B50C46234F064656
:1033A00000F038FCBB68C4F57E615D680F3125F024
:1033B0000305294421F47F6121F00F01A1F5805418
:1033C000B4F5805F07DB0021304600F02FFCBB68BE
:1033D0002B44984204D0304600F022FC0020F8BD77
:1033E0006142304600F022FC01300DD0104BBA682B
:1033F00019682D1B45F001053046091B5560196001
:1034000000F00EFC0120F8BD0021304600F00EFC5B
:10341000BA68831A0F2BDEDD064C0549246843F099
:103420000103001B53600860D5E700BF0C060720AE
:10343000C0120720140A0720002944D02DE9F041CA
:103440000D46804600F0E6FB55F8047C6949A5F17D
:10345000080427F00103E2188E685068B24220F099
:1034600003005ED0FE0750600BD455F8087C01F1D4
:10347000080EE41BA5683B4475456DD0E768EF6016
:10348000BD6015186D68ED073ED543F0010262601E
:10349000E350B3F5007F17D20122DB0898104D6886
:1034A000134451F83370824001EBC3002A430838BB
:1034B000E060A7604A6041F83340FC604046BDE8E8
:1034C000F04100F0ADBB70475A0A042A52D89A095D
:1034D00002F13907FF0002F13805C819CA59083846
:1034E00090424FD0516821F003018B4232D2926852
:1034F0009042F7D1C368A060E3609C60C46040461E
:10350000BDE8F04100F08CBB95683B4F0344BD42E1
:1035100040D0D06843F00102E86085606260E3500B
:10352000B7E7FF07034407D455F8085C641BE2685B
:10353000A0682B44C2609060304A43F001001268DA
:10354000606093428C60B9D32D4B40461968FFF7F9
:1035500023FFB3E71046CDE711184968C90744D4E3
:1035600091680344D26843F00100CA6091606060D2
:10357000E350A3E7142A16D802F15C07FF0002F11A
:103580005B05AAE70123AA104D6893402B434B60CB
:103590000346B0E743F001024C610C61E560A560B1
:1035A0006260E3508AE7542A06D81A0B02F16F07CB
:1035B000FF0002F16E0590E7B2F5AA7F06D8DA0B9C
:1035C00002F17807FF0002F1770586E740F25450D8
:1035D000824206D89A0C02F17D07FF0002F17C05B9
:1035E0007BE74FF47E777E2577E743F0010161604A
:1035F000136063E70C06072014060720180A07204B
:10360000F01207202DE9F84310F538761ED08846D1
:1036100007464FF000097568B468013D10D4A389CE
:10362000013D012B08D9B4F90E30013304D02146F5
:103630003846C04749EA00096B1C04F16804EED122
:103640003668002EE7D14846BDE8F883B1464846C3
:10365000BDE8F883704700BF704700BF704700BFE8
:10366000704700BF70B50C46B1F90E1090B000293C
:1036700015461E4614DB01AA00F01AFC00280FDBD9
:10368000029A4FF4806302F47042A2F50052B2FA3B
:1036900082F24FF40060520932602B6010B070BDAE
:1036A0000023A289336012F0800004D04022184623
:1036B0002A6010B070BD4FF480632B6010B070BDF5
:1036C000024B0146186800F003B800BFD80107207C
:1036D0002DE9F04F01F10B06162E83B0054640F29E
:1036E0009E8036F0070600F1BD80B14200F2BA803C
:1036F00000F090FAB6F5FC7FC0F08582730A00F006
:10370000B880042B00F26C81B30903F1390003F196
:10371000380EC100B84F39444C680839A14206D16F
:103720000CE0002A80F2AB80E468A14206D0636816
:1037300023F003039A1B0F2AF3DD70463C69DFF880
:10374000CCE2744500F09E81636823F003039A1B6A
:103750000F2A00F38381002AC7F814E0C7F810E0AD
:1037600080F29180B3F5007F80F054810122DB0864
:1037700079684FEAA30C134457F8338002FA0CF22D
:1037800007EBC30C0A43ACF10801E160C4F8088000
:103790007A6047F83340C8F80C40012483109C40FD
:1037A00094427DD8144206D120F0030064001442F4
:1037B00000F10400FAD007EBC009CC468046DCF8E3
:1037C0000C309C4507D15FE1002A80F26D81DB68F7
:1037D0009C4500F05981596821F003018A1B0F2A8A
:1037E000F2DDDC68D3F808C046F0010828461E4424
:1037F00042F00105C3F80480CCF80C40C4F808C0BE
:103800007E613E61C6F80CE0C6F808E075605A506B
:10381000009300F005FA009B03F108041EE0102954
:1038200020D800F0F7F9102618230220724F3B44ED
:103830005C68A3F10802944200F02F816368E1689C
:1038400023F0030323445A68A66842F00102F160A2
:1038500028468E605A6000F0E3F90834204603B031
:10386000BDE8F08F00240C2320462B6003B0BDE898
:10387000F08F40204FF400714FF03F0E4AE7234491
:103880005A68E168E0E723445A68284642F001029A
:103890005A60083400F0C4F9204603B0BDE8F08F48
:1038A000BC68636823F00308B04504D3A8EB0603A3
:1038B0000F2B00F38580DFF85891504BD9F800208A
:1038C0001B680132334404EB080A00F0548103F50D
:1038D00080530F3323F47F6B2BF00F0B5946284690
:1038E00000F0A4F9411C024600F0FB80824500F282
:1038F000F680434B19685944196000F04C81D9F89F
:10390000000001301BBFA2EB0A0A5144C9F8002095
:10391000196012F0070100F01481C1F10800C1F52F
:1039200080510244083102EB0B09C9F30B09A1EBEA
:103930000909494628460193009200F077F9431C93
:103940009DE80C0000F04281801A484440F00100DC
:103950001968BC424944BA601960506017D0B8F188
:103960000F0F40F2FA804FF0050C6268A8F10C00CE
:1039700020F0070002F0010204EB000E02430F28C2
:103980006260CEF804C0CEF808C000F216811D4B6C
:10399000BC681A68914288BF19601B4B1A68914233
:1039A000626888BF196022F003029642A2EB060308
:1039B00001D80F2B04DC284600F032F900244DE733
:1039C00046F0010243F00103264462602846BE60CF
:1039D0000834736000F024F9204603B0BDE8F08F8E
:1039E000142B70D9542B00F2A280330B03F16F001B
:1039F00003F16E0EC1008DE60C060720F0120720C1
:103A0000C0120720E8120720EC1207201406072036
:103A1000140A07205A0A042A5BD9142A00F2AE803D
:103A200002F15C01C9005B3207EB010C7958ACF183
:103A3000080C8C4500F088804A6822F0030293420B
:103A400073D289688C45F7D1DCF80C307A68E36072
:103A5000C4F808C09C60CCF80C409EE646F0010C0F
:103A600042F001012644C4F804C028467E613E614C
:103A7000C6F80CE0C6F808E07160E25000F0D0F83B
:103A80000834EBE67A6888E608F1010818F0030FBD
:103A90000CF1080C7FF493AE2DE0DC68A34208BF64
:103AA00002303FF44BAEC9E61C4619444A68DB6855
:103AB00054F8086F42F001024A602846F3609E60A5
:103AC00000F0AEF8CAE603F15C0003F15B0EC10042
:103AD00020E69A0902F13901C9003832A4E7BC4254
:103AE00054D0BC68626822F003025EE759F80839D6
:103AF000994540F0868010F0030F00F1FF30F5D1BA
:103B00007B6823EA04037B6064009C423FF6C8AEF6
:103B1000002C3FF4C5AE1C4240467FF44CAE64001E
:103B20001C4200F10400FAD045E68C468CE7B3F560
:103B3000AA7F15D8F30B03F1780003F1770EC100CB
:103B4000E8E54FF48051EEE601217B68921001FA1E
:103B500002F21A437A60634679E7012353602AE749
:103B600040F25452934222D8B30C03F17D0003F18A
:103B70007C0EC100CEE503F1100BAFE6542A29D824
:103B80001A0B02F16F01C9006E324DE7204B196824
:103B900059441960B3E6CAF30B0000287FF4AFAEB6
:103BA00008EB0B03BA6843F001035360EFE67F2094
:103BB0004FF47E714FF07E0EACE504F1080128460B
:103BC0000093FFF739FC009B1968E0E601204FF0F5
:103BD0000009BDE6B2F5AA7F05D8DA0B02F178013B
:103BE000C900773220E740F254518A4205D89A0C36
:103BF00002F17D01C9007C3216E74FF47E717E220E
:103C000012E77B6880E7F00806F108030EE600BFC4
:103C1000C01207200148FFF721BD00BF1C13072079
:103C20000148FFF71DBD00BF1C13072038B5002356
:103C3000064C054608462360FEF75AFE431C00D09A
:103C400038BD2368002BFBD02B6038BD3013072014
:103C500010B50C46B1F90E1000F054F9002803DB42
:103C6000236D0344236510BDA38923F48053A381EE
:103C700010BD00BF2DE9F0410C46B1F90C101F46F4
:103C8000CB051646054607D5B4F90E1002230022CF
:103C900000F022F9B4F90C1021F48051A1813B46C7
:103CA0003246B4F90E102846BDE8F04100F014B8D1
:103CB00010B50C46B1F90E1000F00EF9A389421CA4
:103CC0000EBF23F4805343F480532065A38110BDBD
:103CD000B1F90E1000F078B8F8B50E460025084C82
:103CE000114607461A4630462560FEF759F8431C30
:103CF00000D0F8BD2368002BFBD03B60F8BD00BFAF
:103D0000301307202DE9F8432C4D064628689846C5
:103D10000F469146FFF7A2FC294B1C68D4F84831A6
:103D2000002B3ED05A681F2A1CDC02F1010E76B12E
:103D3000012103EB8204C4F88890D3F888019140F4
:103D40000843022EC3F88801C4F8088123D0023248
:103D5000C3F804E0286843F82270FFF781FC0020D4
:103D6000BDE8F883174B0BB34FF4C870FFF7A8FCFE
:103D70000346D8B10020D4F848114FF0010E586026
:103D800019600246C4F84831C3F88801C3F88C01B1
:103D9000002EDCD0CCE7D3F88C010143C3F88C11A2
:103DA000D5E704F5A673C4F84831BBE72868FFF7E8
:103DB00057FC4FF0FF30BDE8F88300BF080607202E
:103DC000045B0800C136080038B50023064C0546E0
:103DD00008462360FEF7A8FD431C00D038BD2368C9
:103DE000002BFBD02B6038BD3013072070B559B1C4
:103DF00005460C4610B1836B002B3CD0636ED80790
:103E000005D5B4F90C302BB90026304670BDA38916
:103E100099053CD521462846FFF774F9E36A064622
:103E200033B1E169284698470028B8BF4FF0FF3604
:103E3000A3891A0622D4216B41B104F140039942AF
:103E400002D02846FFF7F8FA00232363616C21B102
:103E50002846FFF7F1FA00236364FFF777FA0022A0
:103E6000636EA281DB070ED5A06DFFF7F5FBFFF7B0
:103E700073FA304670BDFFF739FABFE7216928466B
:103E8000FFF7DAFAD7E7A06DFFF7EAFBECE7A06DE2
:103E9000FFF7E4FBB4F90C30002BBBD1666E16F0D3
:103EA0000106B1D1A06DFFF7DBFB304670BD00BF4E
:103EB00070B50D460023074C064611462846236080
:103EC000FEF735FD431C00D070BD2368002BFBD0EE
:103ED000336070BD30130720F8B50E460025084C3E
:103EE000114607461A4630462560FEF725FD431C5D
:103EF00000D0F8BD2368002BFBD03B60F8BD00BFAD
:103F000030130720F8B50E460025084C1146074629
:103F10001A4630462560FDF725FF431C00D0F8BD4A
:103F20002368002BFBD03B60F8BD00BF3013072097
:103F30000000000000000000000000000000000081
:103F40000000000000000000000000000000000071
:103F50000000000000003000300030003000300071
:103F60003000300000003000300000000000000091
:103F70000000000000006C006C006C006C00000091
:103F80000000000000000000000000000000000031
:103F9000000000000000000048004800FC0048004D
:103FA00048004800FC0048004800000000000000F5
:103FB000000000000000100010003C004000300035
:103FC000080004007800100010000000000000004D
:103FD00000000000000000007C00A400A8004800D1
:103FE000100014002A004A004400000000000000F5
:103FF0000000000000007000880088008800700049
:1040000088008A008A008C00700000000000000018
:104010000000000000001000100010000000000070
:104020000000000000000000000000000000000090
:1040300000000000080010001000200020002000F8
:1040400020002000200010001000080000000000E8
:104050000000000020001000100008000800080008
:1040600008000800080010001000200000000000F8
:10407000000000000000280010007C001000280054
:104080000000000000000000000000000000000030
:104090000000000000000000000000001000100000
:1040A0001000FE00100010001000000000000000D2
:1040B0000000000000000000000000000000000000
:1040C0000000000000001800180030002000000070
:1040D00000000000000000000000000000000000E0
:1040E0000000FE00000000000000000000000000D2
:1040F00000000000000000000000000000000000C0
:10410000000000000000180018000000000000007F
:10411000000000000000000004000800080010007B
:1041200010002000200040004000000000000000BF
:104130000000000000007800840084008C009400DF
:10414000A400C40084008400780000000000000087
:1041500000000000000010003000500010001000AF
:1041600010001000100010007C0000000000000093
:104170000000000000007000880008000800100027
:104180001000200020004000FC00000000000000A3
:1041900000000000000070008800080008003000E7
:1041A00008000800080088007000000000000000FF
:1041B0000000000000000800180028002800480047
:1041C00088008800FC0008000800000000000000D3
:1041D0000000000000007C0080008000B800C400E7
:1041E00004000400040084007800000000000000C7
:1041F0000000000000003800400080008000B00097
:10420000C800840084004800300000000000000066
:10421000000000000000FC0004000400080008008A
:1042200010001000200020004000000000000000EE
:104230000000000000007800840084008400780002
:1042400084008400840084007800000000000000E6
:1042500000000000000078008400840084008C00CE
:104260007400040008001000E000000000000000DE
:10427000000000000000000000000000000030000E
:10428000300000000000300030000000000000009E
:1042900000000000000000000000000000006000BE
:1042A00060000000000060006000C00080000000AE
:1042B00000000000000000000000000004001800E2
:1042C0006000800060001800040000000000000092
:1042D00000000000000000000000000000007E0060
:1042E000000000007E000000000000000000000050
:1042F000000000000000000000000000400030004E
:104300000C0002000C003000400000000000000023
:104310000000000000007000880008000800100085
:10432000200020000000200020000000000000000D
:10433000000000000000000000003C004200BA0045
:10434000AA00AA00AA00BC0040003C000000000037
:1043500000000000000010001000280028002800C5
:1043600044007C0044008200820000000000000045
:10437000000000000000F000880088008800F000C5
:104380008800880088008800F0000000000000001D
:104390000000000000003800440080008000800021
:1043A0008000800080004400380000000000000011
:1043B000000000000000F0008800840084008400F9
:1043C0008400840084008800F000000000000000E9
:1043D0000000000000007C00400040004000780029
:1043E00040004000400040007C0000000000000051
:1043F0000000000000007C00400040004000400041
:104400007800400040004000400000000000000034
:1044100000000000000038004400800080008000A0
:104420009C008400840044003C0000000000000068
:104430000000000000008400840084008400FC0070
:1044400084008400840084008400000000000000D8
:104450000000000000007C001000100010001000A0
:1044600010001000100010007C0000000000000090
:10447000000000000000F800080008000800080024
:104480000800080008001000E00000000000000024
:104490000000000000008400840088009000A0005C
:1044A000D000880088008400840000000000000024
:1044B000000000000000800080008000800080007C
:1044C0008000800080008000FC00000000000000F0
:1044D00000000000000084008400CC00CC00B40088
:1044E000B400840084008400840000000000000008
:1044F0000000000000008400C400C400A400A40068
:10450000940094008C008C008400000000000000E7
:104510000000000000003000480084008400840097
:104520008400840084004800300000000000000087
:10453000000000000000F000880084008400840077
:104540008800F00080008000800000000000000073
:104550000000000000003000480084008400840057
:104560008400840084004800300020001C0000000B
:10457000000000000000F000880084008400880033
:10458000F00090008800840084000000000000001B
:10459000000000000000780084008000400030002F
:1045A00008000400040084007800000000000000FF
:1045B000000000000000FE001000100010001000BD
:1045C000100010001000100010000000000000009B
:1045D0000000000000008400840084008400840047
:1045E0008400840084008400780000000000000043
:1045F00000000000000082008200440044004400EB
:1046000044002800280028001000000000000000DE
:104610000000000000008400840084008400B400D6
:10462000B400B4007800480048000000000000001A
:104630000000000000008200440044002800100038
:104640001000280044004400820000000000000028
:104650000000000000008200440044002800280000
:1046600028001000100010001000000000000000E2
:10467000000000000000FC0004000800080010001A
:104680001000200040004000FE000000000000007C
:1046900000000000E00080008000800080008000BA
:1046A00080008000800080008000E00000000000AA
:1046B000000000000000400040002000200010002A
:1046C00010000800080004000400000000000000C2
:1046D00000000000E000200020002000200020005A
:1046E00020002000200020002000E000000000004A
:1046F000000000000000100028004400000000003E
:1047000000000000000000000000000000000000A9
:104710000000000000000000000000000000000099
:1047200000000000000000007C000000000000000D
:104730000000000000002000100008000000000041
:104740000000000000000000000000000000000069
:1047500000000000000000000000000078000400DD
:1047600004007C0084008C00760000000000000043
:10477000000000008000800080008000B800C400BD
:104780008400840084008800F00000000000000025
:104790000000000000000000000000007C0080001D
:1047A00080008000800080007C000000000000008D
:1047B0000000000002000200020002003E00420071
:1047C00082008200820042003E00000000000000E3
:1047D0000000000000000000000000007C008200DB
:1047E0008200FE00800080007E00000000000000CB
:1047F0000000000000001C0020002000FC00200041
:104800002000200020002000FC000000000000002C
:104810000000000000000000000000007C00840098
:104820008400840084008C0074000400440038007C
:10483000000000008000800080008000B800C400FC
:1048400084008400840084008400000000000000D4
:1048500000000000000010000000000070001000C8
:1048600010001000100010007C000000000000008C
:1048700000000000000008000000000078000800B0
:104880000800080008000800080008001000E00008
:104890000000000080008000800080008800900000
:1048A000A000E000900088008400000000000000EC
:1048B000000000000000F0001000100010001000C8
:1048C0001000100010001000FE00000000000000AA
:1048D000000000000000000000000000AC00D40058
:1048E00094009400940094009400000000000000E4
:1048F000000000000000000000000000B800C4003C
:104900008400840084008400840000000000000013
:10491000000000000000000000000000780084009B
:1049200084008400840084007800000000000000FF
:10493000000000000000000000000000B800C400FB
:104940008400840084008400F800800080008000DF
:104950000000000000000000000000007C00840057
:1049600084008400840084007C00040004000400AF
:10497000000000000000000000000000CC0030003B
:104980002000200020002000F800000000000000AF
:104990000000000000000000000000007C0080001B
:1049A0008000780004000400F8000000000000000F
:1049B000000000000000000000002000FC002000BB
:1049C00020002000200020001C000000000000004B
:1049D00000000000000000000000000088008800C7
:1049E0008800880088008800740000000000000033
:1049F00000000000000000000000000082004400F1
:104A000044002800280010001000000000000000F2
:104A1000000000000000000000000000840084008E
:104A2000B400B40048004800480000000000000046
:104A3000000000000000000000000000440028000A
:104A4000280010002800440044000000000000007E
:104A50000000000000000000000000008200440090
:104A6000440028002800280010001000200020002A
:104A7000000000000000000000000000FC00040036
:104A80000800100020004000FC00000000000000B2
:104A900000000000080010001000080008001000CE
:104AA00010000800080010001000080000000000BE
:104AB00000000000100010001000100010000000A6
:104AC0000000100010001000100010000000000096
:104AD0000000000020001000100020002000100046
:104AE0001000200020001000100020000000000036
:104AF000FFFFFFFFFFFFFFFFFFFFFFFFFFFFFFFFC6
:104B0000FFFFFFFFFFFFFFFFFFFFFFFFFFFFFFFFB5
:104B1000FFFFFFFFFFFFFFFFFFFFFFFFFFFFFFFFA5
:104B2000FFFFFFFFFFFFFFFFFFFFFFFFFFFFFFFF95
:104B3000FFFFFFFFFFFFFFFFFFFFFFFFFFFFFFFF85
:104B4000FFFFFFFFFFFFFFFFFFFFFFFFFFFFFFFF75
:104B5000FFFFFFFFFFFFFFFFFFFFFFFFFFFFFFFF65
:104B6000FFFFFFFFFFFFFFFFFFFFFFFFFFFFFFFF55
:104B7000FFFFFFFFFFFFFFFFFFFFFFFFFFFFFFFF45
:104B8000FFFFFFFFFFFFFFFFFFFFFFFFFFFFFFFF35
:104B9000FFFFFFFFFFFFFFFFFFFFFFFFFFFFFFFF25
:104BA000FFFFFFFFFFFFFFFFFFFFFFFFFFFFFFFF15
:104BB000FFFFFFFFFFFFFFFFFFFFFFFFFFFFFFFF05
:104BC000FFFFFFFFFFFFFFFFFFFFFFFFFFFFFFFFF5
:104BD000FFFFFFFFFFFFFFFFFFFFFFFFFFFFFFFFE5
:104BE000FFFFFFFFFFFFFFFFFFFFFFFFFFFFFFFFD5
:104BF000FFFFFFFFFFFFFFFFFFFFFFFFFFFFFFFFC5
:104C0000FFFFFFFFFFFFFFFFFFFFFFFFFFFFFFFFB4
:104C1000FFFFFFFFFFFFFFFFFFFFFFFFFFFFFFFFA4
:104C2000FFFFFFFFFFFFFFFFFFFFFFFFFFFFFFFF94
:104C3000FFFFFFFFFFFFFFFFFFFFFFFFFFFFFFFF84
:104C4000FFFFFFFFFFFFFFFFFFFFFFFFFFFFFFFF74
:104C5000FFFFFFFFFFFFFFFFFFFFFFFFFFFFFFFF64
:104C6000FFFFFFFFFFFFFFFFFFFFFFFFFFFFFFFF54
:104C7000FFFFFFFFFFFFFFFFFFFFFFFFFFFFFFFF44
:104C8000FFFFFFFFFFFFFFFFFFFFFFFFFFFFFFFF34
:104C9000FFFFFFFFFFFFFFFFFFFFFFFFFFFFFFFF24
:104CA000FFFFFFFFFFFFFFFFFFFFFFFFFFFFFFFF14
:104CB000FFFFFFFFFFFFFFFFFFFFFFFFFFFFFFFF04
:104CC000FFFFFFFFFFFFFFFFFFFFFFFFFFFFFFFFF4
:104CD000FFFFFFFFFFFFFFFFFFFFFFFFFFFFFFFFE4
:104CE000FFFFFFFFDF7EDF7EDF7EF7DFFFFFFFFFDF
:104CF000F7DFDF7EDF7EF7DFFFFFFFFFFFFFFFFF56
:104D0000FFFFFFFFFFFFFFFFFFFFFFFFFFFFFFFFB3
:104D1000FFFFFFFFFFFFFFFFFFFFFFFFFFFFFFFFA3
:104D2000FFFFFFFFFFFFFFFFFFFFFFFFFFFFFFFF93
:104D3000FFFFFFFFFFFFFFFFFFFFFFFFFFFFFFFF83
:104D4000FFFFFFFFFFFFFFFFFFFFF7DFDF7EDF7EDD
:104D5000EFBFFFFFFFFFE79FFFFFFFFFFFFFFFFF2B
:104D6000FFFFFFFFFFFFFFFFFFFFFFFFFFFFFFFF53
:104D7000FFFFFFFFFFFFFFFFFFFFFFFFFFFF8E1C97
:104D800003D803D803D8A67DFFFFFFFFA67D03D875
:104D900003D8A67DFFFFFFFFFFFFFFFFFFFFFFFF21
:104DA000FFFFFFFFFFFFFFFFFFFFFFFFFFFFFFFF13
:104DB000FFFFFFFFFFFFFFFFFFFFFFFFFFFFFFFF03
:104DC000FFFFFFFFFFFFFFFFFFFFFFFFFFFFFFFFF3
:104DD000FFFFFFFFFFFFFFFFFFFFFFFFFFFFFFFFE3
:104DE000FFFFFFFFFFFFBEFE03D803D8655BFFFF99
:104DF000A67D4D1A75BBFFFFFFFFFFFFFFFFFFFF03
:104E0000FFFFFFFFFFFFFFFFFFFFFFFFFFFFFFFFB2
:104E1000FFFFFFFFFFFFFFFFB6BD03D803D803D896
:104E200003D8A67DFFFFFFFFA67D03D803D8A67D8C
:104E3000FFFFFFFFFFFFFFFFFFFFFFFFFFFFFFFF82
:104E4000FFFFFFFFFFFFFFFFFFFFFFFFFFFFFFFF72
:104E5000FFFFFFFFFFFFFFFFFFFFFFFFFFFFFFFF62
:104E6000FFFFFFFFFFFFFFFFFFFFFFFFFFFFFFFF52
:104E7000FFFFFFFFFFFFFFFFFFFFFFFFFFFFFFFF42
:104E8000FFFFBEFE03D803D8655BFFFF963C657B42
:104E9000759BFFFFFFFFFFFFFFFFFFFFFFFFFFFF10
:104EA000FFFFFFFFFFFFFFFFFFFFFFFFFFFFFFFF12
:104EB000FFFFCF3E0BF803D803D803D803D8A67D55
:104EC000FFFFFFFFA67D03D803D8A67DFFFFFFFFEE
:104ED000FFFFFFFFFFFFFFFFFFFFFFFFFFFFFFFFE2
:104EE000FFFFFFFFFFFFFFFFFFFFFFFFFFFFFFFFD2
:104EF000FFFFFFFFFFFFFFFFFFFFFFFFFFFFFFFFC2
:104F0000FFFFFFFFFFFFFFFFFFFFFFFFFFFFFFFFB1
:104F1000FFFFFFFFFFFFFFFFFFFFFFFFFFFFBEFEE3
:104F200003D803D8655BFFFFF7DFA67DE79FFFFF90
:104F3000FFFFFFFFFFFFFFFFFFFFFFFFFFFFFFFF81
:104F4000FFFFFFFFFFFFFFFFFFFFFFFFE79F1C5972
:104F500003D803D81C3903D803D8A67DFFFFFFFF71
:104F6000A67D03D803D8A67DFFFFFFFFFFFFFFFF4D
:104F7000FFFFFFFFFFFFFFFFFFFFFFFFFFFFFFFF41
:104F8000FFFFFFFFFFFFFFFFFFFFFFFFFFFFFFFF31
:104F9000FFFFFFFFFFFFFFFFFFFFFFFFFFFFFFFF21
:104FA000FFFFFFFFFFFFFFFFFFFFFFFFFFFFFFFF11
:104FB000FFFFFFFFFFFFFFFFFFFFBEFE03D803D889
:104FC000655BFFFFFFFFFFFFFFFFFFFFFFFFFFFF2F
:104FD000FFFFFFFFFFFFFFFFFFFFFFFFFFFFFFFFE1
:104FE000FFFFFFFFFFFFF7DF34B903D803D85D5B96
:104FF00085FC03D803D8A67DFFFFC71E7DBB03D861
:1050000003D87DBBBEFEBEFEBEFED75EFFFFFFFF28
:10501000FFFFFFFFFFFFD75EA67DA67DCF1EFFFF30
:10502000FFFFFFFFFFFFEFBFAEBDA67DAEBDF7DF09
:10503000FFFFFFFFFFFFFFFFFFFFFFFFFFFFFFFF80
:10504000FFFFC71E9E5C85FC963CBEDDF7DFFFFFC1
:10505000FFFFFFFFFFFFBEFE03D803D8655BFFFF26
:10506000FFFFFFFFFFFFFFFFFFFFFFFFFFFFFFFF50
:10507000FFFFFFFFFFFFFFFFFFFFFFFFFFFFFFFF40
:10508000FFFF553A03D803D83CDAF7DF85FC03D895
:1050900003D8A67DFFFF245903D803D803D803D82B
:1050A00003D803D803D8655BFFFFFFFFFFFFCF3EA8
:1050B00034B903D803D803D803D82C99C71EFFFFEF
:1050C0007DDB0BF803D803D803D80BF87DDBFFFF9B
:1050D000FFFFFFFFFFFFFFFFFFFFBEDD2C7903D8BF
:1050E00003D803D803D803D81C399E5CFFFFFFFF09
:1050F000FFFFBEFE03D803D8655BFFFFFFFFFFFF86
:10510000FFFFFFFFFFFFFFFFFFFFFFFFFFFFFFFFAF
:10511000FFFFFFFFFFFFFFFFFFFFFFFF7DDB03D868
:1051200003D82479E79FFFFF85FC03D803D8A67D29
:10513000FFFF245903D803D803D803D803D803D8D2
:1051400003D8655BFFFFFFFFCF3E0BF803D803D802
:1051500003D803D803D803D803D83CDA03D803D83C
:1051600003D803D803D803D803D8553AFFFFFFFF6D
:10517000FFFFFFFF963C03D803D803D803D803D81A
:1051800003D803D803D803D87DDBFFFFFFFFBEFEA3
:1051900003D803D8655BFFFFFFFFFFFFFFFFFFFFA3
:1051A000FFFFFFFFFFFFFFFFFFFFFFFFFFFFFFFF0F
:1051B000FFFFFFFFFFFF9E7D03D803D80BF8D75EEC
:1051C000FFFFFFFF85FC03D803D8A67DFFFF75BB5B
:1051D0003CDA03D803D83CDA655B655B655B9E5CB3
:1051E000FFFFFFFF2C7903D803D80BF85D3A5D5B16
:1051F000141803D803D803D803D803D83CB9655B87
:105200003CB903D803D803D8963CFFFFFFFFC71E65
:1052100003D803D803D844FAB6BDDF7EC6FE6D7B43
:1052200003D803D803D8BEDDFFFFBEFE03D803D8E2
:10523000655BFFFFFFFFFFFFFFFFFFFFFFFFFFFFBC
:10524000FFFFFFFFFFFFFFFFFFFFFFFFFFFFFFFF6E
:10525000C6FE03D803D803D8BEDDFFFFFFFFFFFF64
:1052600085FC03D803D8A67DFFFFFFFFA67D03D8EA
:1052700003D8A67DFFFFFFFFFFFFFFFFFFFFAEBDCF
:1052800003D803D81438D75EFFFFFFFFE79F2479C8
:1052900003D803D803D885FCFFFFFFFFFFFF85FC81
:1052A00003D803D82479FFFFFFFF4CFA03D803D8B3
:1052B000553AFFFFFFFFFFFFFFFFFFFF7DDC03D835
:1052C00003D844DAFFFFBEFE03D803D8655BFFFFB7
:1052D000FFFFFFFFFFFFFFFFFFFFFFFFFFFFFFFFDE
:1052E000FFFFFFFFFFFFFFFFFFFFDF7E143803D844
:1052F00003D87DDBDF7EDF7EF7DFFFFF85FC03D891
:1053000003D8A67DFFFFFFFFA67D03D803D8A67DA7
:10531000FFFFFFFFFFFFFFFFFFFF75BB03D803D8B1
:105320008E1CFFFFFFFFFFFFFFFFA69D03D803D8E2
:105330001C59FFFFFFFFFFFFFFFFFFFF1C5903D8B2
:1053400003D8E79FEFBF03D803D803D8BEFDDF7EA5
:10535000DF7EDF7EDF7EDF7ED75E03D803D803D813
:10536000EFBFBEFE03D803D8655BFFFFFFFFFFFF63
:10537000FFFFFFFFFFFFFFFFFFFFFFFFFFFFFFFF3D
:10538000FFFFFFFFEFBF2C7903D803D803D803D862
:1053900003D803D8BEFEFFFF85FC03D803D8A67D43
:1053A000FFFFFFFFA67D03D803D8A67DFFFFFFFF09
:1053B000FFFFFFFFFFFF655B03D803D8BEFEFFFFC3
:1053C000FFFFFFFFFFFFDF7E03D803D844DAFFFFB4
:1053D000FFFFFFFFFFFFFFFF44DA03D803D8DF7EA4
:1053E000C6FE03D803D803D803D803D803D803D8FC
:1053F00003D803D803D803D803D803D8C71EBEFEEA
:1054000003D803D8655BFFFFFFFFFFFFFFFFFFFF30
:10541000FFFFFFFFFFFFFFFFFFFFFFFFFFFFFFFF9C
:1054200044FA03D803D803D803D803D803D803D841
:10543000BEFEFFFF85FC03D803D8A67DFFFFFFFF5C
:10544000A67D03D803D8A67DFFFFFFFFFFFFFFFF68
:10545000FFFF655B03D803D8BEFEFFFFFFFFFFFF22
:10546000FFFFDF7E03D803D844DAFFFFFFFFFFFF13
:10547000FFFFFFFF44DA03D803D8DF7EBEFE03D868
:1054800003D803D803D803D803D803D803D803D844
:1054900003D803D803D803D8BEFEBEFE03D803D872
:1054A000655BFFFFFFFFFFFFFFFFFFFFFFFFFFFF4A
:1054B000FFFFFFFFFFFFFFFFFFFF6D7B03D803D858
:1054C0002C9985FC85FC85FC85FC85FCDF7EFFFF37
:1054D00085FC03D803D8A67DFFFFFFFFA67D03D878
:1054E00003D89E5CFFFFFFFFFFFFFFFFFFFF655B31
:1054F00003D803D8BEFEFFFFFFFFFFFFFFFFDF7EE5
:1055000003D803D844DAFFFFFFFFFFFFFFFFFFFFD1
:1055100044DA03D803D8DF7ECF1E03D803D80BF8B4
:1055200085FC85FC85FC85FC85FC85FC85FC85FC73
:1055300085FC85FCDF7EC6FE03D803D8655BFFFFD4
:10554000FFFFFFFFFFFFFFFFFFFFFFFFFFFFFFFF6B
:10555000FFFFFFFF8E3C03D803D81C39E79FFFFFF6
:10556000FFFFFFFFFFFFFFFFFFFFFFFF85FC03D8EB
:1055700003D8A67DFFFFFFFFAEBD03D803D85D5B58
:10558000FFFFFFFFFFFFFFFFFFFF655B03D803D8AF
:10559000BEFEFFFFFFFFFFFFFFFFDF7E03D803D844
:1055A00044DAFFFFFFFFFFFFFFFFFFFF44DA03D8EE
:1055B00003D8DF7EF7DF0BF803D803D8E79FFFFFA0
:1055C000FFFFFFFFFFFFFFFFFFFFFFFFFFFFFFFFEB
:1055D000FFFFE79F03D803D82C79FFFFFFFFFFFFF2
:1055E000FFFFFFFFFFFFFFFFFFFFFFFFFFFFB6BD56
:1055F00003D803D80BF8CF3EFFFFFFFFFFFFFFFFED
:10560000FFFFFFFFFFFFFFFF85FC03D803D8A67D48
:10561000FFFFFFFFF7DF0BF803D803D89E7DFFFFE6
:10562000FFFFFFFFFFFF655B03D803D8BEFEFFFF50
:10563000FFFFFFFFFFFFDF7E03D803D844DAFFFF41
:10564000FFFFFFFFFFFFFFFF44DA03D803D8DF7E31
:10565000FFFF553A03D803D8551AFFFFFFFFFFFF9E
:10566000FFFFFFFFC6FE85FC85FC9E5CFFFFFFFF82
:1056700034B903D803D86D9BFFFFFFFFFFFFFFFF87
:10568000FFFFFFFFFFFFFFFFD75E0BF803D803D834
:10569000AEBDFFFFFFFFFFFFFFFFFFFFFFFFFFFFAD
:1056A000FFFFFFFF85FC03D803D8A67DFFFFFFFFA8
:1056B000FFFF85FC03D803D803D8247944DA861C7D
:1056C000FFFF655B03D803D8BEFEFFFFFFFFFFFFB0
:1056D000FFFFDF7E03D803D844DAFFFFFFFFFFFFA1
:1056E000FFFFFFFF44DA03D803D8DF7EFFFFD75E5A
:1056F00003D803D803D83CDAB6BDDF7ED75E7DDBA6
:1057000003D803D803D8963CFFFFFFFFB6DD03D8CC
:1057100003D803D8143844DA44DAFFFFFFFFFFFF51
:10572000FFFFE79F1C5903D803D8861CFFFFFFFF2C
:10573000FFFFFFFFFFFFFFFFFFFFFFFFFFFFFFFF79
:1057400085FC03D803D8A67DFFFFFFFFFFFFFFFF07
:105750005D3A03D803D803D803D8655BFFFF655BC8
:1057600003D803D8BEFEFFFFFFFFFFFFFFFFDF7E72
:1057700003D803D844DAFFFFFFFFFFFFFFFFFFFF5F
:1057800044DA03D803D8DF7EFFFFFFFF9E5C03D817
:1057900003D803D803D803D803D803D803D803D831
:1057A0005D3AFFFFFFFFFFFFFFFF8E3C03D803D8EA
:1057B00003D803D803D8FFFFFFFFFFFFF7DF3CB993
:1057C00003D803D8657BFFFFFFFFFFFFFFFFFFFF4D
:1057D000FFFFFFFFFFFFFFFFFFFFFFFF85FC03D879
:1057E00003D8A67DFFFFFFFFFFFFFFFFFFFF9E7DAA
:1057F00034B903D803D8655BFFFF655B03D803D8D2
:10580000BEFEFFFFFFFFFFFFFFFFDF7E03D803D8D1
:1058100044DAFFFFFFFFFFFFFFFFFFFF44DA03D87B
:1058200003D8DF7EFFFFFFFFFFFFC6FE3CB903D8B2
:1058300003D803D803D803D824599E5CFFFFFFFF89
:10584000FFFFFFFFFFFFFFFFC6FE4CFA03D803D8A0
:1058500003D8FFFFFFFFFFFFFFFFFFFFFFFFFFFF7B
:10586000FFFFFFFFFFFFFFFFFFFFFFFFFFFFFFFF48
:10587000FFFFFFFFFFFFFFFFFFFFFFFFFFFFFFFF38
:10588000FFFFFFFFFFFFFFFFFFFFFFFFFFFFF7DF50
:10589000DF7EEFBFFFFFFFFFFFFFFFFFFFFFFFFF09
:1058A000FFFFFFFFFFFFFFFFFFFFFFFFFFFFFFFF08
:1058B000FFFFFFFFFFFFFFFFFFFFFFFFFFFFFFFFF8
:1058C000FFFFFFFFFFFFFFFFFFFFDF7EB6BDA67DEF
:1058D000AE9DD75EFFFFFFFFFFFFFFFFFFFFFFFF54
:1058E000FFFFFFFFFFFFFFFFFFFFDF7EDF7EFFFF0A
:1058F000FFFFFFFFFFFFFFFFFFFFFFFFFFFFFFFFB8
:10590000FFFFFFFFFFFFFFFFFFFFFFFFFFFFFFFFA7
:10591000FFFFFFFFFFFFFFFFFFFFFFFFFFFFFFFF97
:10592000FFFFFFFFFFFFFFFFFFFFFFFFFFFFFFFF87
:10593000FFFFFFFFFFFFFFFFFFFFFFFFFFFFFFFF77
:10594000FFFFFFFFFFFFFFFFFFFFFFFFFFFFFFFF67
:10595000FFFFFFFFFFFFFFFFFFFFFFFFFFFFFFFF57
:10596000FFFFFFFFFFFFFFFFFFFFFFFFFFFFFFFF47
:10597000FFFFFFFFFFFFFFFFFFFFFFFFFFFFFFFF37
:10598000FFFFFFFFFFFFFFFFFFFFFFFFFFFFFFFF27
:10599000FFFFFFFFFFFFFFFFFFFFFFFFFFFFFFFF17
:1059A000FFFFFFFFFFFFFFFFFFFFFFFFFFFFFFFF07
:1059B000FFFFFFFFFFFFFFFFFFFFFFFFFFFFFFFFF7
:1059C000FFFFFFFFFFFFFFFFFFFFFFFFFFFFFFFFE7
:1059D000FFFFFFFFFFFFFFFFFFFFFFFFFFFFFFFFD7
:1059E000FFFFFFFFFFFFFFFFFFFFFFFFFFFFFFFFC7
:1059F000FFFFFFFFFFFFFFFFFFFFFFFFFFFFFFFFB7
:105A0000FFFFFFFFFFFFFFFFFFFFFFFFFFFFFFFFA6
:105A1000FFFFFFFFFFFFFFFFFFFFFFFFFFFFFFFF96
:105A2000FFFFFFFFFFFFFFFFFFFFFFFFFFFFFFFF86
:105A3000FFFFFFFFFFFFFFFFFFFFFFFFFFFFFFFF76
:105A4000FFFFFFFFFFFFFFFFFFFFFFFFFFFFFFFF66
:105A5000FFFFFFFFFFFFFFFFFFFFFFFFFFFFFFFF56
:105A6000FFFFFFFFFFFFFFFFFFFFFFFFFFFFFFFF46
:105A7000FFFFFFFFFFFFFFFFFFFFFFFFFFFFFFFF36
:105A8000FFFFFFFFFFFFFFFFFFFFFFFFFFFFFFFF26
:105A9000FFFFFFFFFFFFFFFFFFFFFFFFFFFFFFFF16
:105AA000FFFFFFFFFFFFFFFFFFFFFFFFFFFFFFFF06
:105AB000FFFFFFFFFFFFFFFFFFFFFFFFFFFFFFFFF6
:105AC000FFFFFFFFFFFFFFFF44656D6F6E73747292
:105AD0006174696E6720776964676574730000009C
